:400000000080002011000000AD000000AD00000008B5054B1A6803F53F5302331A6000F0A9FA00F045F800BFFA46004010B5054C237833B9044B13B10448AFF300800123AC
:40004000237010BD2881FF1F000000004C280000084B10B51BB108480849AFF300800848036803B910BD074B002BFBD0BDE81040184700BF000000004C2800002C81FF1F60
:400080000881FF1F0000000008B500F057FE28B1054B1B7803F0C003402B02D14022024B1A7000F093FDFEE7FA460040FEE700BF08B5104E104D16E029686B68AC6800221D
:4000C00004E051F8040B43F8040B0432A242F8D1E868002203E0002143F8041B04328242F9D11035013E002EE6D102F071FBFFF7CBFFFEE701000000242B000008B5124A2E
:40010000124B1A60124A136843F40073136000230AE0032B03D80F4A52F8231000E00E490E4A42F8231001332F2BF2D90C4B1A780C4B1A70094A0C4B1A6000F0A7F8002214
:400140000A4B1A6008BD00BF0004FA050CED00E014ED00E000000000AD0000000080FF1FBC7600400481FF1F08ED00E00081FF1FFEE700BFF0B40022174611E050F8276014
:40018000F3B226F0FF0608E001EB420511F812406D78A5550132013BDBB2002BF4D101370F2FEBD9F0BC7047064B1B78DBB203F00701054A11701B09013213704422034BD7
:4001C0001A707047CF0100496E5800407658004008B50A46002102F02CFB08BD08B502F01DFB08BD08B502F019FB08BD38B506221E4B1A705222A3F580731A701C4B1B78E6
:40020000DBB21C4A13704FF4E1621B4B1A8041F25122023B1A80002419250CE0174B1B7803F0010343EA440404F003044FF4F07000F08EFD013D0DB1032CEFD115B90320A1
:40024000FFF796FF0E4A4FF4807313800723137000230C490B704820023108701370053213700222084B1A7038BD00BF004300400F010049A14600402242004025420040DF
:4002800004400040064000400140004038B572B600240CE0254963001A1952000A4423445B00C8589188FFF793FF0134E4B2052CF0D91E4C04F1240004F16401FFF75AFF76
:4002C0001B4A137843F0020313701032137843F002031370174D2B7843F040032B70A2F58632513A137843F010031370124804F1A8010822FFF772FF104804F1B0010A22D2
:40030000FFF76CFF0E4A137843F0080313700D4C01232370FFF76AFF81232370FFF744FF094829460E22FFF75DFF38BD5028000003500140A0430040C2510040F05100409F
:400340002243004000480040B043004019B370B40E460D464FF6FF71731BC25C00230DE081EA020414F0010F04D048F2084484EA510100E0490852080133DBB2072BEFD930
:40038000013DADB2002DE7D1CB439BB2180280B240EA132001E00020704770BC704700BF30B4002306E01C5CE4B2CD5CAC4205D101339BB29342F6D3002000E0022030BC48
:4003C000704700BF004700BF08B58022024B1A7000F0D6FD08BD00BFFA4600402DE9F04182B00C46164602AF27F8022D01230B7048701546A270130ACB7002F104080846F5
:400400001FFA88F1FFF7A2FF04F80800731DC0F30720E054063517236355F11D204689B23A46962300F018FC02B0BDE8F08100BF70B505460E461446084B984203D010B172
:40044000002000F09BFD002004E0013CAB191B5D1844C0B2002CF8D170BD00BF0080004008B501380B2867D8DFE800F0060E161E262E3E36464E565E4942090201F57F3135
:4004800001F5707101225CE04942090201F57F3101F2C131042254E04942090201F57F3101F2C53102224CE04942090201F57F3101F2C931042244E04942090201F57F3167
:4004C00001F5747101223CE04942090201F57F3101F2D131012234E04942090201F57F3101F2D63102222CE04942090201F57F3101F2D231022224E04942090201F57F317E
:4005000001F5757102221CE04942090201F57F3101F57671042214E04942090201F57F3101F5777101220CE04942090201F57F3101F57871042204E0002000F01FFD0222EE
:400540000021012A02D10878C0B200E00020022A03D10B78487843EA0020042A09D10B78487843EA0023887843EA0043C87843EA006008BD08B50A4B1B7803F0C003802B37
:400580000CD10021064B19700220FFF769FF28B102200021FFF764FFFFF714FF08BD00BFFA460040F8B5064603203146FFF758FF0130070204203146FFF752FF07440320F7
:4005C0003146FFF74DFF013000020024254608E003785A1ED2B2FD2A00D801252344DCB20130B842F4D303203146FFF739FF01300002C0080F4B9F4201D0FF0808E04FF414
:40060000004705E000F190431B782344DCB20130B842F7D36442E4B201203146FFF720FF844202D11DB90620F8BD0620F8BD0020F8BD00BFC0FF03002DE9F04FADF51F7D56
:40064000054600F0EBFB10B1002000F097FC00F0F1FA62B64FF0000A57460A24D0460DB9FF2300E02B4652A84FF496710DF2762200F014FB0DB1013CE4B20CB10028EED190
:40068000002840F09982BDF87632062B26D99DF84821012A24D19DF84B819DF84A2142EA0828414608F107029A421BD8B2F5967F1AD84A1D52AB9E5C0A1D9A5C42EA062686
:4006C00006315B5C172B11D108F1040152A889B2FFF73CFEB0420BD100260AE0042608E0042606E0032604E0032602E0042600E00826002E40F0FA819DF84C919DF84921EB
:40070000A2F13103142B00F2C981DFE813F015007D00C701A5001101C70117012C01A5005601BB01C701C701C701C701C701C701C701C701C7012600002F00F0D981B8F187
:40074000000F40F0D8810020FFF72CFFB0FA80F040098DF84C01012227E2002F00F0CE81B8F1030F04D040F22313984540F0C9819DF84EB19DF84D3143EA0B2BB8F1030FBE
:4007800006D007A80DF24F11A8F1030202F046F8A9F14003DBB23F2B08D80BF1806303F50063180110230193402309E0B9F1030F00F2AA810BEB092318024FF4807301938E
:4007C0009B4500D30A26002E40F0A18107A9019AFFF7E6FD0646002840F09B81B9F1030F00F29981019B9A4540F2A28109F510300BEB0020400107AA134419462022FFF7E6
:40080000CFFD06460022D0E1002F00F09381B8F1010F40F09281B9F1030F00F29181BF4B1B681B68C3F30742914502D1C3F3072305E0914501D9002301E04FF480738DF8F2
:400840004C311B0A8DF84D31FF238DF84E3100238DF84F310422A8E1342A15D1002F00F07281B8F1030F40F07181A9F14003DBB23F2B02D84FF0100A01E04FF4907A07A8BF
:400880000021524601F0D5FF002F00F06281B8F1020F40F2618107AB03EB0A000DF24F11A8F1030201F0BAFFC244AAF1030A1FFA8AFAA9F14003DBB23F2B05D800F034FB7E
:4008C00040234FF0100803E04FF480734FF49078C24540F044819DF84EA19DF84D2142EA0A2A9A4500D30A26002E40F03D81B9F13F0F0FD80AEB092292B2884B1B681968DF
:40090000C1F30F2311F0FF0F01D001339BB29A42C0F02C814846514607AA434600F088FA00B10A2600F054FB4FF0000A52463CE1002F40F03F810426002236E1002F00F0A7
:400940001A810AEB0803B3F5967F00F2178107AB03EB0A0053A9424601F060FFC2441FFA8AFA002221E1B8F1060F40F00A8104AB6B4A92E8030083E803000623013BDBB296
:40098000674A1A44117A1A1D52A8825C914203D1002BF3D1334600E00423042B0AD053AB04AA92E8030083E803004FF0000A01270822FAE01E460022F7E0002F00F0E48083
:4009C000B8F1030F40F0E3809DF84EB19DF84D3143EA0B2BA9F14003DBB23F2B10D84FEA0B11BBF13F0F01D8334600E00A23002B40F0D0804B481022FFF71AFD019011E036
:400A00000BEB09210902BBF1FF0F01D8334600E00A23002B40F0C18000204FF48072FFF707FD0190B9F13F0F0FD809F510320BEB02225201002306E0995C01980144C9B213
:400A4000019101339BB21F2BF6D9B9F1030F13D1BBF1FF0F10D105200021FFF701FD019B181A00F0FF0906200021FFF7F9FCC0EB090000F0FF030193019B5B428DF84C3168
:400A8000012292E00020FFF78DFD10B98022264B1A7000F075FA0426002286E0234B1B68002B7DD0002F7ED08DF80820ADF80A8053AA0392002104910591069202A804A9FB
:400AC0009847BDF81420B2F5937F03D3069953AB994205D0069B03B92AB99DF8106064E00E26002261E00E2600225EE000225CE00426002259E00426002256E004260022ED
:400B000053E00426002250E0092600224DE000224BE0002249E0002247E000BF0C81FF1F0C29000000800040FA4600404481FF1F00223AE00426002237E00426002234E0E6
:400B40000426002231E0042600222EE0042600222BE00426002228E00426002225E04FF0000A0326524620E000221EE04FF0000A0A26524619E00426002216E00326002201
:400B800013E00426002210E0042600220DE0042600220AE01E46002207E01E46002204E00526002201E005260022304652A9FFF715FC01E04FF0000A002D3FF450AD002F17
:400BC0007FF44DAD0DF51F7DBDE8F08F38B50020FFF7E8FC08B1062400E00024134D2B68002001461A68FFF723FC6B681B78C01AC0B24042C0B2834202D12B681B6813B9E7
:400C0000002000F0BBF90A4B1B7803F0C003402B00D024B10020064B1870FFF70DFD0120FFF70AFDFFF7D0FB38BD00BF0C81FF1FFA46004008B562B60020022100F006FC81
:400C40000122014B1A7008BD4881FF1F08B5012000F0BEFC08BD00BFF8B505460F46164603EB83035C00A4B202202946402200F067FC04E0012000F08BF9013CA4B2022080
:400C800000F03EFC08B9002CF4D1022000F038FC10B137800020F8BD1020F8BD2DE9F04180460E46174603EB83035C00A4B2402900D94026204B1B7833B916E0012000F063
:400CC00067F9013DADB200E0254600F003FC08B9002DF3D100F0FEFBA8B100F001FCFFF7B5FF0022144B1A700DE000F0F9FB50B100F0F0FB38B1FFF7A9FF04E0012000F0FE
:400D000047F9013CA4B2012000F0FAFB012801D0002CF3D1012000F0F3FB012807D14146324600F06DFC38800020BDE8F08100233B801020BDE8F0814881FF1F024B1878C2
:400D400000F00100704700BFF1510040000000000230800803D000BF01380046FCD17047EFF3108072B6704780F31088704700BF10B500F07BF900F029FAD0B900F068FA52
:400D80000446072812D102E0012000F017F90A4B1B7813F0020FF7D0074B1B7813F0020F04D0054B1B789B0800D1002400F034FA00E00424204610BD2247004010B500F012
:400DC00055F900F003FA10BB012000F0E1F9072818D11048022100F05BF902280AD102E0012000F0EBF80C4B1B7813F0020FF7D0002409E0084B1B7813F0020FE9D04FF08C
:400E0000FF3401E04FF0FF3400F006FA00E00424204610BD5C81FF1F2247004008B5FFF7A7FF034610B9FFF7C9FF0346184608BD2DE9F041441FE4B23A2C01D9002500E043
:400E4000012510F0800F00D00125412800D901253F2803D8B1F5807F06D808E0802900D90125102B02D102E0012500E0012502B90125002D50D1984616460F46044600F0F6
:400E8000A5F9002847D1204639463246434600F019F9064607283AD102E0012000F08EF81F4B1B7813F0020FF7D01D4B1B7813F0020F06D01A4B1B789B0805D04FF0FF36CC
:400EC00003E04FF0FF3600E02E4606BB154B204639461A785B7800F035F9072804D0064615E0012000F06AF80D4B1B7813F0020FF7D00B4B1B7813F0020F06D0084B1B7888
:400F00009B0804D04FF0FF3601E04FF0FF3600F083F9354600E004252846BDE8F08100BF224700405C81FF1F08B5FFF719FF0F4A137843F0080313701032137843F008031F
:400F40001370C8220A4B1A700A4A137843F0100313701032137843F010031370064B1B7813F0200FFAD0FFF7FFFE08BDA043004001470040AC4300400047004001BE704778
:400F8000024A137843F0010313707047F646004010B5044605E0084B1868FFF7D9FEA4F50044B4F5004FF6D8034B586800FB04F0FFF7CEFE10BD00BF1481FF1F08B5034B2D
:400FC0001B7A03FB00F0FFF7C3FE08BD1481FF1F08B5FFF7C5FE00BF00BF00BF00BF00BF00BF00BF00BF00BF00BF00BF00BF00BF00BF00BF00BF064A13889BB243F0040367
:4010000013801388BFF36F8FFFF7AEFE08BD00BF0048004070B504460E46074B1D681F2802D90020FFF7AAFF04F01F04103455F8240045F8246070BD08ED00E038B50446E3
:401040000D46072902D90020FFF798FF1F2C02D90020FFF793FF04F01F0000F1604000F564406D01EDB2057038BD00BF08B5FFF777FE064A137843F0080313701032137893
:4010800043F008031370FFF76FFE08BDA043004070B506460D4600240CE00120FFF78EFF064B1B7813F0010FF7D0054B1B7833550134E4B2AC42F3D3204670BD22470040C8
:4010C0002047004070B41D4C247814F0020F2CD01B4CB6252570D5252570022525700234247814F0020F22D1154C2070002404E0165D134D2E700134A4B29C42F8D3B3F5CD
:40110000807F16D13F2816D800F5103001EB00214801002305E01A5CD2B209490A7001339BB21F2BF7D9072006E0042004E0092002E0072000E0072070BC704722470040A6
:401140002047004030B4104C247814F0020F15D00E4CB6252570D8252570052525700234247814F0020F0BD1084C2070080A2070C9B2217022702370072002E0042000E050
:40118000092030BC704700BF22470040204700400C4B1B7813F0020F0FD00B4BB6221A70E1221A700E221A7002331B7813F0020F05D1054B1870072070470420704709200C
:4011C000704700BF224700402047004010B5FFF7C7FD0F4B1B78A3B901220D4B1A700D4B1B6813F0010F0ED00A4A136823F00103136000BF00BF00BF0122054B5A600024A9
:4012000002E0042400E00024FFF7AEFD204610BD4C81FF1F0400084008B5FFF7A1FD0A4B00221A705B68012B0AD1084A136843F00103136000BF00BF00BF0022024B5A609C
:40124000FFF792FD08BD00BF4C81FF1F04000840074B1B7813F0020F08D0064BB6221A70E0221A700D221A7007207047042070472247004020470040F8B5FFF771FD0646FF
:40128000384A137843F0010313701032137843F0010313700125344B1D700227943B1F7002F5E2521B32137803F07F0313700020FFF784FE2D4C237803F0F90323702C4A88
:4012C000137803F0DF03137023782B4323702846FFF774FE2820FFF771FE264B1A7802F07F021A701A7802F0BF021A7023783B4323703846FFF762FE237843F00403237035
:4013000000241D4B1C7001331C703046FFF72CFD17201A49FFF77EFE17200721FFF78EFE15201749FFF776FE15200721FFF786FE18201449FFF76EFE18200721FFF77EFEB4
:4013400020461149FFF766FE20460721FFF776FE28460E49FFF75EFE28460721FFF76EFEF8BD00BFA54300409D6000409443004012600040F8510040846000403D1B0000A5
:40138000391B00004D190000C91A0000011B000010B5002304E001241F4AD4542344DBB2002BF8D01D4B4FF400021A604FF080721A6001221A6002221A600022184B1A70EF
:4013C00011B1012904D007E00222164B1A7006E00322144B1A7002E00322124B1A70124B18700023114A1370114A1370114A1370114A1370114A1370114A13700322114B98
:401400001A708022203B1A700120FFF7A1FC04220D4B1A7010BD00BFFC81FF1F00E100E06381FF1F09600040D981FF1F6081FF1FF181FF1F6281FF1FEC81FF1F6181FF1FB9
:40144000D481FF1F286000401260004038B505460C46064B1B7823B9FFF70EFF0122034B1A7028462146FFF793FF38BD5481FF1F002304E001210E4AD1540B44DBB2002B45
:40148000F8D000230B4A13700B4A13700B4A13700B4A13700B4A13700B4A13700B4A137003220B4B1A708022203B1A70704700BFFC81FF1F6381FF1F6081FF1FF181FF1F2B
:4014C0006281FF1FEC81FF1F6181FF1FD481FF1F28600040014B1878704700BF6081FF1F064B1B7813F0FF0F05D0044B1878C0B200221A7070470020704700BF6281FF1FBF
:4015000000EB40008000024B18444078704700BF6881FF1F0138C0B207280CD80001C0B2064BC25C02F00F020133C35C43EA0220023880B270470020704700BF0C60004078
:4015400070B4451EEDB2072D38D82D01EDB21C4E2E4400EB40039B001A4C2344DB889BB2C3F500739A4207D900EB40039B002344DA88C2F5007292B200EB40039B00114C06
:401580002344DB7843EA12230F4C2B55D3B201342B5529B907E0CC5C347001339BB200E000239342F7D3074A41000B189B00134400245C705B79DBB2044AAB5470BC70471A
:4015C000886000406881FF1F0C6000400E600040431EDBB2072B0ED830B41B01DBB206494400221892000A44002555705279D2B202495A5430BC70476881FF1F0E60004098
:401600002DE9F041431EDBB2072B19D8D1B190460D4606461B01DBB20C4F1F44FFF77AFF0446804500D84446002303E03A78EA5401339BB2A342F9D33046FFF7C9FF02E0D6
:40164000002400E000242046BDE8F081886000401E4B19781E4A13880B449BB21380002311E003F1804101F5C0411A4A50680078C0B208705168013151600133DBB211883E
:40168000013989B21180134A128892B20AB1072BE7D90E4A1278D2B2082A00D05BB10E490A7882F080020A700F210C4A117002210B4A117004E0022208490A7008490A70E3
:4016C000024A1370074A1370704700BFD481FF1FDA81FF1FE081FF1F6581FF1FF881FF1F6381FF1FDC81FF1F0222074B1A708022064B1A700F22064B1A700023054A1370D0
:40170000054A1370012070476381FF1F6581FF1FF881FF1FD481FF1FDC81FF1F08B5FFF797FF08BD10B41A4B197801F00F010239C9B2184A13880B449BB21380002013E0B6
:40174000154B5C6800F1804202F5C0421278D2B222705A6801325A600130C0B20139C9B21A88013A92B21A800B4B1B889BB20BB10029E5D1094B1970094A137883F08003A5
:4017800013700B22074B1A705DF8044B704700BF29600040DA81FF1FE081FF1FDC81FF1F6581FF1FF881FF1F0623064A1370064A13708022054B1A700022054B1A70012044
:4017C000704700BF6381FF1FF881FF1F6581FF1FDC81FF1F064B9B6843B1054B9A6810709A6804490988518000229A60704700BFE081FF1FDA81FF1F08B5134B1A78D2B2D5
:401800001A701B78DBB213F0800F02D00F4A137008BD0220FFF7DEFF0D4B1B7803F06003202B05D0402B06D043B900F0BDFD06E000F0A0FF03E000F07DFF00E0002010B92F
:401840000322024B1A7008BD28600040F881FF1F0060004008B5084B1978084A13880B449BB213800022064B1A700120FFF7B2FF0322044B1A7008BDD481FF1FDA81FF1F77
:401880006381FF1FF881FF1F08B50B4B1B78DBB2042B06D0062B07D0022B0BD1FFF7DAFF08BDFFF73FFF08BD0320FFF793FF0322024B1A7008BD00BF6381FF1FF881FF1FF5
:4018C00008B50022044B1A700120FFF783FF0322024B1A7008BD00BF6381FF1FF881FF1F08B50B4B1B7813F0FF0F07D0084A137843F0800307490B70002313700022064B79
:401900001A700120FFF766FF0322044B1A7008BDEC81FF1F086000406381FF1FF881FF1F08B5094B1B78DBB2042B06D0062B07D0022B07D1FFF7F2FE08BDFFF7C1FF08BDA9
:40194000FFF7CEFF08BD00BF6381FF1F08B5284B1B78DBB213F0100F48D013F0800F0CD003F00F03012B16D1FFF746FF214B1B7813F0800F11D1012312E013F0400F03D025
:40198000FFF7CEFF01230BE013F0200F07D0FFF77BFF012304E0002302E0002300E0002323B3134B1B7813F0800F1FD1124B1B78124A12781343124A13701278D2B29A426B
:4019C00014D10C4B1B78DBB2094A127812F0800F07D1084B1B78DBB2054A1370137803F00F03044A1278D2B29342EAD108BD00BF28600040F881FF1F6581FF1FDC81FF1F22
:401A0000296000400022064B1A80064B9B682BB1044A916800230B7092685380704700BFDA81FF1FE081FF1F08B5104B1B889BB213B9FFF759FE16E002220D4B1A70002241
:401A40000C4B1A70FFF7DEFF0B4B1A78013B1B7843EA0223054A128892B29A4201D9034A1380FFF7F5FD012008BD00BFE081FF1F6381FF1F6581FF1F0760004008B504224A
:401A80000C4B1A7080220C4B1A70FFF7BBFF0B4B1A78013B1B7843EA0223094A128892B29A4201D9064A13800B22064B1A70012008BD00BF6381FF1F6581FF1F07600040E5
:401AC000E081FF1FF881FF1F0A4B1B780A4B1B7B03F00303012B04D0074AD37B83F08003D3730122044B5A73044A137803F0FE03137070470E6000406881FF1F0B60004083
:401B00000A4B1B780A4B1B7E03F00303012B04D0074AD37E83F08003D3760122044B5A76044A137803F0FD03137070471E6000406881FF1F0B600040704700BF08B5FFF714
:401B400097FC08BD08B50B4B18780138C0B200F0BBF9094B1B78DBB200EBC30042690749CB5C02EBC3035B68596A0B78044A1380516008BD6081FF1F04600040D881FF1FAA
:401B8000E081FF1F08B50D4B18780138C0B200F09BF90B4B1B78DBB200EBC30042690949CB5C02EBC3035B68DB69597813F8022B42EA012204490A804B6008BD6081FF1F32
:401BC00004600040D881FF1FE081FF1F10B50022194B1A80194B18780138C0B200F074F9174B1B78DBB2174A1278D2B200EBC200416902BB1448825C01EBC20149685A1E53
:401C0000D2B2022A17D803F10053013B01EBC3000E4A1278D2B211F8333093420BD3406802EB4202920081184C68034B5C60825A1A808A689A6010BDE081FF1F6081FF1FDF
:401C40000360004004600040D881FF1F0260004008B55F4B1B78DAB25E4B1B7813F0800F4ED05D4B1B78013B052B00F29280DFE803F0222C3C909003584B1B78DBB2212B71
:401C80000AD1FFF75FFF564B1B889BB2002B00F08280FFF7C9FE08BD504B1B78DBB2222B7BD1FFF76FFF4E4B1B889BB2002B76D0FFF7BAFE08BDFFF789FF494B1B889BB29E
:401CC000002B6ED0FFF7B0FE08BD002A6BD1454B1B7813F0FF0F68D1414901230B80424B13444B60FFF7A0FE08BD002A5FD13C4901230B803D4B13444B60FFF795FE08BDB8
:401D0000344B1B7813F0800F53D1334B1B78DBB20A2B0DD00B2B2ED0092B4CD1FFF756FF2F4B1B889BB2002B47D0FFF7A7FE08BD002A44D12B4B1B7813F0FF0F41D1274B72
:401D40001B78DBB228498B548B5C2949895CDBB28B4203D20021264B995409E0244B9B5CDBB2012B04D9204B9B5CDBB220498B54FFF71AFD08BD32BB1A4B1B78DBB2012B7B
:401D800023D8184B1B78DBB218498B54FFF70CFD08BD002008BD002008BD002008BD002008BD002008BD002008BD002008BD002008BD002008BD002008BD002008BD0020AA
:401DC00008BD002008BD002008BD002008BD00BF04600040006000400160004003600040E081FF1F026000400482FF1FFC81FF1F0082FF1FF0B50024012052E0254604F1AC
:401E0000804303F5C1430C221A70024600EB40039B0027490B445B7913F0FF0F0FD000EB40039B000B441B7913F0800F03D00C21204BE15406E008211E4BE15402E0802189
:401E40001C4BE1541A4F53009918890039440E89C6F30726DFF86CE005F80E600E89F6B20EF1010E05F80E60CE88F6B20EF1790E05F80E60CE88C6F307260EF1010E05F85A
:401E80000E60C988C9B20C4EA95513449B003B44DB88C3F30723094AAB540130C0B21034E4B214F0800FA9D0FF22054B1A70F0BD6881FF1F0E60004084600040856000405B
:401EC0000A6000400C600040074B1B78074A02EBC30253681A7A824203D903EBC003D86870470020704700BFD981FF1F58290000F8B54C4B1B7813F0FF0F00F09280494B00
:401F000018780138C0B2FFF7DFFF057AC068002384E00178444A525C444C645CD2B2A24279D0414A525CD2B24478A24273D1404A1278D2B291426ED1847804F07F02511E83
:401F40000901C9B2C67806F0030614F0800F12D002EB4204A400374F3C4401276770BE4201D1072600E00D2602EB4204A400314F3C44667111E002EB4204A4002D4F3C44CA
:401F800000276770012E01D1052600E0092602EB4204A400274F3C4466710126264C0E55B0F804C0234F02FA06FE0EEB0206B600BC19A4F808C090F802C084F804C090F868
:401FC00003C007F806C00026E6702689C6F30726DFF870C001F80C602689F6B20CF1010C01F80C60E688F6B20CF1790C01F80C60E688C6F307260CF1010C01F80C60E488EA
:40200000E4B20E4E8C55724492003A44D288C2F307220B4C0A5508300133DBB2AB42FFF478AFF8BD6081FF1FD881FF1F6481FF1F046000406881FF1F0E600040846000406E
:40204000856000400C600040034B1A78034B03EBC2035868704700BFD981FF1F5829000008B5074B18780138C0B2FFF72DFF28B14268127900EBC203586908BD002008BDEA
:402080006081FF1FF8B500220EE06B4E53009D18AD00741900217155A1706170E17061712181A1720132D2B2082AEED940B90AE000226249CA546249CA540133DBB200E0E0
:4020C0000023002BF4D05F4B1B7813F0FF0F00F0B2805C4B18780138C0B2FFF7F5FE4368DB7913F0400F05D0574A137843F00103137004E0544A137803F0FE031370057A84
:4021000001246EE0C168002367E08A7802F07F0294425FD1264604EB44029200464F3A44128992B28F88BA4206D204EB44029200DFF804E1724417810A78404FBA5CD2B292
:402140004F78BA4246D1CF7807F0030791F90220002A18DA06EB46029200DFF8DCE072444FF0010E82F801E0774502D14FF0070E01E04FF00D0E06EB460292002E4F3A44D4
:4021800082F805E017E006EB46029200DFF8A8E072444FF0000E82F801E0012F02D14FF0050E01E04FF0090E06EB46029200224F3A4482F805E091F802C01F4F4FEA460E56
:4021C0000EEB060292003A4482F804C0CA787644B600BA5508310133DBB2AB4295D30134E4B2082C8ED9C06800220CE0837803F07F0310F8084B03EB43039B0013490B449F
:402200009C700132D2B2AA42F0D3FFF729FF104B1860002001220AE0074C5300991889002144C8800B89184480B20132D2B2082AF2D9FFF7DFFDF8BD6881FF1FD881FF1FA6
:402240006481FF1F6081FF1F6181FF1F7081FF1FF481FF1F38B5144B1B7803F07F035A1ED2B21101C8B2072A1CD8104C5D00EA1892002244917841F0010191700021D17067
:40228000517841F002015170137913F0800F03D08D22074BC25402E08922054BC254FFF783FA38BD002038BD046000406881FF1F0E600040244B1B7803F07F035A1ED2B21C
:4022C0001101C9B2072A3CD810B55A001A4492001E480244907800F0FE0090700020D0701B4C085D00F07F000855507800F0FD005070127912F0800F10D003EB43039B0023
:40230000124A13445B78DBB2012B03D10C22114BCA5413E00D220F4BCA540FE003EB43039B000A4A13445B78DBB2012B03D10822084BCA5402E00922064BCA54FFF734FA44
:4023400010BD0020704700BF046000406881FF1F0C6000400E60004010B50E4B1C78E4B20D4B18780138C0B2FFF7AEFD43681B799C420BD264B9094A135DDBB208490B5561
:40238000084B1B78DBB21355012010BD002010BD002010BD046000406081FF1FD881FF1F6481FF1F0260004010B50022974B1A80974B1B7813F0800F00F0B480954B1B78BA
:4023C000DBB20A2B00F28D81DFE813F06E008B018B018B018B018B010B008B0199008B01A1008D4B1B78DBB2012B09D1FFF72CFE4268864B5A6012221A80FFF715FB10BDD6
:40240000854B1B78DBB2022B16D103F1804303F5C0431878FFF758FD002800F0648142687A4B5A605A68D1785A68927842EA01221A80FFF7F9FA10BD774B1B78DBB2032B5F
:4024400005D02EE00A7811440133DBB201E000237249734A1278D2B29A4203D90A7812F0FF0FEFD16E4B1B78DBB2EE2B00D16D496B4B1B7813F0FF0F07D0694B1B78DBB2CF
:40248000694A127C934200D168490B7813F0FF0F00F02B810B785D4A13805160FFF7C4FA10BD00F067F910BD594B1B7813F0030317D0022B40F01B8154490B805C4B1B78C6
:4024C00003F07F0303EB43039B005A4A13449A78D2B2594B1A7000225A704B60FFF7A4FA10BD4A4902230B80544B1A78D2B2524B1A7000225A704B60FFF796FA10BD434B4A
:4025000001221A804E4A5A60FFF78EFA10BD3F4A01231380464B1B784A490B445360FFF783FA10BD3B4B1B78013B0A2B00F2E180DFE813F04700DF00A400DF000B00DF00CE
:40254000DF00DF001300DF003000354B1B78DBB23D4A1370FFF728F910BD314B1B7803F0FF041BB1601EC0B2FFF7AEFC04B110B9002C40F0C080324B1B78DBB29C4206D021
:402580002F4B1C700120314B1870FFF77BFDFFF70BF910BDFFF7E0FE002800F0AE80244B1C78E4B22A4B1C700122284B1A70FFF79FFC244B1B5DDBB2264A1355FFF7F4F828
:4025C00010BD134B1B7803F00303012B44D073B1022B40F0948003F1804303F5C0431B7813F0FF0F40F08D80FFF764FE10BD0C4B1B78DBB2012B40F08680104A137803F0E6
:40260000FD031370FFF7D0F810BD00BFE081FF1F006000400160004003600040202A00000260004044290000EC2A0000142A0000046000406881FF1F5881FF1F6181FF1F1B
:402640006081FF1FD881FF1FEC81FF1F6281FF1FF181FF1F6481FF1F314B1B7813F0FF0F53D1304B187802331B78DBB22E49CA5C22EA0002CA54FFF797F810BD2B4B1B78FD
:4026800003F00303012B1AD063B1022B3FD103F1804303F5C0431B7813F0FF0F39D1FFF7D9FD10BD1F4B1B78DBB2012B33D1204A137843F002031370FFF776F810BD184BC3
:4026C0001B7813F0FF0F28D1164B187802331B78DBB21549CA5C22EA0002CA54FFF764F810BD002010BD002010BD002010BD002010BD002010BD002010BD002010BD00208D
:4027000010BD002010BD002010BD002010BD002010BD002010BD002010BD002010BD00BF0460004002600040F081FF1F006000406181FF1F08B50B4B1B7813F0800F0CD009
:40274000094B1B78DBB2012B09D1084B084A5A6012781A80FFF768F908BD002008BD002008BD00BF0060004001600040E081FF1F1C29000008B5124B1B7803F00303012BE0
:4027800002D0022B04D00FE00E4B1B78DBB20CE00C4B1B7803F07F0303EB43039B000A4A13449B78DBB200E00023084A1268D35C032B02D1FFF74CFA08BD002008BD00BFD5
:4027C00000600040046000407081FF1FF481FF1F0E4B70B51E460E4C0025E41AA410A54204D056F8253098470135F8E700F088F9084B094C1E46E41AA4100025A54204D07F
:4028000056F8253098470135F8E770BD0C2B00000C2B00000C2B0000142B000010B5431E0A44914204D011F8014B03F8014FF8E710BD03460244934202D003F8011BFAE75B
:4028400070470000002C0000070000000000000000510040700000000140001000140140000800400140000A004C0140000200500140200001450040025200400107014091
:4028800001090140040A0140010B01400117014001190140034001400241014004420140044301400347014003480140024C0140015101407E0261017C41EE08AF20B820F1
:4028C000BE10D804DF011F20EE0AEE0A33803640CC30A640A7805320A640A780D420A640A780AF20EE1008080F40C20CAE40AF80EE50AC08AF40000A000101000100000067
:402900000100000100000000C00000006930122E00280101981276345012000028000000000104000100000000000000000143595553420000003030303031000000000076
:402940000000000012034D0053004600540031003000300001000000010000006029000001000000EC2A0000010000007029000001000000C02A0000020000009429000091
:4029800001000000A42900000000000090290000030000000000010340000300000082034000030001000000AC29000000000000E029000000000000D429000000000000A2
:4029C0000000000001000000EC29000001000000D22A0000410000001082FF1F0C82FF1F410000005482FF1F0882FF1F240005010900A1000900A1000900150025FF75080D
:402A0000954091020900150025FF750895408102C0C000000A0330003000300031000000040309042C0343007900700072006500730073002000530065006D00690063008C
:402A40006F006E0064007500630074006F0072002203500053006F0043003300200042006F006F0074006C006F006100640065007200280345006D0062006500640069009F
:402A80007400200045006C0065006300740072006F006E0069006300730022035000690053006F004300200042006F006F0074006C006F00610064006500720000000000F9
:402AC0000902290001010480FA09040000020300000209211101000122240007050103400001070582034000010000001201000200000008B4041DB7013003048001000006
:402B0000F8B500BFF8BC08BC9E46704751000000FD000000F8B500BFF8BC08BC9E4670472D000000382B00000881FF1F200000007001000000000000000000004428000015
:402B4000482800000000E02EC05D00001800000000366E010000000000000000000000000000000000000000000000000000000000000000000000000000000000000000FD
:402B80000000000000000000000000000000000000000000000000000000000000000000000000000000000000000000000000000000000000000000000000000000000015
:402BC00000000000000000000000000000000000000000000000000000000000000000000000000000000000000000000000000000000000000000000000000000000000D5
:402C000000800020112C0000755A0000755A000080B500AF02F032FF10B5054C237833B9044B13B10448AFF300800123237010BD4081FF1F0000000020EA0000084B10B56F
:402C40001BB108480849AFF300800848036803B910BD074B002BFBD0BDE81040184700BF0000000020EA00004481FF1F0881FF1F0000000080B500AF0AF0CAF90A4B1B88F9
:402C80009BB201339AB2084B1A80074B1B889BB2052B05D9054B01221A70034B00221A80034B1B7880BD00BF7883FF1FF083FF1F274F004080B500AF032000210AF062F949
:402CC00062B63648002102F075FA3548FF2102F0C1FA344802F0D8FA334B00221A70334BEB221A60314B00225A602F4B00229A702D4B00225A702E4B00221A702D4B0022E2
:402D00001A802D480AF076FA2C480AF075FB0AF04BFD48204821254A0AF056FD0AF02AFB214B5B78184602F0A3FD02F0D1FD1E4B9B78012B0FD11C4B00229A7002F05CFBFB
:402D40001A4B1F4A5A6000F03DF8174B5B78184602F04EFE20E0154B1B68AC2B0AD102F04BFB124B164A5A6000F02CF80F4BEB221A6011E00D4B1B68EB2B0DD00A200AF0B9
:402D8000EFF80A4B1B68BA2B06D0084B1B68AC2B02D0064BBA221A60C7E700BFC483FF1FF483FF1F0484FF1FDC83FF1F7C83FF1FF083FF1F7883FF1F752C00003D530000F1
:402DC0000D60110AF0B587B004AF904B1B78FB718E4B5B88BB808D4B5B78FB70FB780F2B00F085800F2B18DC0A2B5DD00A2B0BDC062B37D0062B02DC042B2CD0FFE0082B03
:402E000037D0092B49D0FAE00C2B5BD00C2B52DB0D2B5ED00E2B63D0F1E0FB2B00F0B280FB2B0CDC162B00F0CD80162B02DC102B64D0E4E0172B68D0182B6DD0DFE0FD2BF4
:402E400000F0BB80FD2B74DBFE2B00F0CE80FF2B00F0D280D3E0FA79BB881046194600F02DFBD0E0FA79BB881046194600F096FBC9E0664B9B79C3F30203DBB21D46634B44
:402E8000DC79624B1B7AF979BA880093084611462A46234600F014FCB5E0FA79BB881046194600F019FEAEE0FA79BB881046194600F07CFEA7E0FA79BB881046194600F06A
:402EC000DFFEA0E0FA79BB881046194600F042FF99E0FA79BB881046194600F0A5FF92E0FA79BB881046194601F008F88BE0FA79BB881046194601F06BF884E0FA79BB884F
:402F00001046194601F0CEF87DE0FA79BB881046194601F075FA76E03C4B1B79C3F30213DBB21946FA79BB8810461A4601F0D0FA69E0364B1B79C3F30303DBB21E46334B25
:402F40001B79C3F30213DBB21D46304B5B79C3F30303DBB21C462D4B5B79C3F30213DBB219462A4B9B7AC3F30503DBB2FA7900910193BB880293104631462A46234601F029
:402F800055FC40E0214B5B7AC3F3C203DBB21D461E4B5B7AC3F30203DBB21C461B4BDB68C3F317031946FA79BB880091104619462A46234601F03AFD25E0BB88184601F0A0
:402FC00025FD20E0114B1B79C3F30303DBB219460E4B1B79C3F30213DBB21C46FA79BB881046224601F0C8F80DE0FA79BB881046194600F011F806E009F080FF03E0044B6A
:40300000044A5A6000BF0C37BD46F0BDE083FF1F7C83FF1F8000ADFB80B586B000AF03460A46FB711346BB80CE4B00225A600023BB7500237B7500233B750023FB7400237A
:40304000BB7400237B7400233B740023FB730023BB7300237B730023FB75FB790A2B00F21B8201A252F823F095300000DF300000E73000000D3100009B31000099340000BD
:4030800099340000FB31000091330000813400008B340000B34B5B6843F00803B14A5360B04B5B6843F02003AE4A5360AD4B5B6843F08003AB4A53600823BB730A237B73E6
:4030C000A84B5B687A7B12021343A64A5360A54B5B68BA7B92031343A24A5360E4E1A14B84225A60E0E1BB7D43F00403BB75BB7D43F00803BB753B7D1A047B7D1B021A4344
:40310000BB7D13431A46974B5A60CDE1BB7C43F00103BB74BB7C43F00203BB74BB7C43F00403BB74BB7C43F00803BB74BB7C43F01003BB74BB7C43F02003BB74BB7C43F006
:403140004003BB74BB7C63F07F03BB747B7C43F002037B747B7C43F004037B747B7C43F008037B747B7C43F010037B747B7C43F020037B747B7C43F040037B747B7C63F032
:403180007F037B747B7C1A04BB7C1B021A43FB7C13431A46734B5A6086E13B7C43F001033B743B7C43F002033B743B7C43F004033B743B7C43F008033B743B7C43F0100350
:4031C0003B743B7C43F020033B743B7C43F040033B743B7C63F07F033B74FB7B43F01003FB73FB7B43F02003FB73FB7B1A023B7C13431A465B4B5A6056E1BB880B2B00F2E8
:40320000508101A252F823F0393200008D320000E1320000353300008D3300008D3300008D3300008D3300008D3300008D3300008D3300008D33000003F0C2F80346042BF3
:4032400018D801A252F823F05D3200006332000075320000693200006F3200000123FB7508E00223FB7505E00323FB7502E00423FB7500BF03F098F803460133FA7D120406
:40328000134343F40023374A536080E007F068FE0346042B18D801A252F823F0B1320000B7320000C9320000BD320000C33200000123FB7508E00223FB7505E00323FB75CE
:4032C00002E00423FB7500BF07F03EFE03460133FA7D1204134343F48013224A536056E007F05EFA0346042B18D801A252F823F0053300000B3300001D3300001133000023
:40330000173300000123FB7508E00223FB7505E00323FB7502E00423FB7500BF07F034FA03460133FA7D1204134343F4C0130D4A53602CE006F0E0FF0346042B1AD801A2F8
:4033400052F823F0593300005F33000075330000693300006F3300000123FB750AE00223FB7507E07C83FF1F0323FB7502E00423FB7500BF06F0B4FF03460133FA7D120454
:40338000134343F400134A4A536000E000BF88E0BB88052B00F2878001A252F823F000BFB93300001B3400007D3400007D3400007D3400007D3400003D4B5B6843F0010373
:4033C0003B4A53603A4B5B6843F01003384A5360374B5B6843F02003354A5360344B5B6843F40073324A5360314B5B6843F400632F4A53602E4B5B6843F480432C4A536086
:403400002B4B5B6843F48033294A5360284B5B6843F40023264A536031E0254B5B6843F00303234A5360224B5B6843F01003204A53601F4B5B6843F060031D4A53601C4B1C
:403440005B6843F400731A4A5360194B5B6843F48053174A5360164B5B6843F48043144A5360134B5B6843F40033114A5360104B5B6843F400230E4A536000E000BF12E0A7
:403480000B4B4FF400725A600EE00A4B93F82C311A46074B5A6007E0054B074A5A6000BF02E000BF00E000BF1837BD4680BD00BF7C83FF1F0484FF1F8000ADFB80B582B0CF
:4034C00000AF03460A46FB711346BB80304BDB7883F00103DBB2002B07D0FB79002B04D0BB8800201946FFF7E9FFFB79062B47D801A252F823F000BF15350000213500007A
:403500002D3500004B35000069350000753500007B35000003F020FC1D4B0122DA7033E003F02EFC1A4B0022DA702DE0BB88002B02D0012B04D027E0002003F03BFC03E04B
:40354000022003F037FC00BF1EE0BB88002B02D0012B04D018E0002003F04CFC03E0042003F048FC00BF0FE0BB88DBB2184603F061FC09E003F0DAFC06E003F0F1FC03E0EE
:40358000044B054A5A6000BF0837BD4680BD00BFC483FF1F7C83FF1F8000ADFB80B582B000AF03460A46FB711346BB80414B5B7983F00103DBB2002B07D0FB79002B04D084
:4035C000BB8800201946FFF7E9FFFB79072B69D801A252F823F000BFF93500000536000011360000373600005D3600008D360000993600009F36000003F03AFA2D4B0122AC
:403600005A7153E003F048FA2A4B00225A714DE0BB88002B02D0012B04D007E0002003F055FA07E0022003F051FA03E0224B234A5A6000BF3AE0BB88002B02D0012B04D068
:4036400007E0002003F062FA07E0042003F05EFA03E0194B194A5A6000BF27E0BB88012B07D0022B09D0002B0BD1002003F06EFA0BE0042003F06AFA07E0082003F066FADE
:4036800003E00D4B0D4A5A6000BF0FE0BB88DBB2184603F07BFA09E003F000FB06E003F017FB03E0044B054A5A6000BF0837BD4680BD00BFC483FF1F7C83FF1F8000ADFBD6
:4036C00090B585B002AF0446084611461A462346FB710346BB800B46BB711346FB70404BDB7983F00103DBB2002B0BD0FB79002B08D0B988BA79FC783B7E00930020234699
:40370000FFF7DEFFFB79092B43D0092B0BDC012B1DD0012B02DC002B13D05AE0042B1CD0072B23D055E0FD2B3FD0FD2B04DC0B2B35D00C2B36D04CE0FE2B39D0FF2B3AD0B7
:4037400047E006F067FC264B0122DA7145E006F071FC234B0022DA713FE0B979FA783B7E084611461A4600F043F836E0BB88002B02D0012B04D007E0002008F003FE07E09E
:40378000022008F0FFFD03E0164B174A5A6000BF23E0BB88DBB2184608F034FE1DE006F0CDFC1AE006F0DEFC17E006F0EFFA14E006F006FB11E0BB88013B9BB218460121F6
:4037C00006F018FB06F0C6FB03461A46054B5A6003E0044B044A5A6000BF0C37BD4690BDC483FF1F7C83FF1F8000ADFB00000000B0B58AB000AF0346FB710B46BB71134647
:403800007B710023FB73FB79002B51D10023FB614AE0AB4AFB6913441B7818460AF0BAFA04460D46BB7918460AF0B4FA02460B4610461946A0A3D3E900230AF04BFC024682
:403840000B46204629460AF01BFB02460B4614461D467B7918460AF09DFA02460B46204629460AF05BF902460B46C7E90823D7E9080191A3D3E900230AF092FD0346002BD0
:4038800004D08DA3D3E90023C7E90823D7E908010AF090FD0346FB738A4AFB691344FA7B1A70FB690133FB61FB69FE2BB1DD53E0FB79012B50D10023BB614AE0824ABB6959
:4038C00013441B7818460AF065FA04460D46BB7918460AF05FFA02460B461046194676A3D3E900230AF0F6FB02460B46204629460AF0C6FA02460B4614461D467B791846A4
:403900000AF048FA02460B46204629460AF006F902460B46C7E90823D7E9080166A3D3E900230AF03DFD0346002B04D062A3D3E90023C7E90823D7E908010AF03BFD034640
:40394000FB73604ABB691344FA7B1A70BB690133BB61BB69FE2BB1DDFB79022B50D100237B614AE0594A7B6913441B7818460AF011FA04460D46BB7918460AF00BFA024631
:403980000B46104619464CA3D3E900230AF0A2FB02460B46204629460AF072FA02460B4614461D467B7918460AF0F4F902460B46204629460AF0B2F802460B46C7E90823B3
:4039C000D7E908013CA3D3E900230AF0E9FC0346002B04D038A3D3E90023C7E90823D7E908010AF0E7FC0346FB73364A7B691344FA7B1A707B6901337B617B69FE2BB1DDDE
:403A0000FB79032B50D100233B614AE0304A3B6913441B7818460AF0BDF904460D46BB7918460AF0B7F902460B461046194622A3D3E900230AF04EFB02460B462046294648
:403A40000AF01EFA02460B4614461D467B7918460AF0A0F902460B46204629460AF05EF802460B46C7E90823D7E9080112A3D3E900230AF095FC0346002B04D00EA3D3E92A
:403A80000023C7E90823D7E908010AF093FC0346FB730C4A3B691344FA7B1A703B6901333B613B69FE2BB1DD0648FF2106F00EFB2837BD46B0BD00BF0000000000E06F4056
:403AC0002CEA00005C81FF1F2CEB00002CEC00002CED0000AFF3008080B582B000AF03460A46FB711346BB80FB790E2B31D00E2B0BDC012B1BD0012B02DC002B11D048E079
:403B00000C2B1AD00D2B1DD043E0192B2DD0192B02DC0F2B22D03CE01A2B29D0FF2B2AD037E002F05DFC1E4B01221A7235E002F0C3FC1B4B00221A722FE0BB88184602F019
:403B4000F9FC2AE002F06AFD03461A46154B5A6023E0BB88184602F0FDFC1EE002F052FD03461A460F4B5A6017E002F09BFD14E002F0B2FD11E0BB88013B9BB2184601214C
:403B800002F062FB02F010FC03461A46054B5A6003E0044B044A5A6000BF0837BD4680BDC483FF1F7C83FF1F8000ADFB80B582B000AF03460A46FB711346BB80FB790E2B87
:403BC00031D00E2B0BDC012B1BD0012B02DC002B11D048E00C2B1AD00D2B1DD043E0192B2DD0192B02DC0F2B22D03CE01A2B29D0FF2B2AD037E002F07DFD1E4B01225A72FE
:403C000035E002F0E3FD1B4B00225A722FE0BB88184602F019FE2AE002F08AFE03461A46154B5A6023E0BB88184602F01DFE1EE002F072FE03461A460F4B5A6017E002F092
:403C4000BBFE14E002F0D2FE11E0BB88013B9BB21846012102F0F8FA02F0A6FB03461A46054B5A6003E0044B044A5A6000BF0837BD4680BDC483FF1F7C83FF1F8000ADFB4C
:403C800080B582B000AF03460A46FB711346BB80FB790E2B31D00E2B0BDC012B1BD0012B02DC002B11D048E00C2B1AD00D2B1DD043E0192B2DD0192B02DC0F2B22D03CE01E
:403CC0001A2B29D0FF2B2AD037E006F025FB1E4B01229A7235E006F089FB1B4B00229A722FE0BB88184606F0BFFB2AE006F030FC03461A46154B5A6023E0BB88184606F091
:403D0000C3FB1EE006F018FC03461A460F4B5A6017E006F061FC14E006F078FC11E0BB88013B9BB21846012107F05EF807F00CF903461A46054B5A6003E0044B044A5A60E5
:403D400000BF0837BD4680BDC483FF1F7C83FF1F8000ADFB80B582B000AF03460A46FB711346BB80FB790E2B31D00E2B0BDC012B1BD0012B02DC002B11D048E00C2B1AD068
:403D80000D2B1DD043E0192B2DD0192B02DC0F2B22D03CE01A2B29D0FF2B2AD037E007F0EFF81E4B0122DA7235E007F055F91B4B0022DA722FE0BB88184607F08BF92AE07E
:403DC00007F0FCF903461A46154B5A6023E0BB88184607F08FF91EE007F0E4F903461A460F4B5A6017E007F02DFA14E007F044FA11E0BB88013B9BB21846012106F0F4FFFE
:403E000007F0A2F803461A46054B5A6003E0044B044A5A6000BF0837BD4680BDC483FF1F7C83FF1F8000ADFB80B582B000AF03460A46FB711346BB80FB790E2B31D00E2B86
:403E40000BDC012B1BD0012B02DC002B11D048E00C2B1AD00D2B1DD043E0192B2DD0192B02DC0F2B22D03CE01A2B29D0FF2B2AD037E006F02FFE1E4B01221A7335E006F032
:403E800095FE1B4B00221A732FE0BB88184606F0CBFE2AE006F03CFF03461A46154B5A6023E0BB88184606F0CFFE1EE006F024FF03461A460F4B5A6017E006F06DFF14E065
:403EC00006F084FF11E0BB88013B9BB21846012106F0AAFB06F058FC03461A46054B5A6003E0044B044A5A6000BF0837BD4680BDC483FF1F7C83FF1F8000ADFB80B582B0EB
:403F000000AF03460A46FB711346BB80FB790E2B31D00E2B0BDC012B1BD0012B02DC002B11D048E00C2B1AD00D2B1DD043E0192B2DD0192B02DC0F2B22D03CE01A2B29D0C4
:403F4000FF2B2AD037E006F03BFC1E4B01225A7335E006F0A1FC1B4B00225A732FE0BB88184606F0D7FC2AE006F048FD03461A46154B5A6023E0BB88184606F0DBFC1EE093
:403F800006F030FD03461A460F4B5A6017E006F079FD14E006F090FD11E0BB88013B9BB21846012106F040FB06F0EEFB03461A46054B5A6003E0044B044A5A6000BF08370F
:403FC000BD4680BDC483FF1F7C83FF1F8000ADFB80B582B000AF03460A46FB711346BB80FB790E2B31D00E2B0BDC012B1BD0012B02DC002B11D048E00C2B1AD00D2B1DD0BF
:4040000043E0192B2DD0192B02DC0F2B22D03CE01A2B29D0FF2B2AD037E003F08FFD1E4B01229A7335E003F01DFE1B4B00229A732FE0BB88184603F039FE2AE003F072FE22
:4040400003461A46154B5A6023E0BB88184603F03DFE1EE003F05AFE03461A460F4B5A6017E003F077FE14E003F08EFE11E0BB88013B9BB21846012106F082F806F030F907
:4040800003461A46054B5A6003E0044B044A5A6000BF0837BD4680BDC483FF1F7C83FF1F8000ADFB80B582B000AF03460A46FB711346BB80FB790E2B31D00E2B0BDC012B82
:4040C0001BD0012B02DC002B11D048E00C2B1AD00D2B1DD043E0192B2DD0192B02DC0F2B22D03CE01A2B29D0FF2B2AD037E007F0ABFD1E4B0122DA7335E007F039FE1B4BE9
:404100000022DA732FE0BB88184607F055FE2AE007F08EFE03461A46154B5A6023E0BB88184607F059FE1EE007F076FE03461A460F4B5A6017E007F093FE14E007F0AAFE9C
:4041400011E0BB88013B9BB21846012106F018F806F0C6F803461A46054B5A6003E0044B044A5A6000BF0837BD4680BDC483FF1F7C83FF1F8000ADFB90B585B000AF044600
:40418000084611461A462346FB710346BB710B467B7113467B800023FB81964BBB6000237B73FB79052B00F21B8101A252F823F0C9410000034200004F4200009F42000080
:4041C0004143000097430000BA797B791046194600F070FDB860BB68864A934203D1864B844A5A6002E1BB681B78DBB203F01003002B14BF01230023DBB21A467E4B5A603A
:40420000F4E0BA797B791046194600F053FDB860BB68784A934203D1774B764A5A60E5E07B8803F00103002B08D0BB68BA681278D2B242F00102D2B21A70D7E0BB68BA6858
:404240001278D2B222F00102D2B21A70CEE0BA797B791046194600F02DFDB860BB68654A934203D1644B634A5A60BFE0BB681B78DBB203F01003002B08D0BB68BA68127806
:40428000D2B222F00102D2B21A70AFE0BB68BA681278D2B242F00102D2B21A70A6E0BA797B791046194600F005FDB860BB68514A934203D1504B4F4A5A6097E07B88013BBB
:4042C000072B00F2928001A252F823F0ED420000F3420000F9420000FF420000054300000B43000011430000174300000023FB8114E00223FB8111E00423FB810EE0062385
:40430000FB810BE00823FB8108E00A23FB8105E00C23FB8102E00E23FB8100BFBB68BA681278D2B2D2B222F00E02D1B2FA89D2B202F00E02D2B20A43D2B2D2B21A7055E0E3
:404340002D4B00225A6000237B731DE07B7B1F2B00D91FE07B7B294A02339B0013445B681B78DBB203F01003002B14BF01230023DBB21A467B7B9A401F4B5B6813431E4A5D
:4043800053607B7B01337B731C4B93F82C317A7B9A42DBD92AE0184B00225A6000237B731AE0BA797B7B1046194600F083FCB860BB68104A93420CD0BB681B78DBB203F041
:4043C00010027B7B02FA03F30B4A526813430A4A53607B7B01337B737B7B072BE1D905E0054B044A5A6000BF00E000BF1437BD4690BD00BF8000ADFB7C83FF1F0484FF1F7D
:4044000080B582B000AF03460A46FB711346BB8007F086FAFB79002B02D0FB79012B0ED107F09CFA002007F0A5FABB88184607F0B9FA03461A46244B5A6007F095FAFB790C
:40444000032B36D801A252F823F000BFBB4400005D44000075440000834400001A4B5B689BB21BB2184607F0D5FA03461A46164B5A6023E0BB88184607F0B2FA07F066FA59
:404480001CE0BB880A2B07D00C2B09D0082B0BD1082007F0B3FA0BE00A2007F0AFFA07E00C2007F0ABFA03E0074B084A5A6000BF04E0054B054A5A6000E000BF07F046FA4F
:4044C0000837BD4680BD00BF7C83FF1F8000ADFB90B585B000AF0346FB710B46BB711346BB800023FB730023BB73AF4A07F1080310681860AD4B1B7D83F00103DBB2002BBD
:4045000009D0FB79002B06D0BA79BB88002011461A46FFF7DDFFFB790F2B00F0A1800F2B0EDC012B00F09080012B02DC002B17D06FE1022B00F08E80032B00F08E8068E1F3
:40454000FD2B00F0B380FD2B03DC182B00F09B805FE1FE2B00F0CD80FF2B00F01D8158E1924B1B7D83F00103DBB2002B5ED002F0FBFD03F085F800BF02F0E2FE0346002BD3
:40458000FAD10023FB734BE04FF480733B814FF480737B810023BB733CE003F03FF902F0A5FE00BF02F0CCFE0346002BFAD1BB7B03F00104FB7B184602F0D2FE03461A46FC
:4045C000630007F110010B4423F8082CBB7B03F001035B0007F11002134433F8082CBB7B591C734B0B40002B03DA013B63F0010301335B0007F110010B4433F8083C9A42E8
:4046000005D1FB7B3A89D1B26A4AD15405E0BB7B0133BB73BB7B132BBFD9FB7B0133FB73FB7B072BB0D9614B01221A75BB79614AD35C1A46604B5A60BB79BA88D1B25D4A6C
:4046400013440A461A72E8E002F09EFD574B00221A75E2E003F01EFADFE003F061FADCE003F0DCF802F042FE00BF02F069FE0346002BFAD1BB79184602F072FE03461A46DC
:404680004D4B5A60C9E003F0C9F802F02FFE00BF02F056FE0346002BFAD1BB79184603F069F903461A46444B5A60B6E003F0B6F802F01CFE404B00225A6000BF02F040FE76
:4046C0000346002BFAD1BB79184602F049FE03461946BB79374AD35C1846BB79354A13441B7A0344994203DD334B01225A6094E093E00023FB73FB7B072B46D80123BB733A
:404700003CE003F08BF802F0F1FD00BF02F018FE0346002BFAD1BB7B03F00104FB7B184602F01EFE03461A46630007F110010B4423F8082CBB7B03F001035B0007F11002AC
:40474000134433F8082CBB7B591E194B0B40002B03DA013B63F0010301335B0007F110010B4433F8083C9A4205D1FB7B3A89D1B2104AD15405E0BB7B0133BB73BB7B142B57
:40478000BFD90D4B0D4A5A6047E0BB79094AD35C1A46094B5A6040E003F040F8064B00225A600023BB7330E02CEE0000C483FF1F01000080F483FF1F7C83FF1F8000ADFBFA
:4047C00002F094FD00BF02F0BBFD0346002BFAD1BB7B184602F0C4FD03461946BB7B104AD35C1846BB7B0E4A13441B7A0344994208DB0C4B5B68BA7B012101FA02F213434D
:40480000084A5360BB7B0133BB73BB7B072BD7D903E0044B044A5A6000BF1437BD4690BDF483FF1F7C83FF1F8000ADFB90B589B000AF0446084611461A462346FB710346BB
:40484000BB710B467B7113463B710023FB6107F069F93A7997F830301046194600F02AFAB861BA797B791046194600F023FA7861BA797B791046194600F036FB3861BB79E2
:40488000184600F037FCF860FB79012B00F0A880022B00F0AE80002B40F0A780BB69584A93420BD07B69564A934207D03B69544A934203D0FB68524A934203D1514B504A2C
:4048C0005A6099E0BB69BA691278D2B2D2B222F00E02D2B242F00C02D2B2D2B21A70BB69BA691278D2B222F00102D2B21A70022008F036FBBB69BA691278D2B242F00102E7
:40490000D2B21A70012007F08FF93F4B1B7897F834309BB2184608F023FBBB69BA691278D2B222F00102D2B21A707B697A691278D2B2D2B222F00E02D2B242F00602D2B2C3
:40494000D2B21A707B697A691278D2B222F00102D2B21A703B6903221A702B4B1B78DBB2DBB25BB2002B03DA264B254A5A6043E0FB681B78DBB21A467B7942FA03F303F0ED
:404980000103002BE9D0012007F04EF91E4B1B7807F00CF903461C4607F036F90346E31A0433FB61184B1B78DBB2DBB25BB2002B04DA07F0FBF80346FB610AE0FB681B7879
:4049C000DBB21A467B7942FA03F303F00103002BDED03B6900221A700A4AFB69536009E03B8F184607F0EEF804E0064B044A5A6000E000BF07F0A6F82437BD4690BD00BF50
:404A00008000ADFB7C83FF1F1B4F004080B483B000AF0346FB80FB88034A53600C37BD465DF8047B704700BF7C83FF1F90B585B002AF0446084611461A462346FB710346E5
:404A4000BB800B46BB711346FB70514B514A5A60514B1B78DBB203F00E030C2B0CD04E4B4D4A1278D2B2D2B222F00E02D2B242F00C02D2B2D2B21A70484B9B7D83F001039A
:404A8000DBB2002B0BD0FB79002B08D0B988BA79FC78BB69009300202346FFF7C7FFFB79092B6DD801A252F823F000BFD54A0000FD4A0000154B0000294B0000394B00009E
:404AC000474B0000574B0000674B0000734B0000794B0000002006F05BFD012008F01EFA06F0D8FB012008F019FA002006F042FD00F058F8294B01229A7545E000BF06F0A5
:404B00005FFC0346002BFAD006F070FC234B00229A7539E0BA79FB7810461946BA6900F0B1F800F03FF82FE0BB881846B96900F04FF800F037F827E0BB88184606F080FD41
:404B400000F030F820E0BB791846B96900F05AF800F028F818E0FB781846B96900F072F800F020F810E0B86906F004FD00F01AF80AE000F017F807E0002006F009FD03E0F1
:404B8000034B074A5A6000BF0C37BD4690BD00BF7C83FF1F0D60110A30500040C483FF1F8000ADFB80B500AF00BF06F009FC0346002BFAD000BF02F0C3FB0346002BFAD10F
:404BC000012006F0A9FB012008F0A8F980BD00BF80B584B000AF03463960FB800023FB6008E0FB68184600213A6806F005FDFB680133FB60FA88FB689A42F2D21037BD462C
:404C000080BD00BF80B485B000AF03463960FB710023FB600023FB600AE0FB79DA00FB68134407493A6841F82320FB680133FB60FB68072BF1DD1437BD465DF8047B704788
:404C40002486FF1F80B485B000AF03463960FB710023FB600023FB600AE0FA79FB68DB00134407493A6841F82320FB680133FB60FB68042BF1DD1437BD465DF8047B70477F
:404C80002486FF1F80B483B000AF03463A60FB710B46BB71FB79DA00BB79134404493A6841F823200C37BD465DF8047B704700BF2486FF1F80B485B000AF03460A46FB7191
:404CC0001346BB716C4BFB60FB790F2B00F2CD8001A252F823F000BF194D00006B4E00006B4E00006B4E00006B4E0000334D0000934D00006B4E00006B4E00006B4E00009C
:404D00006B4E00006B4E0000E94D00006B4E00006B4E0000474E0000BB79022B02D0032B03D0A2E0554BFB6002E0554BFB6000BF9BE0BB79072B00F2938001A252F823F091
:404D4000614D0000674D00006D4D0000734D0000794D00007F4D0000854D00008B4D0000484BFB6014E0484BFB6011E0474BFB600EE0474BFB600BE0464BFB6008E0464B42
:404D8000FB6005E0454BFB6002E0454BFB6000BF66E0BB79013B062B64D801A252F823F0BD4D0000C34D0000C94D0000CF4D0000D54D0000DB4D0000E14D0000394BFB6076
:404DC00011E0394BFB600EE0384BFB600BE0384BFB6008E0374BFB6005E0374BFB6002E0364BFB6000BF3DE0BB79072B3CD801A252F823F0154E00001B4E0000214E000078
:404E0000274E00002D4E0000334E0000394E00003F4E00002A4BFB6014E02A4BFB6011E0294BFB600EE0294BFB600BE0284BFB6008E0284BFB6005E0274BFB6002E0274B67
:404E4000FB6000BF10E0BB79042B02D0052B03D00BE0234BFB6002E0224BFB6000BF04E000BF02E000BF00E000BFFB6818461437BD465DF8047B70478000ADFB025000409C
:404E80000350004028500040295000402A5000402B5000402C5000402D5000402E5000402F5000403150004032500040335000403450004035500040365000403750004027
:404EC00060500040615000406250004063500040645000406550004066500040675000407C5000407D50004080B485B000AF03460A46FB711346BB71644BFB60FB790C2BA6
:404F000000F2B58001A252F823F000BF414F00006F5000006F5000006F5000006F5000005B4F0000BB4F00006F5000006F5000006F5000006F5000006F500000115000002F
:404F4000BB79022B02D0032B03D097E0504BFB6002E0504BFB6000BF90E0BB79072B00F2888001A252F823F0894F00008F4F0000954F00009B4F0000A14F0000A74F0000BF
:404F8000AD4F0000B34F0000434BFB6014E0434BFB6011E0424BFB600EE0424BFB600BE0414BFB6008E0414BFB6005E0404BFB6002E0404BFB6000BF5BE0BB79013B062BAF
:404FC00059D801A252F823F0E54F0000EB4F0000F14F0000F74F0000FD4F00000350000009500000344BFB6011E0344BFB600EE0334BFB600BE0334BFB6008E0324BFB60A4
:4050000005E0324BFB6002E0314BFB6000BF32E0BB79072B31D801A252F823F03D50000043500000495000004F500000555000005B5000006150000067500000254BFB60DF
:4050400014E0254BFB6011E0244BFB600EE0244BFB600BE0234BFB6008E0234BFB6005E0224BFB6002E0224BFB6000BF05E000BF04E000BF02E000BF00E000BFFB6818463B
:405080001437BD465DF8047B704700BF8000ADFB024500400345004028450040294500402A4500402B4500402C4500402D4500402E4500402F450040314500403245004030
:4050C0003345004034450040354500403645004037450040604500406145004062450040634500406445004065450040664500406745004080B485B000AF0346FB71FB7989
:405100000F2B3BD801A252F823F000BF4D5100007D51000053510000595100005F510000655100006B5100007D5100007D5100007D5100007D5100007D51000071510000BF
:405140007D5100007D51000077510000104BFB6017E0104BFB6014E00F4BFB6011E00F4BFB600EE00E4BFB600BE00E4BFB6008E00D4BFB6005E00D4BFB6002E00C4BFB6011
:4051800000BFFB6818461437BD465DF8047B70478045004082450040834500408445004085450040864500408C4500408F4500408000ADFB80B483B000AF78600B46FB706D
:4051C0007B68FA781A707B68FA785A707B68FA789A707B68FA78DA707B68FA781A717B68FA785A717B68FA789A717B68FA78DA717B68FA781A727B68FA785A727B68FA785C
:405200009A727B68FA78DA727B68FA781A737B68FA785A737B68FA789A737B68FA78DA737B68FA781A747B68FA785A747B68FA789A747B68FA78DA747B68FA781A757B68E6
:40524000FA785A757B68FA789A750C37BD465DF8047B704780B582B000AF78600B46FB707A68FB7810461946082209F0D0FB7B6803F10802FB7810461946082209F0C7FB28
:405280000837BD4680BD00BF80B588B000AF7860284A07F10C031068516803C3127A1A700023FB770023BB77234BBB617B681A4607F10C0303CB106051601B7813727B688E
:4052C000002283F82C210023FB772CE00023BB7723E0FB7F07F12002134413F8142CBB7F10461946FFF7E6FCB861BB69124A934210D07B6893F82C317A6802339B001344AC
:40530000BA695A607B6893F82C310133DAB27B6883F82C21BB7F0133BB77BB7F072BD8D9FB7F0133FB77FB7F082BCFD92037BD4680BD00BF30EE00008000ADFB80B483B025
:4053400000AF274B1B78FB71FB7903F02003002B3BD0244B1B78BB71234B1B78DBB2012B04D0022B1FD0002B27D02EE01F4B1B78DBB20133DAB21D4B1A701C4B1B78DBB282
:4053800019461B4ABB795354194B1A78174B1B78DBB29A4206D1174B01221A70124B00221A7012E011E0124ABB7913700F4B00221A700D4B01221A7007E0BB79EB2B03D105
:4053C000094B02221A70FFE700BFFB7903F02003002BB6D10C37BD465DF8047B704700BF686400404A650040A182FF1FA382FF1F5C82FF1FA482FF1F80B483B000AFA94B71
:405400001B7ADAB2A84B5A70A64B5B7ADAB2A64B1A70A44BDB7ADBB21B029AB2A14B9B7ADBB29BB213439BB29AB29F4B5A809E4B1B78FB719C4B5B78BB719B4B5B88BB8027
:40544000BB790F2B00F0F9810F2B1ADC0A2B00F0F6810A2B0ADC062B00F0F381062B01DC042BFBE1082B29D0092BF7E10C2B00F0EA810C2BC0F2E9810D2B00F0E8810E2BD8
:40548000ECE1FB2B00F0FA80FB2B0CDC162B00F08280162B01DC102BE0E1172B00F0D981182B26D0DAE1FD2B00F0B581FD2BC0F2A180FE2B00F0CF81FF2BCFE1FB79042B85
:4054C00000D0CBE1774B9B7ADBB203F00703D9B2754A937961F302039371724BDB7ADAB2714BDA716F4B1B7BDAB26F4B1A7200BFB4E1FB79182B1DD0182B04DC002B07D038
:405500000F2B23D0AAE1FD2B2CD0FF2B36D0A5E1644B9B7ADBB203F00703D9B2624A137961F3061313715F4BDB7ADBB29AB25E4B5A802FE05B4B9B7ADBB203F00703D9B29D
:40554000594A137961F30613137123E0554B9B7ADBB203F00703D9B2534A137961F30613137117E04F4B9B7ADBB203F00703D9B24D4A137961F3061313710BE0494B9B7AC1
:40558000DBB203F00703D9B2474A137961F30613137100BF62E1BB885B089BB2DBB203F00703D9B2404A137961F306131371BB881B099BB2DBB203F00F03D9B23A4A1379D6
:4055C00061F303031371FB79012B02D0032B07D044E1BB8803F001039AB2334B5A8008E0BB881B0A9BB203F00F039AB22E4B5A8000BF33E1FB79012B3ED0022B31D0002B38
:4056000000D02BE1BB88DBB203F00703D9B2264A137961F306131371BB88DB089BB2DBB203F00F03D9B2204A137961F303031371BB88DB099BB2DBB203F00703D9B21A4AF8
:40564000537961F306135371BB889B0A9BB2DBB203F00F03D9B2144A537961F3030353710BE0BB88DBB203F03F03D9B20E4A937A61F30503937200E000BFEFE0FB79023B33
:40568000052B00F2EA8001A252F823F0AD5600000D5700005B5800004D57000097570000E15700007C83FF1FE083FF1F6E4B9B7ADBB21A046C4BDB7ADBB21B0213436A4AA3
:4056C000127BD2B2134323F07F42684B91B2002001439981120CD2B200210A439A73624B5B7BDBB203F00703D9B2604A537A61F3C50353725C4B9B7BDBB203F00703D9B21C
:405700005A4A537A61F30203537283E0564B9B7ADBB21A04544BDB7ADBB21B021343524A127BD2B2134323F07F42504B91B2002001439981120CD2B200210A439A734A4B3D
:405740005B7BDBB29AB2494B5A8063E0464B9B7ADBB21A04444BDB7ADBB21B021343424A127BD2B2134323F07F42404B91B2002001439981120CD2B200210A439A733A4BDF
:405780005B7BDBB203F00703D9B2384A537A61F3C50353723EE0344B9B7ADBB21A04324BDB7ADBB21B0213432F4A127BD2B2134323F07F422D4B91B2002001439981120C94
:4057C000D2B200210A439A73274B5B7BDBB203F00703D9B2254A537A61F30203537219E0214B9B7ADBB21A041F4BDB7ADBB21B0213431D4A127BD2B2134323F07F421B4B07
:4058000091B2002001439981120CD2B200210A439A7300BF21E0154B1B783B2B02D9134B3B221A70114B1B7802330F4A13441B7ADBB29AB20D4B5A8010E000BF0EE000BF81
:405840000CE000BF0AE000BF08E000BF06E000BF04E000BF02E000BF00E000BF0C37BD465DF8047B704700BF7C83FF1FE083FF1F80B582B000AF0346FB71FB79002B02D03B
:40588000012B0DD01DE00020012102F08BFA0E4B01221A700D4B01221A7007F0FBFD10E0094B1B78002B03D007F052FE07F0E6FD00BF02F059FC0346002BFAD002F010FEF5
:4058C00000BF0837BD4680BDA082FF1F9F82FF1F80B582B000AF3C4B00221A803B4B00221A703B4B1B78DBB2002B15D0394B1B78002B04D002F0D8FB364B00221A70364B21
:405900001B78364836491A4609F076F8304B00221A70344B01229A702E4B1B78002B4FD002F022FC0346002B4AD02E4B5B78012B10D02C4B01225A7002F0B6FB322007F0A1
:40594000EDFA0020012102F02DFA264B5B781846FFF78EFF02F014FC0346002B04D0214B5B781846FFF784FF02F000FE0346002B26D00BE0154B1B78DBB2002B06D0134B3C
:4059800000221A70104B00221A8019E002F0EEFD0346002BEED0114802F018FE0346FB71114B1B7ADBB2EB2B0AD10F4B5B7ADBB20A480E491A4609F01FF80A4B01229A7040
:4059C0000837BD4680BD00BF7883FF1FF083FF1FA482FF1F9F82FF1F5C82FF1F8483FF1F5D82FF1FDC83FF1F7C83FF1F8683FF1F80B582B000AF0346FB711B4B00221A8070
:405A00001A4B00221A70FB79002B02D0012B0BD027E01748042107F0E3FD00BF07F000FE0346002BFAD01CE0104B00221A700E4B00221A800BE00D4B1B78DBB2002B06D00D
:405A40000A4B00221A70084B00221A8009E002F0A5FD0346002BEED00548042102F050FD00BF0837BD4680BD7883FF1FF083FF1F8083FF1F80B400AFFEE700BF80B586B0BB
:405A800000AF224B7B61224B3B61204B7B6135E03B691B68FB603B695B68BB603B699B683B6000237B600CE0FB681A68BB681A60BB680433BB60FB680433FB607B68043353
:405AC0007B607A683B689A42EED13B69DB683B6000237B6008E0BB6800221A60BB680433BB607B6804337B607A683B689A42F2D13B6910333B617B69013B7B617B69002B68
:405B0000C6D108F053FFFDF7D5F8FEE70100000044F4000080B582B000AF184B184A1A60184A184B1B6843F40073136000237B600FE07B68032B04D8134A7B6852F8233034
:405B400000E0124B12497A6841F822307B6801337B607B682F2BECD90E4B1B78DAB20E4B1A700E4B0A4A1A6000F038FA06F040FF0B4B00221A600837BD4680BD0CED00E009
:405B80000004FA0514ED00E0002C0000755A00000080FF1FBC7600400481FF1F08ED00E00081FF1F80B582B000AF78603960786800213A6808F02BFF0837BD4680BD00BF55
:405BC00080B584B000AFF860B9607A60F868B9687A6808F011FF1037BD4680BD80B483B000AF0346FB71FEE780B487B000AF7860396000233B6100237B6127E07B699B00D1
:405C00007A6813441B68BB60BB68FB73BB6823F0FF03BB6014E03B695B003A6813441B781A46BB68134419463B695B003A6813445B780B703B6901333B61FB7B013BFB7317
:405C4000FB7B002BE7D17B6901337B617B692C2BD4D91C37BD465DF8047B704780B582B000AF4F4B07221A804E4B18221A704E4B07221A804D4B18221A704D4B07221A802B
:405C80004C4B18221A704C4B07221A804B4B18221A704B4B00221A804A4B58221A704A4B17221A80494B19221A70494B19221A80484B19221A70484A484B134448481946FD
:405CC0000422FFF77DFF474B06221A70464B52221A70464B464A1278D2B21A70454B4FF4E1621A80444B41F251221A800023FB7019237B6014E0FB785B00DAB23F4B1B78F1
:405D0000DBB203F00103DBB21343DBB203F00303FB704FF4F07006F05BFE7B68013B7B607B68002B02D0FB78032BE4D17B68002B02D10320FFF752FF314B4FF480721A8053
:405D40002F4B07221A702F4B00221A702E4B48221A702B4B00221A702C4B00221A702C4B02221A702B4B04221A702B4A2A4B1B78DBB243F07F03DBB21370284A274B1B788D
:405D8000DBB243F00103DBB21370254A244B1B78DBB263F07F03DBB213700837BD4680BD80400040824000408440004086400040884000408A4000408C4000408E40004075
:405DC00090400040924000409440004096400040984000409A4000408005000070120048004100400043004000420040A14600400F010049224200402042004025420040E3
:405E000004400040064000400840004009400040014000400B400040A2430040A1430040A043004080B483B000AF334B1B78FB71324B1B78BB71324B1B787B71314AFB7915
:405E400003F00703DBB213702F4AFB791B09DBB213702A4ABB7943F00303DBB21370284A7B7943F00303DBB21370284B30221A70274BFF221A70274B80221A70264B0022B7
:405E80001A70264B40221A70254B40221A70254B02221A70244B02221A70244B80221A70234B81221A70234B20221A70224B42221A70224BF0221A70214B20221A70214BEC
:405EC0004FF490721A80204B4FF483721A801F4B32221A701E4B01221A70094A7B791370064ABB7913701B4B44221A700C37BD465DF8047B704700BFCF010049F8460040DA
:405F0000F94600406E5800406F5800400D5100403D5100404D51004070580040095900400B590040825A0040885A0040935A0040C05A0040D35A0040005B0040285B0040AD
:405F40002B5B0040405B0040445B0040585B00405B5B00407658004080B483B000AF0346FB71FB790A2B0ED8FB79094A52F82330FA79074951F822201178FA790548825C77
:405F80000A43D2B21A700C37BD465DF8047B70473CEE000068EE000080B483B000AF0346FB71FB790A2B10D8FB790A4A52F82330FA79084951F822201178FA790648825CFD
:405FC000D243D2B20A40D2B21A700C37BD465DF8047B70473CEE000068EE000080B586B000AF72B60023FB7513E0FA7D13465B0013445B00724A13443B613B691A683B6941
:406000009B889BB210461946FFF7CCFDFB7D0133FB75FB7D082BE8D90023FB751CE0FA7D13469B0013445B00664A1344FB60FB681B68BB60FB685B687B60FB681A7A5B7A18
:406040001B0213437B807B88B86879681A46FFF7B7FDFB7D0133FB75FB7D032BDFD95A4B03F190431A46584B03F19043B43310461946FFF7B9FD554B4FF440721A80544BDE
:4060800040F203221A8053480421FFF78BFD4E4A514B1344514819460422FFF791FD50480421FFF77FFD4F480421FFF77BFD4E4A4D4B1B78DBB243F00203DBB213704B4AFE
:4060C0004A4B1B78DBB243F00203DBB21370484A474B1B78DBB243F04003DBB21370454A444B1B78DBB243F01003DBB21370364B03F1904303F591533F4819460822FFF71B
:406100005FFD314A3D4B13443D4819460822FFF757FD2D4A3B4B13443B4819460A22FFF74FFD294A394B1344394819460A22FFF747FD254A374B1344374819460822FFF7D3
:406140003FFD214A354B1344354819460822FFF737FD1D4A334B1344334819460822FFF72FFD194B03F1904303F593532F4819460822FFF725FD144A2D4B13442D481946ED
:406180000822FFF71DFD2C4BC4221A702B4A2B4B1B78DBB243F00803DBB21370284B01221A70FFF75BFD264B81221A70FFF73AFE24480F490E22FFF703FD1837BD4680BDB2
:4061C00074EE0000ACEE000080050000705800404C58004000760040741200480876004010760040187600400350014013500140A0430040C24300400251004028120048A7
:40620000C251004030120048F05100403C120048105100404812004822510040501200483251004058120048425100405251004068120048625100405B0C0140224300409D
:4062400000480040B043004080B584B000AF03460A46FB8013467B7100F0B2F80346FB7300F0A2F80346BB81FA88BB899A4200F08780454B1B78DBB203F00103FB72FB7B6F
:40628000002B20D1BB89002B02D0FB88002B1AD1BB89002B0BD13D4AFB8813803C4A3C4B1B78DBB223F04003DBB2137068E0384A374B1B78DBB243F04003DBB21370334AFE
:4062C000FB8813805CE0FB7A002B33D0314B00221A70314B01221A70304B00221A70304A2F4B1B78DBB203F07F03DBB21370284B1B78DBB203F00803002B02D0FB88002B5C
:4063000018D1284ABB891380224B07221A7000BF204B1B78DBB203F00103002BF8D11A4A194B1B78DBB223F00103DBB21370194B00221A70144B1B78DBB203F00103002B16
:4063400013D0184AFB881380124A7B79002B01D0032300E00123137000BF0E4B1B78DBB203F00103002BF8D10AE0084AFB8813800549054B1B78DAB2FB7A1343DBB20B70C4
:406380001037BD4680BD00BFA24300408040004082400040014000401040004014400040084000400240004080B400AF034B1B889BB21846BD465DF8047B704780400040B4
:4063C00080B400AF054B1B78DBB203F00703DBB21846BD465DF8047B704700BF8240004080B500AF054B1B78002B04D100F008F8024B01221A7000F04FF880BDA882FF1FA6
:4064000080B582B000AF204B1B78DBB223F03F03FB711D4AFB7943F00903DBB213701B4A1A4B1B78DBB243F00103DBB21370184A174B1B78DBB243F00103DBB213704EF630
:40644000602000F049F84EF6602000F073F841F2941000F07FF8002000F08CF806F0C0FA0346BB710B4A0B4B1B78DBB243F01003DBB21370BB79184606F0B6FA00F04CF8C8
:406480000837BD4680BD00BF7264004096650040976500409B64004080B400AF054A054B1B78DBB263F07F03DBB21370BD465DF8047B70477264004080B400AF054A054B25
:4064C0001B78DBB203F07F03DBB21370BD465DF8047B70477264004080B483B000AF0346FB80044AFB8813800C37BD465DF8047B704700BF0C6A004080B400AF044B1B780A
:40650000044B1B889BB21846BD465DF8047B704716650040AC6A004080B500AF01E000F065F800F037F8034603F01003002BF6D180BD00BF80B483B000AF0346FB80044A89
:40654000FB8813800C37BD465DF8047B704700BF8C6A004080B483B000AF0346FB80044AFB8813800C37BD465DF8047B704700BF4C6A004080B483B000AF0346FB71044A62
:40658000FB7913700C37BD465DF8047B704700BF8B64004080B400AF034B1B78DBB21846BD465DF8047B70476B64004080B483B000AF054B1B78FB71FB7918460C37BD465C
:4065C0005DF8047B704700BF7264004080B483B000AF0346FB71044AFB7913700C37BD465DF8047B704700BF7264004080B400AF034B1B889BB21846BD465DF8047B704778
:40660000AC6A004080B400AF034B1B889BB21846BD465DF8047B70474C6A004080B400AF034B1B889BB21846BD465DF8047B70478C6A004080B500AFFFF7F0FF03461A464C
:40664000094B9A80FFF758FF03461A46064B5A80064B1B78DAB2044B9A71FFF7A7FF03461A46014BDA7180BDAC82FF1F8B64004080B500AF094B9B881846FFF75BFF074BD2
:406680005B881846FFF728FF054B044A92791A70024BDB791846FFF799FF80BDAC82FF1F8B64004080B500AF094B1B78DBB2DBB25BB2002B03DA074B01221A7002E0054BD9
:4066C00000221A70FFF7F8FEFFF7B4FF80BD00BF72640040AC82FF1F80B500AFFFF7C8FF034B1B78002B01D0FFF7D6FE80BD00BFAC82FF1F80B500AF054B1B78002B04D1A4
:4067000000F008F8024B01221A7000F04FF880BDB482FF1F80B582B000AF204B1B78DBB223F03F03FB711D4AFB7943F00903DBB213701B4A1A4B1B78DBB243F00103DBB26D
:406740001370184A174B1B78DBB243F00103DBB213704EF6602000F049F84EF6602000F073F841F2941000F07FF8002000F08CF806F036F90346BB710B4A0B4B1B78DBB220
:4067800043F01003DBB21370BB79184606F02CF900F04CF80837BD4680BD00BF7B64004098650040996500409E64004080B400AF054A054B1B78DBB263F07F03DBB2137001
:4067C000BD465DF8047B70477B64004080B400AF054A054B1B78DBB203F07F03DBB21370BD465DF8047B70477B64004080B483B000AF0346FB80044AFB8813800C37BD4694
:406800005DF8047B704700BF106A004080B400AF044B1B78044B1B889BB21846BD465DF8047B704718650040B06A004080B500AF01E000F065F800F037F8034603F01003CD
:40684000002BF6D180BD00BF80B483B000AF0346FB80044AFB8813800C37BD465DF8047B704700BF906A004080B483B000AF0346FB80044AFB8813800C37BD465DF8047BCA
:40688000704700BF506A004080B483B000AF0346FB71044AFB7913700C37BD465DF8047B704700BF8E64004080B400AF034B1B78DBB21846BD465DF8047B70476E64004047
:4068C00080B483B000AF054B1B78FB71FB7918460C37BD465DF8047B704700BF7B64004080B483B000AF0346FB71044AFB7913700C37BD465DF8047B704700BF7B640040F3
:4069000080B400AF034B1B889BB21846BD465DF8047B7047B06A004080B400AF034B1B889BB21846BD465DF8047B7047506A004080B400AF034B1B889BB21846BD465DF812
:40694000047B7047906A004080B500AFFFF7F0FF03461A46094B9A80FFF758FF03461A46064B5A80064B1B78DAB2044B9A71FFF7A7FF03461A46014BDA7180BDB882FF1F6B
:406980008E64004080B500AF094B9B881846FFF75BFF074B5B881846FFF728FF054B044A92791A70024BDB791846FFF799FF80BDB882FF1F8E64004080B500AF094B1B789A
:4069C000DBB2DBB25BB2002B03DA074B01221A7002E0054B00221A70FFF7F8FEFFF7B4FF80BD00BF7B640040B882FF1F80B500AFFFF7C8FF034B1B78002B01D0FFF7D6FE3B
:406A000080BD00BFB882FF1F80B500AF094B18221A70094B00221A70074A074B1B78DBB243F00403DBB21370002000F04FF800F0BDF880BD285800402958004080B400AF5C
:406A4000094A094B1B78DBB243F00403DBB21370064A064B1B78DBB243F00403DBB21370BD465DF8047B7047A8430040B843004080B500AF074B1B78002B04D1FFF7C4FF84
:406A8000044B01221A70FFF7D9FF782000F07EF880BD00BFC082FF1F80B400AF094A094B1B78DBB223F00403DBB21370064A064B1B78DBB223F00403DBB21370BD465DF89B
:406AC000047B7047A8430040B843004080B483B000AF0346FB710C4A0B4B1B78DBB223F00203DBB213700849074B1B78DAB2FB7903F00203DBB21343DBB20B700C37BD46DC
:406B00005DF8047B704700BF2858004080B582B000AF0346FB710C4A0B4B1B78DBB223F00403DBB213700849074B1B78DAB2FB7903F00403DBB21343DBB20B7000F036F851
:406B40000837BD4680BD00BF2958004080B582B000AF0346FB710C4A0B4B1B78DBB223F00C03DBB213700849074B1B78DAB2FB7903F00C03DBB21343DBB20B7000F016F82C
:406B80000837BD4680BD00BF2858004080B483B000AF0346FB71044AFB7913700C37BD465DF8047B704700BF825B004080B483B000AF104B1B78DBB203F00C035B08FB71B8
:406BC0000D4B1B78DBB203F00403DBB2002B02D0FB790133FB71094AFB7903F1924303F594731B78DBB213700C37BD465DF8047B704700BF28580040295800400A460040B2
:406C000080B400AF074B1B78DBB203F02003002B04D1054B1B78DAB2044B5A70BD465DF8047B704729580040825B0040C482FF1F80B400AF154B1B78DBB203F02003002BED
:406C40001FD1134B1B78DBB203F00803002B14D00F4A0F4B1B78DBB223F00803DBB213700C4B0D4A52781A70094A094B1B78DBB243F00803DBB2137003E0064B064A527833
:406C80001A70BD465DF8047B704700BF29580040975A0040825B0040C482FF1F80B500AF094B1B78DBB203F00403002B03D0074B01221A7002E0054B00221A70FFF7ECFE7D
:406CC000FFF79EFF80BD00BFA8430040C482FF1F80B500AFFFF7ACFF064B1B78012B07D1FFF7ACFE044B1B78DBB21846FFF74EFF80BD00BFC482FF1F825B004080B500AFF8
:406D0000064B00221A70064B00221A70002000F071F8002000F04EF880BD00BF245800402558004080B400AF094A094B1B78DBB243F00203DBB21370064A064B1B78DBB262
:406D400043F00203DBB21370BD465DF8047B7047A8430040B843004080B500AF074B1B78002B04D1FFF7CAFF044B01221A70FFF7D9FF642000F05EF880BD00BFC882FF1F57
:406D800080B400AF094A094B1B78DBB223F00203DBB21370064A064B1B78DBB223F00203DBB21370BD465DF8047B7047A8430040B843004080B483B000AF0346FB710C4A03
:406DC0000B4B1B78DBB223F00203DBB213700849074B1B78DAB2FB7903F00203DBB21343DBB20B700C37BD465DF8047B704700BF2458004080B582B000AF0346FB710C4A6F
:406E00000B4B1B78DBB223F00C03DBB213700849074B1B78DAB2FB7903F00C03DBB21343DBB20B7000F016F80837BD4680BD00BF2458004080B483B000AF0346FB71044A76
:406E4000FB7913700C37BD465DF8047B704700BF815B004080B483B000AF0B4B1B78DBB203F00C039B08DBB20633FB71074AFB7903F1924303F598731B78DBB213700C3795
:406E8000BD465DF8047B7047245800400946004080B400AF074B1B78DBB203F02003002B04D1054B1B78DAB2044B5A70BD465DF8047B704725580040815B0040CC82FF1F33
:406EC00080B400AF154B1B78DBB203F02003002B1FD1134B1B78DBB203F00803002B14D00F4A0F4B1B78DBB223F00803DBB213700C4B0D4A52781A70094A094B1B78DBB2A9
:406F000043F00803DBB2137003E0064B064A52781A70BD465DF8047B704700BF255800408F5A0040815B0040CC82FF1F80B500AF094B1B78DBB203F00203002B03D0074BD0
:406F400001221A7002E0054B00221A70FFF718FFFFF79EFF80BD00BFA8430040CC82FF1F80B500AFFFF7ACFF064B1B78012B07D1FFF7D8FE044B1B78DBB21846FFF75AFFFE
:406F800080BD00BFCC82FF1F815B004080B582B000AF00F0F7F9022000F000FB05F020FD0346FB713B4A3B4B1B78DBB243F00303DBB21370384A384B1B78DBB243F00303B1
:406FC000DBB21370FB79184605F00EFD334B4FF434421A80324B4FF6FF721A80314B07221A7005F0FDFC0346FB712F4A2E4B1B78DBB243F00303DBB213702C4A2B4B1B7865
:40700000DBB243F00303DBB21370FB79184605F0EBFC274BFF221A70264BFF221A70264BFF221A70254BFF221A70254BFF221A70244BFF221A70244B04221A60022023498A
:4070400005F0F2FF0220022106F016F805F0C6F80820FEF781FF0920FEF77EFF0A20FEF77BFF1B4A1A4B1B78DBB243F00403DBB2137004F01DFF04F0C1FF002005F034F824
:40708000042005F051F8002005F06EF80837BD4680BD00BF916400409264004021640040416400408C640040936400409064004023640040436400400364004020640040EC
:4070C000506400404064004080E100E0017A00007364004080B582B000AF05F081FC0346FB711B4A1A4B1B78DBB243F02003DBB2137004F00FFF04F0A3FF164A154B1B786D
:40710000DBB243F01003DBB21370134A124B1B78DBB243F01003DBB21370104A0F4B1B78DBB243F00103DBB21370FB79184605F05BFC0B4B04221A600A4A0A4B1B78DBB244
:4071400063F07F03DBB213700837BD4680BD00BF9C640040BB430040AB4300407058004000E100E07364004080B500AF054B1B78002B04D1FFF70AFF024B01221A70FFF7AA
:40718000A9FF80BDD082FF1F80B500AF1C4A1C4B1B78DBB223F00203DBB21370194B04221A6000F0EFF8184A174B1B78DBB223F02003DBB2137004F0C7FE04F05BFF134A18
:4071C000124B1B78DBB223F00103DBB21370104A0F4B1B78DBB223F01003DBB213700D4A0C4B1B78DBB223F01003DBB21370044A034B1B78DBB203F07F03DBB2137080BD5F
:407200007364004080E100E09C64004070580040AB430040BB43004080B485B000AF0346FB71FB790133FB71FB79082B00D111E0FB79DB08FB73FB7903F00703012202FAA3
