:400000000080002011000000953800009538000080B500AF024B034A12681A6003F03EFCBC760040FA46004010B5054C237833B9044B13B10448AFF300800123237010BD42
:400040004081FF1F0000000048CD000008B5064B1BB106480649AFF300800648036813B1054B03B1984708BD0000000048CD00004481FF1F0881FF1F0000000080B584B0C6
:4000800002AF62B603F08EFB0A4803F09BFB094803F094F9074B3A1D00920FCB00F00CF80346002B04D07B68184603F0C9FBEBE7EAE700BF2C82FF1FB0B58AB004AF3C4604
:4000C00084E80F000023FB757B78BB757B88BB823B78FB74FB7C0F2B00F09D800F2B18DC0A2B66D00A2B0BDC062B3DD0062B02DC042B2FD01AE1082B40D0092B4FD015E1F8
:400100000C2B6AD00C2B5EDB0D2B70D00E2B78D00CE1FB2B00F0CB80FB2B0EDC162B00F0E580162B02DC102B7FD0FFE0172B00F08680182B00F08D80F8E0FD2B00F0CE80B3
:40014000FD2BC0F29080FE2B00F0E380FF2B00F0EA80EBE0BA7DBB8A10461946BA6A00F013FB0346FB75E1E0BA7DBB8A10461946BA6A00F05DFB0346FB75D7E0BB79C3F306
:400180000203DBB21A46FB793C7AB87DB98A0094BC6A019400F0B6FB0346FB75C6E0BA7DBB8A10461946BA6A00F01AFE0346FB75BCE0BA7DBB8A10461946BA6A00F07AFEED
:4001C0000346FB75B2E0BA7DBB8A10461946BA6A00F0DAFE0346FB75A8E0BA7DBB8A10461946BA6A00F03AFF0346FB759EE0BA7DBB8A10461946BA6A00F09AFF0346FB750A
:4002000094E0BA7DBB8A10461946BA6A00F0FAFF0346FB758AE0BA7DBB8A10461946BA6A01F05AF80346FB7580E0BA7DBB8A10461946BA6A01F0BAF80346FB7576E0BA7DFA
:40024000BB8A10461946BA6A01F0D2FC0346FB756CE0BA7DBB8A10461946BA6A01F02CFD0346FB7562E03B79C3F30303DBB219463B79C3F30213DBB21A467B79C3F30303BA
:40028000DBB27879C0F30210C0B20546B87AC0F30500C0B20446B87D00950194BC8A0294BC6A039401F08EFD0346FB753EE07B7AC3F3C203DBB21A467B7AC3F30203DBB2B3
:4002C000F968C1F317010C46B87DB98A0094BC6A019402F06FFF0346FB7527E0BB8A1846B96A02F057FF0346FB751FE03B79C3F30303DBB219463B79C3F30213DBB21A460A
:40030000B87DBB8ABC6A009401F0BAF80346FB750CE0BA7DBB8A10461946BA6A00F00CF80346FB7502E00BF00FFC00BFFB7D18461837BD46B0BD00BF80B586B000AF0B46D9
:400340003A600246FA71BB803B6800221A600023BB7500237B7500233B750023FB740023BB7400237B7400233B740023FB730023BB7300237B730023FB75FB79082B00F296
:40038000FE8101A252F823F0AD030000F7030000FF03000055040000AB0400007F0700007F070000FB0400008D0600003B681B6843F008023B681A603B681B6843F0200271
:4003C0003B681A603B681B6843F080023B681A600823BB7308237B733B681A687B7B1B021A433B681A603B681A68BB7B9B031A433B681A60C3E13B6884221A60BFE17B7D52
:4004000043F001037B757B7D43F002037B757B7D43F004037B757B7D43F008037B757B7D43F010037B757B7D43F020037B757B7D43F040037B757B7D63F07F037B753B7DEE
:400440001A047B7D1B021A43BB7D13431A463B681A6094E1BB7C43F00103BB74BB7C43F00203BB74BB7C43F00403BB74BB7C43F00803BB74BB7C43F01003BB74BB7C43F0D7
:400480002003BB74BB7C43F04003BB74BB7C63F07F03BB747B7C1A04BB7C1B021A43FB7C13431A463B681A6069E13B7C43F001033B743B7C43F002033B743B7C43F004034D
:4004C0003B743B7C43F008033B743B7C43F010033B743B7C43F020033B743B7C43F040033B743B7C63F07F033B74FB7B1A023B7C13431A463B681A6041E1BB880B2B00F281
:400500003B8101A252F823F0390500008D050000E105000035060000890600008906000089060000890600008906000089060000890600008906000003F026FE0346042B07
:4005400018D801A252F823F05D0500006305000075050000690500006F0500000123FB7508E00223FB7505E00323FB7502E00423FB7500BF03F0FCFD03465A1CFB7D1B045F
:40058000134343F400223B681A607EE009F08EF90346042B18D801A252F823F0B1050000B7050000C9050000BD050000C30500000123FB7508E00223FB7505E00323FB75D3
:4005C00002E00423FB7500BF09F064F903465A1CFB7D1B04134343F480123B681A6054E008F086FD0346042B18D801A252F823F0050600000B0600001D060000110600006E
:40060000170600000123FB7508E00223FB7505E00323FB7502E00423FB7500BF08F05CFD03465A1CFB7D1B04134343F4C0123B681A602AE008F008FB0346042B18D801A2A6
:4006400052F823F0590600005F06000071060000650600006B0600000123FB7508E00223FB7505E00323FB7502E00423FB7500BF08F0DEFA03465A1CFB7D1B04134343F48F
:4006800000123B681A6000E000BF75E0BB88052B74D801A252F823F0B106000013070000750700007507000075070000750700003B681B6843F001023B681A603B681B68F8
:4006C00043F010023B681A603B681B6843F020023B681A603B681B6843F400723B681A603B681B6843F400623B681A603B681B6843F480423B681A603B681B6843F48032ED
:400700003B681A603B681B6843F400223B681A6031E03B681B6843F003023B681A603B681B6843F010023B681A603B681B6843F060023B681A603B681B6843F400723B68A2
:400740001A603B681B6843F480523B681A603B681B6843F480423B681A603B681B6843F400323B681A603B681B6843F400223B681A6000E000BF01E000BF00E000BF01232D
:4007800018461837BD4680BD80B584B000AF0B463A600246FA71BB800023FB73FB79062B40D801A252F823F0C5070000CB070000D1070000EF0700000D080000190800006B
:4007C0001F08000004F0A8F92CE004F0B9F929E0BB88002B02D0012B04D023E0002004F0C9F903E0022004F0C5F900BF1AE0BB88002B02D0012B04D014E0002004F0DAF9DE
:4008000003E0042004F0D6F900BF0BE0BB88DBB2184604F0EFF905E004F068FA02E004F07FFA00BFFB7B18461037BD4680BD00BF80B584B000AF0B463A600246FA71BB80E6
:400840000023FB73FB79072B57D801A252F823F071080000770800007D0800009B080000B9080000E3080000EF080000F508000003F0DEFF41E003F0EFFF3EE0BB88002BF4
:4008800002D0012B04D038E0002003F0FFFF03E0022003F0FBFF00BF2FE0BB88002B02D0012B04D029E0002004F010F803E0042004F00CF800BF20E0BB88012B08D0022BE6
:4008C0000AD0002B00D018E0002004F01FF807E0042004F01BF803E0082004F017F800BF0BE0BB88DBB2184604F030F805E004F0B5F802E004F0CCF800BFFB7B18461037F2
:40090000BD4680BD80B584B000AFF871B980BA71FB700023FB73FB79092B39D0092B0BDC012B1AD0012B02DC002B13D052E0042B16D0072B1DD04DE0FD2B35D0FD2B04DCD4
:400940000B2B2BD00C2B2CD044E0FE2B2FD0FF2B30D03FE008F008F83CE008F015F839E0B979FA783B7E084611461A4600F038F830E0BB88002B02D0012B04D02AE0002050
:400980000AF044FB03E002200AF040FB00BF21E0BB88DBB218460AF079FB1BE008F078F818E008F089F815E007F09CFE12E007F0B3FE0FE0BB88013B9BB21846012107F042
:4009C000C5FE07F071FF03461A46FB691A600123FB7300BFFB7B18461037BD4680BD00BFB0B5ADF5A46D00AFFB1D1870BB1D19707B1D1A7007F58162894B11461A46FF2365
:400A0000084611461A460CF08DF907F54272854B11461A46FF23084611461A460CF082F907F50272804B11461A46FF23084611461A460CF077F907F584727C4B11461A4665
:400A4000FF23084611461A460CF06CF907F1080318460021FF220CF06EF9002387F80735FB1D1B78002B65D10023C7F814355CE007F58162D7F8143513441B7818460BF05D
:400A800015FB04460D46BB1D1B7818460BF00EFB02460B46104619465FA3D3E900230BF0A5FC02460B46204629460BF075FB02460B4614461D467B1D1B7818460BF0F6FA4E
:400AC00002460B46204629460BF0B4F902460B4607F5A361C1E9002307F5A363D3E900014DA3D3E900230BF0E7FD0346002B06D049A3D3E9002307F5A361C1E9002307F52F
:400B0000A363D3E900010BF0E1FD034687F8073507F10802D7F81435134497F807251A70D7F814350133C7F81435D7F81435FE2B9EDD68E0FB1D1B78012B64D10023C7F819
:400B400010355CE007F54272D7F8103513441B7818460BF0ABFA04460D46BB1D1B7818460BF0A4FA02460B46104619462AA3D3E900230BF03BFC02460B46204629460BF0B4
:400B80000BFB02460B4614461D467B1D1B7818460BF08CFA02460B46204629460BF04AF902460B4607F5A361C1E9002307F5A363D3E9000118A3D3E900230BF07DFD0346A6
:400BC000002B06D014A3D3E9002307F5A361C1E9002307F5A363D3E900010BF077FD034687F8073507F10802D7F81035134497F807251A70D7F810350133C7F81035D7F892
:400C00001035FE2B9EDDFB1D1B78022B71D10023C7F80C3569E000BF0000000000E06F4054CD000054CE000054CF000054D0000007F50272D7F80C3513441B7818460BF0AA
:400C400035FA04460D46BB1D1B7818460BF02EFA02460B46104619465FA3D3E900230BF0C5FB02460B46204629460BF095FA02460B4614461D467B1D1B7818460BF016FAF0
:400C800002460B46204629460BF0D4F802460B4607F5A361C1E9002307F5A363D3E900014DA3D3E900230BF007FD0346002B06D049A3D3E9002307F5A361C1E9002307F52E
:400CC000A363D3E900010BF001FD034687F8073507F10802D7F80C35134497F807251A70D7F80C350133C7F80C35D7F80C35FE2B9EDDFB1D1B78032B64D10023C7F8083561
:400D00005CE007F58472D7F8083513441B7818460BF0CCF904460D46BB1D1B7818460BF0C5F902460B46104619462BA3D3E900230BF05CFB02460B46204629460BF02CFA76
:400D400002460B4614461D467B1D1B7818460BF0ADF902460B46204629460BF06BF802460B4607F5A361C1E9002307F5A363D3E9000119A3D3E900230BF09EFC0346002B5E
:400D800006D015A3D3E9002307F5A361C1E9002307F5A363D3E900010BF098FC034687F8073507F10802D7F80835134497F807251A70D7F808350133C7F80835D7F80835B5
:400DC000FE2B9EDD07F108031846FF2107F028FE07F5A467BD46B0BD0000000000E06F4080B584B000AF0B463A600246FA71BB800023FB73FB790E2B2FD00E2B0BDC012B31
:400E00001AD0012B02DC002B13D04DE00C2B16D00D2B19D048E0192B30D0192B04DC0F2B20D0182B27D03FE01A2B2AD0FF2B2BD03AE003F0B9F937E003F020FA34E0BB8894
:400E4000184603F059FA2FE003F0CAFA03461A463B681A600123FB7326E0BB88184603F05BFA21E003F0B0FA03461A463B681A600123FB7318E003F031FA15E003F0F4FADF
:400E800012E003F00BFB0FE0BB88013B9BB21846012103F0BFF803F06BF903461A463B681A600123FB7300BFFB7B18461037BD4680BD00BF80B584B000AF0B463A6002468F
:400EC000FA71BB800023FB73FB790E2B2FD00E2B0BDC012B1AD0012B02DC002B13D04DE00C2B16D00D2B19D048E0192B30D0192B04DC0F2B20D0182B27D03FE01A2B2AD004
:400F0000FF2B2BD03AE003F0D7FA37E003F03EFB34E0BB88184603F077FB2FE003F0E8FB03461A463B681A600123FB7326E0BB88184603F079FB21E003F0CEFB03461A46A0
:400F40003B681A600123FB7318E003F04FFB15E003F012FC12E003F029FC0FE0BB88013B9BB21846012103F055F803F001F903461A463B681A600123FB7300BFFB7B18463A
:400F80001037BD4680BD00BF80B584B000AF0B463A600246FA71BB800023FB73FB790E2B2FD00E2B0BDC012B1AD0012B02DC002B13D04DE00C2B16D00D2B19D048E0192B98
:400FC00030D0192B04DC0F2B20D0182B27D03FE01A2B2AD0FF2B2BD03AE007F045FE37E007F0AEFE34E0BB88184607F0E7FE2FE007F058FF03461A463B681A600123FB7392
:4010000026E0BB88184607F0E9FE21E007F03EFF03461A463B681A600123FB7318E007F0BFFE15E007F082FF12E007F099FF0FE0BB88013B9BB21846012108F07DFB08F061
:4010400029FC03461A463B681A600123FB7300BFFB7B18461037BD4680BD00BF80B584B000AF0B463A600246FA71BB800023FB73FB790E2B2FD00E2B0BDC012B1AD0012B8A
:4010800002DC002B13D04DE00C2B16D00D2B19D048E0192B30D0192B04DC0F2B20D0182B27D03FE01A2B2AD0FF2B2BD03AE008F00DFC37E008F076FC34E0BB88184608F019
:4010C000AFFC2FE008F020FD03461A463B681A600123FB7326E0BB88184608F0B1FC21E008F006FD03461A463B681A600123FB7318E008F087FC15E008F04AFD12E008F098
:4011000061FD0FE0BB88013B9BB21846012108F013FB08F0BFFB03461A463B681A600123FB7300BFFB7B18461037BD4680BD00BF80B584B000AF0B463A600246FA71BB803C
:401140000023FB73FB790E2B2FD00E2B0BDC012B1AD0012B02DC002B13D04DE00C2B16D00D2B19D048E0192B30D0192B04DC0F2B20D0182B27D03FE01A2B2AD0FF2B2BD002
:401180003AE008F04FF937E008F0B8F934E0BB88184608F0F1F92FE008F062FA03461A463B681A600123FB7326E0BB88184608F0F3F921E008F048FA03461A463B681A6037
:4011C0000123FB7318E008F0C9F915E008F08CFA12E008F0A3FA0FE0BB88013B9BB21846012107F0CBFE07F077FF03461A463B681A600123FB7300BFFB7B18461037BD4614
:4012000080BD00BF80B584B000AF0B463A600246FA71BB800023FB73FB790E2B2FD00E2B0BDC012B1AD0012B02DC002B13D04DE00C2B16D00D2B19D048E0192B30D0192B1B
:4012400004DC0F2B20D0182B27D03FE01A2B2AD0FF2B2BD03AE007F05BFF37E007F0C4FF34E0BB88184607F0FDFF2FE008F06EF803461A463B681A600123FB7326E0BB88B5
:40128000184607F0FFFF21E008F054F803461A463B681A600123FB7318E007F0D5FF15E008F098F812E008F0AFF80FE0BB88013B9BB21846012107F061FE07F00DFF034690
:4012C0001A463B681A600123FB7300BFFB7B18461037BD4680BD00BF80B584B000AF0B463A600246FA71BB800023FB73FB790E2B2FD00E2B0BDC012B1AD0012B02DC002B6D
:4013000013D04DE00C2B16D00D2B19D048E0192B30D0192B04DC0F2B20D0182B27D03FE01A2B2AD0FF2B2BD03AE004F0E3FA37E004F04CFB34E0BB88184604F085FB2FE073
:4013400004F0F6FB03461A463B681A600123FB7326E0BB88184604F087FB21E004F0DCFB03461A463B681A600123FB7318E004F05DFB15E004F020FC12E004F037FC0FE09E
:40138000BB88013B9BB21846012107F0A3FB07F04FFC03461A463B681A600123FB7300BFFB7B18461037BD4680BD00BF80B584B000AF0B463A600246FA71BB800023FB7357
:4013C000FB790E2B2FD00E2B0BDC012B1AD0012B02DC002B13D04DE00C2B16D00D2B19D048E0192B30D0192B04DC0F2B20D0182B27D03FE01A2B2AD0FF2B2BD03AE009F0FE
:401400001BFA37E009F082FA34E0BB88184609F0BBFA2FE009F02CFB03461A463B681A600123FB7326E0BB88184609F0BDFA21E009F012FB03461A463B681A600123FB736B
:4014400018E009F093FA15E009F056FB12E009F06DFB0FE0BB88013B9BB21846012107F039FB07F0E5FB03461A463B681A600123FB7300BFFB7B18461037BD4680BD00BFEE
:4014800080B584B000AFF871B9717A717B800023FB8100237B73FB79042B00F2A38301A252F823F0B91400005B170000E51B00006B190000E51B0000BB790F2B00F28D83FD
:4014C00001A252F823F000BF4B170000DB1B0000091500004B1700004B170000CB1500004B170000DB1B0000DB1B0000DB1B0000DB1B0000DB1B00008B160000DB1B00004C
:40150000DB1B00004B1700007B79072B00F21F8101A252F823F000BF391500004B1500005D1500006F1500008115000093150000A5150000B715000004F09CFF03461A463C
:40154000BB691A6001237B733EE004F097FD03461A46BB691A6001237B7335E004F066FE03461A46BB691A6001237B732CE005F015F803461A46BB691A6001237B7323E08C
:4015800004F0C2FF03461A46BB691A6001237B731AE004F0DDFE03461A46BB691A6001237B7311E004F0F8FD03461A46BB691A6001237B7308E004F0A7FD03461A46BB697B
:4015C0001A6001237B7300BFC1E07B79072B00F2C08001A252F823F0F91500000B1600001D1600002F1600004116000053160000651600007716000005F0ACF803461A46F6
:40160000BB691A6001237B733EE004F05FFC03461A46BB691A6001237B7335E004F02EFB03461A46BB691A6001237B732CE004F06FFB03461A46BB691A6001237B7323E0E3
:4016400004F0B0FB03461A46BB691A6001237B731AE004F0F1FB03461A46BB691A6001237B7311E008F0F6FA03461A46BB691A6001237B7308E008F033FB03461A46BB6932
:401680001A6001237B7300BF63E07B79072B62D801A252F823F000BFB9160000CB160000DD160000EF1600000117000013170000251700003717000004F000FE03461A466E
:4016C000BB691A6001237B733EE009F0A5F803461A46BB691A6001237B7335E004F082FE03461A46BB691A6001237B732CE004F09FFF03461A46BB691A6001237B7323E051
:4017000004F0E0FF03461A46BB691A6001237B731AE005F069F803461A46BB691A6001237B7311E004F01CFC03461A46BB691A6001237B7308E004F059FC03461A46BB6980
:401740001A6001237B7300BF05E000BF45E200BF43E200BF41E200BF3FE2BB790F2B00F23E8201A252F823F05B190000DF1B0000A91700005B1900005B1900003B18000024
:401780005B190000DF1B0000DF1B0000DF1B0000DF1B0000DF1B0000CB180000DF1B0000DF1B00005B1900007B79072B00F2D78001A252F823F000BFD9170000E51700006E
:4017C000F1170000FD1700000918000015180000211800002D1800007B88DBB2184604F011FE29E07B88DBB2184604F00DFC23E07B88DBB2184604F0DFFC1DE07B88DBB2CF
:40180000184604F091FE17E07B88DBB2184604F041FE11E07B88DBB2184604F05FFD0BE07B88DBB2184604F07DFC05E07B88DBB2184604F033FC00BF91E07B79072B00F2FC
:40184000908001A252F823F06918000075180000811800008D18000099180000A5180000B1180000BD1800007B88DBB2184604F039FF29E07B88DBB2184604F0EDFA23E011
:401880007B88DBB2184604F0BFF91DE07B88DBB2184604F003FA17E07B88DBB2184604F047FA11E07B88DBB2184604F08BFA0BE07B88DBB2184608F093F905E07B88DBB26E
:4018C000184608F0D7F900BF4BE07B79072B4AD801A252F823F000BFF918000005190000111900001D1900002919000035190000411900004D1900007B88DBB2184604F010
:40190000A5FC29E07B88DBB2184608F04BFF23E07B88DBB2184604F02BFD1DE07B88DBB2184604F04BFE17E07B88DBB2184604F08FFE11E07B88DBB2184604F01BFF0BE05A
:401940007B88DBB2184604F0D1FA05E07B88DBB2184604F015FB00BF05E000BF3FE100BF3DE100BF3BE100BF39E17B88013B072B2AD801A252F823F0991900009F190000F2
:40198000A5190000AB190000B1190000B7190000BD190000C31900000023FB8114E00223FB8111E00423FB810EE00623FB810BE00823FB8108E00A23FB8105E00C23FB814B
:4019C00002E00E23FB8100BFBB790F2B00F2098101A252F823F000BFCB1B0000E31B0000191A0000CB1B0000CB1B0000AB1A0000CB1B0000E31B0000E31B0000E31B000068
:401A0000E31B0000E31B00003B1B0000E31B0000E31B0000CB1B00007B79072B00F2D78001A252F823F000BF491A0000551A0000611A00006D1A0000791A0000851A00003E
:401A4000911A00009D1A0000FB89DBB2184604F0F5FC29E0FB89DBB2184604F0F3FA23E0FB89DBB2184604F0C5FB1DE0FB89DBB2184604F077FD17E0FB89DBB2184604F003
:401A800027FD11E0FB89DBB2184604F045FC0BE0FB89DBB2184604F063FB05E0FB89DBB2184604F015FB00BF91E07B79072B00F2908001A252F823F0D91A0000E51A00001F
:401AC000F11A0000FD1A0000091B0000151B0000211B00002D1B0000FB89DBB2184604F01DFE29E0FB89DBB2184604F0D3F923E0FB89DBB2184604F0A5F81DE0FB89DBB225
:401B0000184604F0E9F817E0FB89DBB2184604F02DF911E0FB89DBB2184604F071F90BE0FB89DBB2184608F079F805E0FB89DBB2184608F0B9F800BF4BE07B79072B4AD842
:401B400001A252F823F000BF691B0000751B0000811B00008D1B0000991B0000A51B0000B11B0000BD1B0000FB89DBB2184604F089FB29E0FB89DBB2184608F031FE23E0AD
:401B8000FB89DBB2184604F011FC1DE0FB89DBB2184604F031FD17E0FB89DBB2184604F075FD11E0FB89DBB2184604F001FE0BE0FB89DBB2184604F0B7F905E0FB89DBB214
:401BC000184604F0F7F900BF05E000BF09E000BF07E000BF05E000BF03E000BF02E000BF00E000BF7B7B18461037BD4680BD00BF80B584B000AF0B463A600246FA71BB80E1
:401C00000023FB7308F02EFCFB79002B02D0FB79012B0ED108F044FC002008F04DFCBB88184608F061FC03461A463B681A6008F03DFCFB79032B38D801A252F823F000BF0A
:401C4000511C0000571C0000731C0000811C00000123FB7329E03B681B689BB21BB2184608F07AFC03461A463B681A600123FB731BE0BB88184608F055FC08F009FC14E083
:401C8000BB880A2B08D00C2B0AD0082B00D00BE0082008F055FC07E00A2008F051FC03E00C2008F04DFC00BF00BF08F0F1FBFB7B18461037BD4680BD80B584B000AF0B4698
:401CC0003A600246FA71BB800023FB730023BB60FB79032B1AD0032B06DC012B10D0012B11DC002B07D067E0182B28D0FF2B3CD00F2B0ED060E003F017F903F09FFB5BE0EF
:401D000003F022F958E003F0A1FD55E003F0E4FD52E003F05FFC03F0C9F900BF03F0F0F90346002BFAD1BB88DBB2184603F0F8F903461A463B681A600123FB733CE003F03B
:401D400049FC03F0B3F900BF03F0DAF90346002BFAD1BB88DBB2184603F0E8FC03461A463B681A600123FB7326E003F033FC0023BB601CE003F09AF900BF03F0C1F90346C1
:401D8000002BFAD1BB68DBB2184603F0C9F90346BA889A4208D83B681A68BB68012101FA03F31A433B681A60BB680133BB60BB68072BDFD90123FB73FB7B18461037BD461F
:401DC00080BD00BF90B585B000AFF871B9717A713B710023FB600023BB7200237B7208F043FC012008F0CEFC0023FB72FB79002B04D0012B01F0B88101F0BCB90123FB724C
:401E00003B790F2B00F20F8301A252F823F000BF511E000027240000851E0000172000004D2000007D2000000F22000027240000272400002724000027240000272400002B
:401E4000452200002724000027240000D723000097F82030072B00F2D78201A252F823F0811E0000811E0000811E0000811E0000811E0000811E0000811E0000811E000017
:401E800000BFC1E297F82030072B00F2BF8201A252F823F0B51E0000E11E00000D1F0000391F0000651F0000911F0000BD1F0000E91F00000C2004F0C1FA002004F0A2FA83
:401EC000022009F073FE012004F09CFA97F824309BB2184609F06AFE002004F093FA99E00C2004F0AFF8002004F08EF8022009F05DFE012004F088F897F824309BB21846A8
:401F000009F054FE002004F07FF883E00C2004F071F9002004F050F9022009F047FE012004F04AF997F824309BB2184609F03EFE002004F041F96DE00C2004F013FB00201D
:401F400004F0F2FA022009F031FE012004F0ECFA97F824309BB2184609F028FE002004F0E3FA57E00C2004F0B3FA002004F092FA022009F01BFE012004F08CFA97F8243048
:401F80009BB2184609F012FE002004F083FA41E00C2004F0C1F9002004F0A0F9022009F005FE012004F09AF997F824309BB2184609F0FCFD002004F091F92BE00C2004F025
:401FC000CFF8002004F0AEF8022009F0EFFD012004F0A8F897F824309BB2184609F0E6FD002004F09FF815E00C2004F071F8002004F054F8022009F0D9FD012004F04EF865
:4020000097F824309BB2184609F0D0FD002004F045F800BFFAE197F82030072B00F2F88101A252F823F000BF492000004920000049200000492000004920000049200000B0
:40204000492000004920000000BFE1E197F82030062B00F2DF8101A252F823F07920000079200000792000007920000079200000792000007920000000BFCBE197F8203032
:40208000072B00F2C98101A252F823F0AD200000D920000005210000312100005D21000089210000B5210000E12100000C2004F035FB002004F016FB022009F077FD01204F
:4020C00004F010FB97F824309BB2184609F06EFD002004F007FB99E00C2003F0DBFE002003F0BAFE022009F061FD012003F0B4FE97F824309BB2184609F058FD002003F06F
:40210000ABFE83E00C2003F09DFD002003F07CFD022009F04BFD012003F076FD97F824309BB2184609F042FD002003F06DFD6DE00C2003F0D1FD002003F0B0FD022009F00C
:4021400035FD012003F0AAFD97F824309BB2184609F02CFD002003F0A1FD57E00C2003F005FE002003F0E4FD022009F01FFD012003F0DEFD97F824309BB2184609F016FD04
:40218000002003F0D5FD41E00C2003F039FE002003F018FE022009F009FD012003F012FE97F824309BB2184609F000FD002003F009FE2BE00C2007F031FD002007F010FD37
:4021C000022009F0F3FC012007F00AFD97F824309BB2184609F0EAFC002007F001FD15E00C2007F061FD002007F044FD022009F0DDFC012007F03EFD97F824309BB2184691
:4022000009F0D4FC002007F035FD00BF04E197F82030072B00F2028101A252F823F000BF41220000412200004122000041220000412200004122000041220000412200008B
:4022400000BFEBE097F82030072B00F2E98001A252F823F075220000A1220000CD220000F922000025230000512300007D230000A92300000C2004F005F8002003F0E6FFC7
:40228000022009F093FC012003F0E0FF97F824309BB2184609F08AFC002003F0D7FF99E00C2008F09DFA002008F07CFA022009F07DFC012008F076FA97F824309BB218461E
:4022C00009F074FC002008F06DFA83E00C2004F06DF8002004F04CF8022009F067FC012004F046F897F824309BB2184609F05EFC002004F03DF86DE00C2004F07DF90020B8
:4023000004F05CF9022009F051FC012004F056F997F824309BB2184609F048FC002004F04DF957E00C2004F0B1F9002004F090F9022009F03BFC012004F08AF997F82430F8
:402340009BB2184609F032FC002004F081F941E00C2004F02DFA002004F00CFA022009F025FC012004F006FA97F824309BB2184609F01CFC002004F0FDF92BE00C2003F057
:40238000D3FD002003F0B2FD022009F00FFC012003F0ACFD97F824309BB2184609F006FC002003F0A3FD15E00C2003F003FE002003F0E6FD022009F0F9FB012003F0E0FD61
:4023C00097F824309BB2184609F0F0FB002003F0D7FD00BF24E097F82030072B22D801A252F823F00524000005240000052400000524000005240000052400000524000097
:402400000524000000BF0DE000BF0CE000BF0AE000BF08E000BF06E000BF04E000BF02E000BF00E000BFBB790F2B00F2A28601A252F823F07524000073310000AB240000F1
:402440009B280000CF280000FF280000E72C00007331000073310000733100007331000073310000192D00007331000073310000213100007B79072B00F2668601A252F863
:4024800023F000BFA5240000A5240000A5240000A5240000A5240000A5240000A5240000A524000000BF00F04FBE7B79072B00F24D8601A252F823F0D92400004D250000EC
:4024C000C125000035260000A92600001D2700009127000023280000002008F053F9022003F0ACFF07E0B24B1B78DBB203F01003002B00D006E008F0FBF80346DBB25BB2A8
:40250000002BF0DA012008F03DF9012009F04EFB002008F037F911E0A54B1B78DBB203F01003002B0AD108F0EFF803461C4608F019F90346E31A0233FB6006E008F0D8F887
:402540000346DBB25BB2002BE6DAA4E1002008F019F9022003F076FD07E0964B1B78DBB203F01003002B00D006E008F0C1F80346DBB25BB2002BF0DA012008F003F90120C8
:4025800009F014FB002008F0FDF811E0894B1B78DBB203F01003002B0AD108F0B5F803461C4608F0DFF80346E31A0233FB6006E008F09EF80346DBB25BB2002BE6DA6AE193
:4025C000002008F0DFF8022003F014FE07E07A4B1B78DBB203F01003002B00D006E008F087F80346DBB25BB2002BF0DA012008F0C9F8012009F0DAFA002008F0C3F811E037
:402600006D4B1B78DBB203F01003002B0AD108F07BF803461C4608F0A5F80346E31A0233FB6006E008F064F80346DBB25BB2002BE6DA30E1002008F0A5F8022003F092FFC1
:4026400007E05E4B1B78DBB203F01003002B00D006E008F04DF80346DBB25BB2002BF0DA012008F08FF8012009F0A0FA002008F089F811E0514B1B78DBB203F01003002BE3
:402680000AD108F041F803461C4608F06BF80346E31A0233FB6006E008F02AF80346DBB25BB2002BE6DAF6E0002008F06BF8022003F00EFF07E0424B1B78DBB203F0100357
:4026C000002B00D006E008F013F80346DBB25BB2002BF0DA012008F055F8012009F066FA002008F04FF811E0354B1B78DBB203F01003002B0AD108F007F803461C4608F0A8
:4027000031F80346E31A0233FB6006E007F0F0FF0346DBB25BB2002BE6DABCE0002008F031F8022003F0F8FD07E0264B1B78DBB203F01003002B00D006E007F0D9FF0346A2
:40274000DBB25BB2002BF0DA012008F01BF8012009F02CFA002008F015F811E0194B1B78DBB203F01003002B0AD107F0CDFF03461C4607F0F7FF0346E31A0233FB6006E0A1
:4027800007F0B6FF0346DBB25BB2002BE6DA82E0002007F0F7FF022003F0E2FC16E00A4B1B78DBB203F01003002B0FD015E000BF1050004011500040125000401350004088
:4027C00014500040155000401650004007F090FF0346DBB25BB2002BE1DA012007F0D2FF012009F0E3F9002007F0CCFF11E0B64B1B78DBB203F01003002B0AD107F084FF42
:4028000003461C4607F0AEFF0346E31A0233FB6006E007F06DFF0346DBB25BB2002BE6DA39E0002007F0AEFF022003F051FC07E0A64B1B78DBB203F01003002B00D006E03E
:4028400007F056FF0346DBB25BB2002BF0DA012007F098FF012009F0A9F9002007F092FF11E09A4B1B78DBB203F01003002B0AD107F04AFF03461C4607F074FF0346E31A84
:402880000233FB6006E007F033FF0346DBB25BB2002BE6DA00BF00F059BC7B79072B00F2578401A252F823F0C9280000C9280000C9280000C9280000C9280000C92800004E
:4028C000C9280000C928000000BF00F041BC7B79062B00F23F8401A252F823F0F9280000F9280000F9280000F9280000F9280000F9280000F928000000BF00F02BBC7B79FF
:40290000072B00F2298401A252F823F02D290000A1290000152A0000892A0000152B0000892B0000FD2B0000712C0000002007F029FF022003F0F2FE07E0654B1B78DBB200
:4029400003F01003002B00D006E007F0D1FE0346DBB25BB2002BF0DA012007F013FF012009F024F9002007F00DFF11E0584B1B78DBB203F01003002B0AD107F0C5FE03468B
:402980001C4607F0EFFE0346E31A0233FB6006E007F0AEFE0346DBB25BB2002BE6DAA1E1002007F0EFFE022003F074FA07E0494B1B78DBB203F01003002B00D006E007F022
:4029C00097FE0346DBB25BB2002BF0DA012007F0D9FE012009F0EAF8002007F0D3FE11E03C4B1B78DBB203F01003002B0AD107F08BFE03461C4607F0B5FE0346E31A0233A3
:402A0000FB6006E007F074FE0346DBB25BB2002BE6DA67E1002007F0B5FE022003F012F907E02D4B1B78DBB203F01003002B00D006E007F05DFE0346DBB25BB2002BF0DA5C
:402A4000012007F09FFE012009F0B0F8002007F099FE11E0204B1B78DBB203F01003002B0AD107F051FE03461C4607F07BFE0346E31A0233FB6006E007F03AFE0346DBB287
:402A80005BB2002BE6DA2DE1002007F07BFE022003F022F907E0114B1B78DBB203F01003002B00D006E007F023FE0346DBB25BB2002BF0DA012007F065FE012009F076F813
:402AC000002007F05FFE1DE0165000401750004028500040295000402A5000402B500040B64B1B78DBB203F01003002B0AD107F00BFE03461C4607F035FE0346E31A0233B5
:402B0000FB6006E007F0F4FD0346DBB25BB2002BE6DAE7E0002007F035FE022003F026F907E0A74B1B78DBB203F01003002B00D006E007F0DDFD0346DBB25BB2002BF0DAD0
:402B4000012007F01FFE012009F030F8002007F019FE11E09A4B1B78DBB203F01003002B0AD107F0D1FD03461C4607F0FBFD0346E31A0233FB6006E007F0BAFD0346DBB20F
:402B80005BB2002BE6DAADE0002007F0FBFD022003F036F907E08B4B1B78DBB203F01003002B00D006E007F0A3FD0346DBB25BB2002BF0DA012007F0E5FD012008F0F6FF02
:402BC000002007F0DFFD11E07E4B1B78DBB203F01003002B0AD107F097FD03461C4607F0C1FD0346E31A0233FB6006E007F080FD0346DBB25BB2002BE6DA73E0002007F0A9
:402C0000C1FD022007F00AF807E06F4B1B78DBB203F01003002B00D006E007F069FD0346DBB25BB2002BF0DA012007F0ABFD012008F0BCFF002007F0A5FD11E0624B1B7860
:402C4000DBB203F01003002B0AD107F05DFD03461C4607F087FD0346E31A0233FB6006E007F046FD0346DBB25BB2002BE6DA39E0002007F087FD022007F016F807E0534B20
:402C80001B78DBB203F01003002B00D006E007F02FFD0346DBB25BB2002BF0DA012007F071FD012008F082FF002007F06BFD11E0464B1B78DBB203F01003002B0AD107F0CE
:402CC00023FD03461C4607F04DFD0346E31A0233FB6006E007F00CFD0346DBB25BB2002BE6DA00BF38E27B79072B00F2378201A252F823F0152D0000152D0000152D0000CE
:402D0000152D0000152D0000152D0000152D0000152D000000BF21E27B79072B00F2208201A252F823F000BF492D0000D52D0000492E0000BD2E0000312F0000A52F000000
:402D4000193000008D300000002007F01BFD022003F098FA07E01E4B1B78DBB203F01003002B00D006E007F0C3FC0346DBB25BB2002BF0DA012007F005FD012008F016FF4A
:402D8000002007F0FFFC11E0114B1B78DBB203F01003002B0AD107F0B7FC03461C4607F0E1FC0346E31A0233FB6006E007F0A0FC0346DBB25BB2002BE6DAB0E12B500040F6
:402DC0002C5000402D5000402E5000402F50004060500040002007F0D5FC022007F000FD07E0B24B1B78DBB203F01003002B00D006E007F07DFC0346DBB25BB2002BF0DABC
:402E0000012007F0BFFC012008F0D0FE002007F0B9FC11E0A54B1B78DBB203F01003002B0AD107F071FC03461C4607F09BFC0346E31A0233FB6006E007F05AFC0346DBB283
:402E40005BB2002BE6DA6AE1002007F09BFC022003F0ACFA07E0964B1B78DBB203F01003002B00D006E007F043FC0346DBB25BB2002BF0DA012007F085FC012008F096FE83
:402E8000002007F07FFC11E0894B1B78DBB203F01003002B0AD107F037FC03461C4607F061FC0346E31A0233FB6006E007F020FC0346DBB25BB2002BE6DA30E1002007F0A1
:402EC00061FC022003F098FB07E07A4B1B78DBB203F01003002B00D006E007F009FC0346DBB25BB2002BF0DA012007F04BFC012008F05CFE002007F045FC11E06D4B1B78E0
:402F0000DBB203F01003002B0AD107F0FDFB03461C4607F027FC0346E31A0233FB6006E007F0E6FB0346DBB25BB2002BE6DAF6E0002007F027FC022003F0A8FB07E05E4B8A
:402F40001B78DBB203F01003002B00D006E007F0CFFB0346DBB25BB2002BF0DA012007F011FC012008F022FE002007F00BFC11E0514B1B78DBB203F01003002B0AD107F085
:402F8000C3FB03461C4607F0EDFB0346E31A0233FB6006E007F0ACFB0346DBB25BB2002BE6DABCE0002007F0EDFB022003F000FC07E0424B1B78DBB203F01003002B00D060
:402FC00006E007F095FB0346DBB25BB2002BF0DA012007F0D7FB012008F0E8FD002007F0D1FB11E0354B1B78DBB203F01003002B0AD107F089FB03461C4607F0B3FB034610
:40300000E31A0233FB6006E007F072FB0346DBB25BB2002BE6DA82E0002007F0B3FB022002F082FF07E0264B1B78DBB203F01003002B00D006E007F05BFB0346DBB25BB2A0
:40304000002BF0DA012007F09DFB012008F0AEFD002007F097FB11E0194B1B78DBB203F01003002B0AD107F04FFB03461C4607F079FB0346E31A0233FB6006E007F038FB80
:403080000346DBB25BB2002BE6DA48E0002007F079FB022002F08EFF16E00A4B1B78DBB203F01003002B0FD015E000BF615000406250004063500040645000406550004000
:4030C000665000406750004007F012FB0346DBB25BB2002BE1DA012007F054FB012008F065FD002007F04EFB11E0294B1B78DBB203F01003002B0AD107F006FB03461C46A0
:4031000007F030FB0346E31A0233FB6006E007F0EFFA0346DBB25BB2002BE6DA00BF1FE07B79052B1ED801A252F823F04531000045310000453100004531000045310000DD
:403140004531000000BF0DE000BF12E000BF10E000BF0EE000BF0CE000BF0AE000BF08E000BF06E000BF04E03B8D184607F0D8FA00E000BF012007F005FB07F085FAFB6A5C
:40318000FA681A60FB7A18461437BD4690BD00BF6750004080B483B000AF03463960FB80FA883B681A60012318460C37BD465DF8047B704780B582B000AFF871B980BA71C7
:4031C000FB70FB79092B63D801A252F823F000BFF9310000173200001D3200002D3200003932000055320000613200006D3200007532000089320000002006F0FBFE0120EB
:4032000008F0B2FC06F07AFD012008F0ADFC002006F0E2FE3CE006F01BFE39E0BA79FB78104619463A6900F0ABF831E0BB881846396900F037F82BE0BB88184606F032FFA8
:4032400000BF06F0EFFD0346002BFAD0012006F097FD1DE0BB791846396900F045F817E0FB781846396900F065F811E0386906F0B3FE0DE000BF06F0D5FD0346002BFAD0C4
:40328000012006F07DFD03E0002006F0B3FE00BF7B694FF0BB321A60012318460837BD4680BD00BF80B584B000AF03463960FB800023FB6011E0FB68184600213A6806F06C
:4032C000CDFE00BF06F0AEFD0346002BFAD0012006F056FDFB680133FB60FA88FB689A42E9D21037BD4680BD80B584B000AF03463960FB710023FB600023FB6014E0FB793C
:40330000DA00FB681344184600213A6806F0A6FE00BF06F087FD0346002BFAD0012006F02FFDFB680133FB60FB68072BE7DD1037BD4680BD80B584B000AF03463960FB714C
:403340000023FB600023FB6014E0FA79FB68DB001344184600213A6806F080FE00BF06F061FD0346002BFAD0012006F009FDFB680133FB60FB68042BE7DD1037BD4680BD83
:4033800080B582B000AF0B463A600246FA71BB71FB79DA00BB791344184600213A6806F05DFE00BF06F03EFD0346002BFAD0012006F0E6FC0837BD4680BD00BF80B584B014
:4033C00000AF78607B685B78FB737B681B78BB737B685B88BB81BB7B0F2B00F0CD810F2B1ADC0A2B00F0CA810A2B0ADC062B00F0C781062B01DC042BD1E1082B26D0092B5E
:40340000CDE10C2B00F0BE810C2BC0F2BD810D2B00F0BC810E2BC2E1FB2B00F0BD80FB2B0ADC162B45D0162B01DC102BB7E1172B00F0AE81182BB2E1FD2B00F0AB81FD2BC7
:4034400066DBFE2B00F0A881FF2BA8E1FB7B042B00D0A4E1786800F0B5F97B681B78FB727B685B78BB727B685B887B727A685378F97B61F3070353707A681378B97B61F3EE
:4034800007031370FB7A03F00703D9B27A68937961F3020393717A68D379B97A61F30703D3717A68137A797A61F30703137200BF75E1BB895B089BB2DBB203F00703D9B2D1
:4034C0007A68137961F306131371BB891B099BB2DBB203F00F03D9B27A68137961F303031371FB7B012B02D0032B07D057E1BB8903F001039AB27B685A8008E0BB891B0A09
:403500009BB203F00F039AB27B685A8000BF46E1FB7B012B3ED0022B31D0002B00D03EE1BB89DBB203F00703D9B27A68137961F306131371BB89DB089BB2DBB203F00F0394
:40354000D9B27A68137961F303031371BB89DB099BB2DBB203F00703D9B27A68537961F306135371BB899B0A9BB2DBB203F00F03D9B27A68537961F3030353710BE0BB89BD
:40358000DBB203F03F03D9B27A68937A61F30503937200E000BF02E1FB7B023B052B00F2FD8001A252F823F0C13500002D3600009D3700007B360000D33600002B37000051
:4035C000786800F0FFF87B685B881A46BB891B04134323F07F427B6891B2002001439981120CD2B200210A439A737B681B7803F00703D9B27A68537A61F3C50353727B681F
:403600005B7803F00703D9B27A68537A61F3020353727A681378B97B61F3070313707A685378F97B61F307035370A4E0786800F0C9F87B685B881A46BB891B04134323F097
:403640007F427B6891B2002001439981120CD2B200210A439A737B681B781A467B685A807A681378B97B61F3070313707A685378F97B61F3070353707DE0786800F0A2F8AA
:403680007B685B881A46BB891B04134323F07F427B6891B2002001439981120CD2B200210A439A737B681B7803F00703D9B27A68537A61F3C50353727A681378B97B61F313
:4036C000070313707A685378F97B61F30703537051E0786800F076F87B685B881A46BB891B04134323F07F427B6891B2002001439981120CD2B200210A439A737B681B78A2
:4037000003F00703D9B27A68537A61F3020353727A681378B97B61F3070313707A685378F97B61F30703537025E0786800F04AF87B681B781A047B685B781B021A437B68B2
:403740005B88134323F07F427B6891B2002001439981120CD2B200210A439A737A681378B97B61F3070313707A685378F97B61F30703537000BF11E000BF10E000BF0EE0AB
:4037800000BF0CE000BF0AE000BF08E000BF06E000BF04E000BF02E000BF00E000BF1037BD4680BD80B500AF0020012103F02CF800BF03F0ABF90346002BFAD003F046FB3B
:4037C00080BD00BF80B584B000AF78600023FB730023BB7300237B7300233B7300BF03F07BFB0346002BFAD0144803F0A5FB0346FB72124B1B78FB73104B5B78BB730F4BFA
:403800009B787B730D4BDB783B737A681378F97B61F3070313707A685378B97B61F3070353703B7B1B029AB27B7B9BB213439BB29AB27B685A801037BD4680BD3C82FF1FF9
:4038400080B584B000AF78607B681B0EFB737B6803F47F031B0CBB737B6803F47F431B0A7B737B683B7300BF03F04EFB0346002BFAD03B7B3B727B7B7B72BB7BBB72FB7B95
:40388000FB7207F108031846042103F0EFFA1037BD4680BD80B400AFFEE700BF80B586B000AF224B7B61224B3B61204B7B6135E03B691B68FB603B695B68BB603B699B68B8
:4038C0003B6000237B600CE0FB681A68BB681A60BB680433BB60FB680433FB607B6804337B607A683B689A42EED13B69DB683B6000237B6008E0BB6800221A60BB680433C1
:40390000BB607B6804337B607A683B689A42F2D13B6910333B617B69013B7B617B69002BC6D109F0D9F9FCF7A9FBFEE701000000C8D6000080B582B000AF184B184A1A60F3
:40394000184B184A126842F400721A6000237B600FE07B68032B04D8134B7A6853F8223000E0124B124A796842F821307B6801337B607B682F2BECD90E4B1B78DAB20E4B65
:403980001A700E4B0A4A1A6000F034FA07F070FE0B4B00221A600837BD4680BD0CED00E00004FA0514ED00E000000000953800000080FF1FBC7600400481FF1F08ED00E050
:4039C0000081FF1F80B582B000AF78603960786800213A6809F0AFF90837BD4680BD00BF80B584B000AFF860B9607A60F868B9687A6809F097F91037BD4680BD80B483B0E2
:403A000000AF0346FB71FEE780B487B000AF7860396000233B6100237B6126E07B699B007A6813441B68BB60BB68FB73BB6823F0FF03BB6013E03B695B003A6813441B7836
:403A40001A46BB6813443A69520039680A4452781A703B6901333B61FB7B013BFB73FB7B002BE8D17B6901337B617B692C2BD5D91C37BD465DF8047B704700BF80B582B062
:403A800000AF4F4B07221A804E4B18221A704E4B07221A804D4B18221A704D4B07221A804C4B18221A704C4B07221A804B4B18221A704B4B00221A804A4B58221A704A4BFB
:403AC0000B221A80494B19221A70494B0C221A80484B19221A70484B17221A80474B19221A70474847490422FFF77AFF464B06221A70464B52221A70454B464A1278D2B281
:403B00001A70454B4FF4E1621A80444B41F251221A800023FB7019237B6014E0FB785B00DAB23F4B1B78DBB203F00103DBB21343DBB203F00303FB704FF4F07007F084FDF9
:403B40007B68013B7B607B68002B02D0FB78032BE4D17B68002B02D10320FFF74FFF314B4FF480721A802F4B07221A702E4B00221A702E4B48221A702A4B00221A702C4B2B
:403B800000221A702B4B02221A702B4B04221A702A4B1B78294BFF221A70294B284A1278D2B242F00102D2B21A70264B254A1278D2B262F07F02D2B21A700837BD4680BD63
:403BC00080400040824000408440004086400040884000408A4000408C4000408E40004090400040924000409440004096400040984000409A4000409C4000409E400040D5
:403C0000004100404C1200480043004000420040A14600400F01004922420040204200402542004004400040064000400840004009400040014000400B400040A24300409F
:403C4000A1430040A043004080B483B000AF314B1B78FB71304B1B78BB71304B1B787B712F4BFA7902F00702D2B21A702D4BFA791209D2B21A70284BBA7942F00302D2B2CD
:403C80001A70264B7A7942F00302D2B21A70264B02221A70254BFF221A70254B40221A70244B00221A70244B40221A70234B40221A70234B02221A70224B02221A70224BC7
:403CC00080221A70214B20221A70214B41221A70204B22221A70204BF0221A701F4B20221A701F4B4FF483721A801E4B02221A701D4B01221A70094B7A791A70064BBA79D4
:403D00001A701A4B44221A700C37BD465DF8047B704700BFCF010049F8460040F94600406E5800406F5800400D5100403D5100404D51004070580040095900400B59004059
:403D4000825A0040885A0040935A0040C35A0040005B0040045B0040285B00402B5B0040445B0040585B00405B5B00407658004080B483B000AF0346FB71FB790A2B0ED888
:403D8000FA79094B53F82230F979074A52F821201178FA790548825C0A43D2B21A700C37BD465DF8047B704754D1000080D1000080B483B000AF0346FB71FB790A2B10D82C
:403DC000FA790A4B53F82230F979084A52F821201178FA790648825CD243D2B20A40D2B21A700C37BD465DF8047B704754D1000080D1000080B586B000AF72B60023FB75DA
:403E000013E0FA7D13465B0013445B005D4A13443B613B691A683B699B889BB210461946FFF7D0FDFB7D0133FB75FB7D052BE8D90023FB751CE0FA7D13469B0013445B0035
:403E4000514A1344FB60FB681B68BB60FB685B687B60FB681A7A5B7A1B0213437B807B88B86879681A46FFF7BBFDFB7D0133FB75FB7D002BDFD04FF090404449FFF7C4FDE6
:403E8000434B4FF440721A80424B03221A8042480421FFF797FD414841490422FFF7A0FD40480421FFF78EFD3F480421FFF78AFD3E4B3E4A1278D2B242F00202D2B21A70DA
:403EC0003B4B3B4A1278D2B242F00202D2B21A70384B384A1278D2B242F04002D2B21A70354B354A1278D2B242F01002D2B21A70324833490822FFF773FD324832490822CC
:403F0000FFF76EFD314832490A22FFF769FD314831490822FFF764FD304831490822FFF75FFD304830490822FFF75AFD2F4830490822FFF755FD2F482F490822FFF750FD9C
:403F40002E482F490822FFF74BFD2E4B84221A702D4B2D4A1278D2B242F00802D2B21A702A4B01221A70FFF789FD284B81221A70FFF76AFE26480F490E22FFF731FD1837F6
:403F8000BD4680BD8CD10000B0D10000B4000048705800404858004000760040087600405012004810760040187600400350014013500140A0430040C2430040025100401A
:403FC00000120048C251004008120048F051004010120048125100401C1200482251004024120048325100402C1200484251004034120048525100403C1200486251004067
:4040000044120048DB0001402243004000480040B043004080B584B000AF02460B46FA807B7100F0B1F80346FB7300F0A1F80346BB81FA88BB899A4200F08780444B1B7836
:40404000DBB203F00103FB72FB7B002B20D1BB89002B02D0FB88002B1AD1BB89002B0BD13C4BFA881A803C4B3B4A1278D2B222F04002D2B21A7068E0374B374A1278D2B220
:4040800042F04002D2B21A70324BFA881A805CE0FB7A002B33D0314B00221A70304B01221A70304B00221A702F4B2F4A1278D2B202F07F02D2B21A70274B1B78DBB203F088
:4040C0000803002B02D0FB88002B18D1274BBA891A80224B07221A7000BF204B1B78DBB203F00103002BF8D1194B194A1278D2B222F00102D2B21A70184B00221A70144B17
:404100001B78DBB203F00103002B13D0174BFA881A80124A7B79002B01D0032300E00123137000BF0D4B1B78DBB203F00103002BF8D10AE0074BFA881A80054B044A127841
:40414000D1B2FA7A0A43D2B21A701037BD4680BDA24300408040004082400040014000401040004014400040084000400240004080B400AF034B1B889BB21846BD465DF8B9
:40418000047B70478040004080B400AF054B1B78DBB203F00703DBB21846BD465DF8047B704700BF8240004080B500AF054B1B78002B04D100F008F8024B01221A7000F09E
:4041C0004DF880BD5C81FF1F80B582B000AF204B1B78DBB223F03F03FB711D4BFA7942F00902D2B21A701B4B1A4A1278D2B242F00102D2B21A70184B174A1278D2B242F09B
:404200000102D2B21A704EF6602000F047F84EF6602000F071F841F2941000F07DF8002000F08AF807F01AFA0346BB710A4B0A4A1278D2B242F01002D2B21A70BB79184674
:4042400007F010FA00F04AF80837BD4680BD00BF75640040946400409564004080B400AF054B054A1278D2B262F07F02D2B21A70BD465DF8047B70477564004080B400AF48
:40428000054B054A1278D2B202F07F02D2B21A70BD465DF8047B70477564004080B483B000AF0346FB80044BFA881A800C37BD465DF8047B704700BF0868004080B400AFC1
:4042C000044B1B78044B1B889BB21846BD465DF8047B704714640040A868004080B500AF01E000F065F800F037F8034603F01003002BF6D180BD00BF80B483B000AF0346DC
:40430000FB80044BFA881A800C37BD465DF8047B704700BF8868004080B483B000AF0346FB80044BFA881A800C37BD465DF8047B704700BF4868004080B483B000AF0346B3
:40434000FB71044BFA791A700C37BD465DF8047B704700BF8564004080B400AF034B1B78DBB21846BD465DF8047B70476564004080B483B000AF054B1B78FB71FB7918464F
:404380000C37BD465DF8047B704700BF7564004080B483B000AF0346FB71044BFA791A700C37BD465DF8047B704700BF7564004080B400AF034B1B889BB21846BD465DF8BD
:4043C000047B7047A868004080B400AF034B1B889BB21846BD465DF8047B70474868004080B400AF034B1B889BB21846BD465DF8047B70478868004080B500AFFFF7F0FF34
:4044000003461A46094B9A80FFF758FF03461A46064B5A80064B1B78DAB2044B9A71FFF7A7FF03461A46014BDA7180BD6081FF1F8564004080B500AF094B9B881846FFF78A
:404440005BFF074B5B881846FFF728FF054B044A92791A70024BDB791846FFF799FF80BD6081FF1F8564004080B500AF094B1B78DBB2DBB25BB2002B03DA074B01221A7014
:4044800002E0054B00221A70FFF7F8FEFFF7B4FF80BD00BF756400406081FF1F80B500AFFFF7C8FF034B1B78002B01D0FFF7D6FE80BD00BF6081FF1F80B500AF054B1B786B
:4044C000002B04D100F008F8024B01221A7000F04DF880BD6881FF1F80B582B000AF204B1B78DBB223F03F03FB711D4BFA7942F00902D2B21A701B4B1A4A1278D2B242F0C7
:404500000102D2B21A70184B174A1278D2B242F00102D2B21A704EF6602000F047F84EF6602000F071F841F2941000F07DF8002000F08AF807F092F80346BB71094B094ADA
:404540001278D2B242F01002D2B21A70BB79184607F088F800F04AF80837BD4680BD00BF7A6500409A6500409B65004080B400AF054B054A1278D2B262F07F02D2B21A7053
:40458000BD465DF8047B70477A65004080B400AF054B054A1278D2B202F07F02D2B21A70BD465DF8047B70477A65004080B483B000AF0346FB80044BFA881A800C37BD4605
:4045C0005DF8047B704700BF146A004080B400AF044B1B78044B1B889BB21846BD465DF8047B70471A650040B46A004080B500AF01E000F065F800F037F8034603F0100326
:40460000002BF6D180BD00BF80B483B000AF0346FB80044BFA881A800C37BD465DF8047B704700BF946A004080B483B000AF0346FB80044BFA881A800C37BD465DF8047B1A
:40464000704700BF546A004080B483B000AF0346FB71044BFA791A700C37BD465DF8047B704700BF8A65004080B400AF034B1B78DBB21846BD465DF8047B70476A650040A4
:4046800080B483B000AF054B1B78FB71FB7918460C37BD465DF8047B704700BF7A65004080B483B000AF0346FB71044BFA791A700C37BD465DF8047B704700BF7A6500404E
:4046C00080B400AF034B1B889BB21846BD465DF8047B7047B46A004080B400AF034B1B889BB21846BD465DF8047B7047546A004080B400AF034B1B889BB21846BD465DF86D
:40470000047B7047946A004080B500AFFFF7F0FF03461A46094B9A80FFF758FF03461A46064B5A80064B1B78DAB2044B9A71FFF7A7FF03461A46014BDA7180BD6C81FF1F16
:404740008A65004080B500AF094B9B881846FFF75BFF074B5B881846FFF728FF054B044A92791A70024BDB791846FFF799FF80BD6C81FF1F8A65004080B500AF094B1B784F
:40478000DBB2DBB25BB2002B03DA074B01221A7002E0054B00221A70FFF7F8FEFFF7B4FF80BD00BF7A6500406C81FF1F80B500AFFFF7C8FF034B1B78002B01D0FFF7D6FEEA
:4047C00080BD00BF6C81FF1F80B500AF094B18221A70094B00221A70074B074A1278D2B242F00402D2B21A70002000F04FF800F0BDF880BD285800402958004080B400AF22
:40480000094B094A1278D2B242F00402D2B21A70064B064A1278D2B242F00402D2B21A70BD465DF8047B7047A8430040B843004080B500AF074B1B78002B04D1FFF7C4FF12
:40484000044B01221A70FFF7D9FF782000F07EF880BD00BF7481FF1F80B400AF094B094A1278D2B222F00402D2B21A70064B064A1278D2B222F00402D2B21A70BD465DF876
:40488000047B7047A8430040B843004080B483B000AF0346FB710C4B0B4A1278D2B222F00202D2B21A70084B074A1278D1B2FA7902F00202D2B20A43D2B21A700C37BD4674
:4048C0005DF8047B704700BF2858004080B582B000AF0346FB710C4B0B4A1278D2B222F00402D2B21A70084B074A1278D1B2FA7902F00402D2B20A43D2B21A7000F036F8EA
:404900000837BD4680BD00BF2958004080B582B000AF0346FB710C4B0B4A1278D2B222F00C02D2B21A70084B074A1278D1B2FA7902F00C02D2B20A43D2B21A7000F016F8C4
:404940000837BD4680BD00BF2858004080B483B000AF0346FB71044BFA791A700C37BD465DF8047B704700BF825B004080B483B000AF104B1B78DBB203F00C035B08FB7113
:404980000D4B1B78DBB203F00403DBB2002B02D0FB790133FB71094AFB7903F1924303F594731B78DBB213700C37BD465DF8047B704700BF28580040295800400A46004014
:4049C00080B400AF074B1B78DBB203F02003002B04D1054B1B78DAB2044B5A70BD465DF8047B704729580040825B00407881FF1F80B400AF154B1B78DBB203F02003002B9D
:404A00001FD1134B1B78DBB203F00803002B14D00F4B0F4A1278D2B222F00802D2B21A700C4B0D4A52781A70094B094A1278D2B242F00802D2B21A7003E0064B064A5278C1
:404A40001A70BD465DF8047B704700BF29580040975A0040825B00407881FF1F80B500AF094B1B78DBB203F00403002B03D0074B01221A7002E0054B00221A70FFF7ECFE2C
:404A8000FFF79EFF80BD00BFA84300407881FF1F80B500AFFFF7ACFF064B1B78012B07D1FFF7ACFE044B1B78DBB21846FFF74EFF80BD00BF7881FF1F825B004080B500AFF4
:404AC000064B00221A70064B00221A70002000F071F8002000F04EF880BD00BF245800402558004080B400AF094B094A1278D2B242F00202D2B21A70064B064A1278D2B2ED
:404B000042F00202D2B21A70BD465DF8047B7047A8430040B843004080B500AF074B1B78002B04D1FFF7CAFF044B01221A70FFF7D9FF642000F05EF880BD00BF7C81FF1F0A
:404B400080B400AF094B094A1278D2B222F00202D2B21A70064B064A1278D2B222F00202D2B21A70BD465DF8047B7047A8430040B843004080B483B000AF0346FB710C4B90
:404B80000B4A1278D2B222F00202D2B21A70084B074A1278D1B2FA7902F00202D2B20A43D2B21A700C37BD465DF8047B704700BF2458004080B582B000AF0346FB710C4B07
:404BC0000B4A1278D2B222F00C02D2B21A70084B074A1278D1B2FA7902F00C02D2B20A43D2B21A7000F016F80837BD4680BD00BF2458004080B483B000AF0346FB71044B0F
:404C0000FA791A700C37BD465DF8047B704700BF815B004080B483B000AF0B4B1B78DBB203F00C039B08DBB20633FB71074AFB7903F1924303F598731B78DBB213700C37F1
:404C4000BD465DF8047B7047245800400946004080B400AF074B1B78DBB203F02003002B04D1054B1B78DAB2044B5A70BD465DF8047B704725580040815B00408081FF1FE2
:404C800080B400AF154B1B78DBB203F02003002B1FD1134B1B78DBB203F00803002B14D00F4B0F4A1278D2B222F00802D2B21A700C4B0D4A52781A70094B094A1278D2B233
:404CC00042F00802D2B21A7003E0064B064A52781A70BD465DF8047B704700BF255800408F5A0040815B00408081FF1F80B500AF094B1B78DBB203F00203002B03D0074B84
:404D000001221A7002E0054B00221A70FFF718FFFFF79EFF80BD00BFA84300408081FF1F80B500AFFFF7ACFF064B1B78012B07D1FFF7D8FE044B1B78DBB21846FFF75AFFAD
:404D400080BD00BF8081FF1F815B004080B582B000AF00F0F7F9022000F0FEFA06F07EFC0346FB713B4B3B4A1278D2B242F00302D2B21A70384B384A1278D2B242F003022F
:404D8000D2B21A70FB79184606F06CFC334B4FF434421A80324B4FF6FF721A80314B07221A7006F05BFC0346FB712F4B2E4A1278D2B242F00302D2B21A702C4B2B4A12782B
:404DC000D2B242F00302D2B21A70FB79184606F049FC274BFF221A70264BFF221A70264BFF221A70254BFF221A70254BFF221A70244BFF221A70244B02221A60012023499E
:404E000006F0E6FE0120072106F00AFF06F032F80820FEF7ADFF0920FEF7AAFF0A20FEF7A7FF1B4B1A4A1278D2B242F00402D2B21A7005F089FE05F02DFF002005F0A0FF6C
:404E4000042005F0BDFF002005F0DAFF0837BD4680BD00BF90640040916400402064004040640040816400409B640040986400402B6400404B6400400B6400402864004047
:404E8000586400404864004080E100E0B95700007364004080B582B000AF06F0DFFB0346FB711B4B1A4A1278D2B242F02002D2B21A7005F07BFE05F00FFF164B154A127812
:404EC000D2B242F01002D2B21A70134B124A1278D2B242F01002D2B21A70104B0F4A1278D2B242F00102D2B21A70FB79184606F0B9FB0B4B02221A600A4B0A4A1278D2B296
:404F000062F07F02D2B21A700837BD4680BD00BF91640040BB430040AB4300407058004000E100E07364004080B500AF054B1B78002B04D1FFF70AFF024B01221A70FFF71B
:404F4000A9FF80BD8481FF1F80B500AF1C4B1C4A1278D2B222F00202D2B21A70194B02221A6000F0EFF8184B174A1278D2B222F02002D2B21A7005F033FE05F0C7FE134B1B
:404F8000124A1278D2B222F00102D2B21A70104B0F4A1278D2B222F01002D2B21A700D4B0C4A1278D2B222F01002D2B21A70044B034A1278D2B202F07F02D2B21A7080BD1A
:404FC0007364004080E100E09164004070580040AB430040BB43004080B485B000AF0346FB71FB790133FB71FB79082B00D111E0FB79DB08FB73FB7903F00703012202FA11
:4050000003F3BB73FB7B074AD25CBB7B1340DBB2002BE6D0FB7918461437BD465DF8047B704700BF0C81FF1F80B584B000AF0346FB71FB790B4AD35CFB73FB790A4AD35C21
:40504000184605F0DDFE094BFA7B09498A5C1A70FB79084AD35C184600F068F91037BD4680BD00BF1CD200000CD200005B64004014D200001081FF1F80B582B000AF0346CE
:40508000FB71084B00221A70074BFA791A70054B81221A70FB79184600F0D2F80837BD4680BD00BF4182FF1F4082FF1F80B500AF114B00221A70114BFF221A700F4B1B784E
:4050C000DBB21846FFF788FF03461A460B4B1A700A4B1B78DBB2072B0DD8074B1B78DBB243F00103DAB2044B1A70044B1B78DBB2184600F0A5F880BD4182FF1F4082FF1FCD
:4051000080B400AF054B1B78DBB203F00103DBB21846BD465DF8047B704700BF4182FF1F80B483B000AF0346FB71FA79044B33F8123018460C37BD465DF8047B704700BF24
:405140004482FF1F80B582B000AF0023FB7106E0FB79184600F03EF8FB790133FB71FB79072BF5D90837BD4680BD00BF80B584B000AF0346FB71FB79124AD35CFB73FB7954
:40518000114AD35CBB73FA79104B53F8223009221A70FB7B0F2B01D10723FB73FA7B0C4B53F82230F97B0A4A52F821201178BA7B0A43D2B21A70FB791846FEF7D9FD103744
:4051C000BD4680BDDCD10000E4D10000BCD10000ECD1000080B584B000AF0346FB71FB79134AD35CFB73FB79124AD35CBB73FB791846FEF7DDFDFB7B0F2B01D10723FB73A0
:40520000FA7B0D4B53F82230F97B0B4A52F821201178BA7BD243D2B20A40D2B21A70FA79064B53F8223008221A701037BD4680BDDCD10000E4D10000ECD10000BCD10000B9
:4052400080B582B000AF0346FB71FB791846FFF7EBFE0F4B0E4A1278D2B242F00102D2B21A700C4B0B4A1278D2B222F00102D2B21A70FB791846FFF779FF054B044A12786A
:40528000D2B242F00202D2B21A700837BD4680BD736400407058004080B582B000AF0346FB711D4B1C4A1278D2B222F00302D2B21A70FA79194B1B78DBB21B0299B2184BFA
:4052C00023F81210FA79F979154B33F81110154B1B78DBB20B4399B2114B23F81210FA79F9790F4B33F81130DB4399B20C4B23F81210FB791846FFF76DFF002005F080FDC0
:40530000094B094A1278D2B242F00102D2B21A700837BD4680BD00BF73640040186400404482FF1F086400407058004080B483B000AF0346FB71064BFA791A70054BFA79F0
:405340005208D2B21A700C37BD465DF8047B70472A6400403A64004080B483B000AF0346FB71FB79012B08D10A4B0A4A1278D2B222F01002D2B21A7007E0064B054A12780A
:40538000D2B242F01002D2B21A700C37BD465DF8047B70477364004080B485B000AF0346FB71FB79124AD35CFB73FA79F979114B33F81110104B23F81210FB790F4A0021E2
:4053C000D154FB790E4A0021D154FB7BFA7B0D49895C0D4AD154FA79F979064B33F811100A4B23F812101437BD465DF8047B70471CD200004482FF1F7482FF1F5C82FF1F05
:405400005482FF1F3CD200008881FF1F6482FF1F80B582B000AF0346FB71FB791846FFF72BFE00BFFFF76CFE0346002BFAD1FB791846FFF7B1FF0837BD4680BD80B582B0C7
:4054400000AF0023FB7106E0FB791846FFF7E0FFFB790133FB71FB79072BF5D90837BD4680BD00BF80B586B000AF0346FB71FB79504AD35C7B757B7D4F4AD35C3B75FA79BC
:405480004E4B33F812307B82FA794D4B33F812307A8A1046194600F073F903467B82FA79474B798A23F81210FA79464B33F812307A8A9A4209D3FA79424B33F812307A8A33
:4054C000D31AFB8201237B7508E0FA793D4B33F812207B8AD31AFB8200237B757B7D002B18D1FB8A7D2B15D9FB79374AD35C042B08D9FB791846FFF74FFFFB79324A0021EA
:40550000D15439E0FB79304AD25C0132D1B22E4AD15431E03B7D9BB2FA8A9A4205D9FB8A7C2B29D87B7D002B26D1FA79254B33F812301B02FB60FB79244AD35CFA68134392
:40554000FB607B8AFA681344FB60FA791D4B33F81230FA68D31AFB60FA79FB681B0A99B2184B23F81210FB79FA68D1B2174AD154FB79154A0021D1543B7D9BB2FA8A9A4282
:4055800010D97B7D002B0DD0FB8AFF2B04D9FB790F4AFF21D15409E0FB79FA8AD1B20C4AD15403E0FB790A4A0021D1541837BD4680BD00BF1CD200002CD200004482FF1F76
:4055C0006482FF1F7482FF1F8882FF1F5C82FF1F5482FF1F80B582B000AF0023FB7118E0FB79DB08BB71FB7903F00703012202FA03F37B71BB790A4AD25C7B791340DBB25F
:40560000002B03D0FB791846FFF72CFFFB790133FB71FB79072BE3D90837BD4680BD00BF0C81FF1F80B485B000AF0346FB71FB79DB08FB73FB7903F00703012202FA03F302
:40564000BB73FB79324AD35C7B737B7B314AD35C3B737B7B304AD35CFB727B7B2F4AD35CBB727B7B7B72FB7B2D4AD25CBB7B1340DBB2002B18D0FB792A4AD35C1A46397B78
:40568000FB7ACB1A9A4232DAFB7BFA7B2449895CBA7BD243D2B20A40D1B2214AD1547B7A214AB97AD15422E0FB791E4AD35C1A46397BFB7A0B449A4215DD7B7A1A4AD35C4D
:4056C000012B08D8FB7BFA7B1549895CBA7B0A43D1B2134AD1547B7A134AD25C013AD1B2114AD15403E07B7A0F4AB97AD154FB7B0B4AD25CBB7B1340DBB2002B01D0012373
:4057000000E0002318461437BD465DF8047B70471CD2000024D2000034D200003CD200008482FF1F5482FF1F8881FF1F80B584B000AF0346FB71FB790F4AD35CFB73FB794D
:405740000E4AD25CFB7B13447B730023BB73FB7B1846FFF767FF0346002B01D00123BB73FB7B0133FB73FA7B7B7B9A42EFD3BB7B18461037BD4680BD44D200004CD2000060
:4057800080B485B000AF02460B46FA80BB80FA88BB881344FB60BB885B00FA681344FB60FB689B08FB60FB689BB218461437BD465DF8047B704700BF80B500AF1A4B1B7877
:4057C000DBB21846FFF768FD184B1B78DBB2DBB25BB2002B08DA154B1B78DBB223F00103DAB2124B1A701DE00F4B1B78DBB21846FFF7F2FB03461A460B4B1A700A4B1B7806
:40580000DBB2072B06D8084B1B78DBB21846FFF717FD07E0054B1B78DBB223F00103DAB2024B1A7080BD00BF4082FF1F4182FF1F80B500AF034B1B78DAB2034B5A70FFF703
:4058400081FC80BD736400409481FF1F80B500AF094B1B78DBB2DBB25BB2002B05DA074B01221A70FFF770FB02E0044B00221A70FFF7DEFF80BD00BF736400409481FF1FD2
:4058800080B400AF0E4B4FF6FF721A800D4BFF221A700D4BFF221A700C4BFF221A700C4B0C4A52781A700A4B094A1278D2B242F00402D2B21A70BD465DF8047B704700BF0A
:4058C000406400404B6400405864004048640040736400409481FF1F80B500AFFFF7D0FF034B1B78002B01D0FFF7D4FA80BD00BF9481FF1F80B500AF054B1B78002B04D163
:4059000000F008F8024B01221A7000F04FF880BD9881FF1F80B582B000AF204B1B78DBB223F03F03FB711D4BFA7942F00902D2B21A701B4B1A4A1278D2B242F00102D2B2B9
:405940001A70184B174A1278D2B242F00102D2B21A704EF6602000F049F84EF6602000F073F841F2941000F07FF8002000F08CF805F074FE0346BB710B4B0B4A1278D2B20D
:4059800042F01002D2B21A70BB79184605F06AFE00F04CF80837BD4680BD00BF7765004096640040976400409064004080B400AF054B054A1278D2B262F07F02D2B21A70FE
:4059C000BD465DF8047B70477765004080B400AF054B054A1278D2B202F07F02D2B21A70BD465DF8047B70477765004080B483B000AF0346FB80044BFA881A800C37BD46B7
:405A00005DF8047B704700BF0C68004080B400AF044B1B78044B1B889BB21846BD465DF8047B704716640040AC68004080B500AF01E000F065F800F037F8034603F01003EA
:405A4000002BF6D180BD00BF80B483B000AF0346FB80044BFA881A800C37BD465DF8047B704700BF8C68004080B483B000AF0346FB80044BFA881A800C37BD465DF8047BD0
:405A8000704700BF4C68004080B483B000AF0346FB71044BFA791A700C37BD465DF8047B704700BF8064004080B400AF034B1B78DBB21846BD465DF8047B70476064004070
:405AC00080B483B000AF054B1B78FB71FB7918460C37BD465DF8047B704700BF7765004080B483B000AF0346FB71044BFA791A700C37BD465DF8047B704700BF7765004000
:405B000080B400AF034B1B889BB21846BD465DF8047B7047AC68004080B400AF034B1B889BB21846BD465DF8047B70474C68004080B400AF034B1B889BB21846BD465DF82C
:405B4000047B70478C68004080B500AFFFF7F0FF03461A46094B9A80FFF758FF03461A46064B5A80064B1B78DAB2044B9A71FFF7A7FF03461A46014BDA7180BD9C81FF1F9C
:405B80008064004080B500AF094B9B881846FFF75BFF074B5B881846FFF728FF054B044A92791A70024BDB791846FFF799FF80BD9C81FF1F8064004080B500AF094B1B78E1
:405BC000DBB2DBB25BB2002B03DA074B01221A7002E0054B00221A70FFF7F8FEFFF7B4FF80BD00BF776500409C81FF1F80B500AFFFF7C8FF034B1B78002B01D0FFF7D6FE69
:405C000080BD00BF9C81FF1F80B485B000AF0346FB710B4B1B78DBB223F00403FB73084BFA799200D2B202F00402D1B2FA7B0A43D2B21A701437BD465DF8047B704700BFA3
:405C40005051004080B483B000AF0346FB710A4B094A1278D2B2D2B222F00E02D1B2FA7902F00E02D2B20A43D2B2D2B21A700C37BD465DF8047B70472A50004080B400AF53
:405C8000054B1B78DBB203F004039B08DBB21846BD465DF8047B70475151004080B485B000AF0346FB710B4B1B78DBB223F00803FB73084BFA79D200D2B202F00802D1B212
:405CC000FA7B0A43D2B21A701437BD465DF8047B704700BF5051004080B483B000AF0346FB710A4B094A1278D2B2D2B222F00E02D1B2FA7902F00E02D2B20A43D2B2D2B263
:405D00001A700C37BD465DF8047B70472B50004080B400AF054B1B78DBB203F00803DB08DBB21846BD465DF8047B70475151004080B485B000AF0346FB710B4B1B78DBB27B
:405D400023F01003FB73084BFA791201D2B202F01002D1B2FA7B0A43D2B21A701437BD465DF8047B704700BF5051004080B483B000AF0346FB710A4B094A1278D2B2D2B25D
:405D800022F00E02D1B2FA7902F00E02D2B20A43D2B2D2B21A700C37BD465DF8047B70472C50004080B400AF054B1B78DBB203F010031B09DBB21846BD465DF8047B7047E3
:405DC0005151004080B485B000AF0346FB710B4B1B78DBB223F02003FB73084BFA795201D2B202F02002D1B2FA7B0A43D2B21A701437BD465DF8047B704700BF505100405D
:405E000080B483B000AF0346FB710A4B094A1278D2B2D2B222F00E02D1B2FA7902F00E02D2B20A43D2B2D2B21A700C37BD465DF8047B70472D50004080B400AF054B1B788C
:405E4000DBB203F020035B09DBB21846BD465DF8047B70475151004080B485B000AF0346FB710B4B1B78DBB223F00203FB73084BFA795200D2B202F00202D1B2FA7B0A4320
:405E8000D2B21A701437BD465DF8047B704700BF5051004080B483B000AF0346FB710A4B094A1278D2B2D2B222F00E02D1B2FA7902F00E02D2B20A43D2B2D2B21A700C3796
:405EC000BD465DF8047B70472950004080B400AF054B1B78DBB203F002035B08DBB21846BD465DF8047B70475151004080B485B000AF0346FB710B4B1B78DBB223F04003B9
:405F0000FB73084BFA799201D2B202F04002D1B2FA7B0A43D2B21A701437BD465DF8047B704700BFC051004080B483B000AF0346FB710A4B094A1278D2B2D2B222F00E027F
:405F4000D1B2FA7902F00E02D2B20A43D2B2D2B21A700C37BD465DF8047B70476650004080B400AF054B1B78DBB203F040039B09DBB21846BD465DF8047B7047C151004007
:405F800080B485B000AF0346FB71094B1B78DBB203F07F03FB73064BFA79D201D1B2FA7B0A43D2B21A701437BD465DF8047B7047C051004080B483B000AF0346FB710A4B89
:405FC000094A1278D2B2D2B222F00E02D1B2FA7902F00E02D2B20A43D2B2D2B21A700C37BD465DF8047B70476750004080B400AF044B1B78DBB2DB09DBB21846BD465DF8FE
:40600000047B7047C151004080B485B000AF0346FB710B4B1B78DBB223F00203FB73084BFA795200D2B202F00202D1B2FA7B0A43D2B21A701437BD465DF8047B704700BF92
:406040002051004080B483B000AF0346FB710A4B094A1278D2B2D2B222F00E02D1B2FA7902F00E02D2B20A43D2B2D2B21A700C37BD465DF8047B70471150004080B400AF98
:40608000054B1B78DBB203F002035B08DBB21846BD465DF8047B70472151004080B485B000AF0346FB71094B1B78DBB203F07F03FB73064BFA79D201D1B2FA7B0A43D2B266
:4060C0001A701437BD465DF8047B70472051004080B483B000AF0346FB710A4B094A1278D2B2D2B222F00E02D1B2FA7902F00E02D2B20A43D2B2D2B21A700C37BD465DF86F
:40610000047B70471750004080B400AF044B1B78DBB2DB09DBB21846BD465DF8047B70472151004080B485B000AF0346FB710B4B1B78DBB223F04003FB73084BFA799201C1
:40614000D2B202F04002D1B2FA7B0A43D2B21A701437BD465DF8047B704700BF2051004080B483B000AF0346FB710A4B094A1278D2B2D2B222F00E02D1B2FA7902F00E02AC
:40618000D2B20A43D2B2D2B21A700C37BD465DF8047B70471650004080B400AF054B1B78DBB203F040039B09DBB21846BD465DF8047B70472151004080B485B000AF03464C
:4061C000FB710B4B1B78DBB223F00403FB73084BFA799200D2B202F00402D1B2FA7B0A43D2B21A701437BD465DF8047B704700BF2051004080B483B000AF0346FB710A4BA5
:40620000094A1278D2B2D2B222F00E02D1B2FA7902F00E02D2B20A43D2B2D2B21A700C37BD465DF8047B70471250004080B400AF054B1B78DBB203F004039B08DBB21846AE
:40624000BD465DF8047B70472151004080B485B000AF0346FB710A4B1B78DBB223F00103FB73074BFA7902F00102D1B2FA7B0A43D2B21A701437BD465DF8047B704700BF72
:40628000C051004080B483B000AF0346FB710A4B094A1278D2B2D2B222F00E02D1B2FA7902F00E02D2B20A43D2B2D2B21A700C37BD465DF8047B70476050004080B400AF67
:4062C000054B1B78DBB203F00103DBB21846BD465DF8047B704700BFC151004080B485B000AF0346FB710B4B1B78DBB223F02003FB73084BFA795201D2B202F02002D1B292
:40630000FA7B0A43D2B21A701437BD465DF8047B704700BF2051004080B483B000AF0346FB710A4B094A1278D2B2D2B222F00E02D1B2FA7902F00E02D2B20A43D2B2D2B24C
:406340001A700C37BD465DF8047B70471550004080B400AF054B1B78DBB203F020035B09DBB21846BD465DF8047B70472151004080B485B000AF0346FB710B4B1B78DBB2E2
:4063800023F00403FB73084BFA799200D2B202F00402D1B2FA7B0A43D2B21A701437BD465DF8047B704700BFC051004080B483B000AF0346FB710A4B094A1278D2B2D2B240
:4063C00022F00E02D1B2FA7902F00E02D2B20A43D2B2D2B21A700C37BD465DF8047B70476250004080B400AF054B1B78DBB203F004039B08DBB21846BD465DF8047B7047F4
:40640000C151004080B485B000AF0346FB710A4B1B78DBB223F00103FB73074BFA7902F00102D1B2FA7B0A43D2B21A701437BD465DF8047B704700BF2051004080B483B086
:4064400000AF0346FB710A4B094A1278D2B2D2B222F00E02D1B2FA7902F00E02D2B20A43D2B2D2B21A700C37BD465DF8047B70471050004080B400AF054B1B78DBB203F04A
:406480000103DBB21846BD465DF8047B704700BF2151004080B485B000AF0346FB710B4B1B78DBB223F01003FB73084BFA791201D2B202F01002D1B2FA7B0A43D2B21A7063
:4064C0001437BD465DF8047B704700BF2051004080B483B000AF0346FB710A4B094A1278D2B2D2B222F00E02D1B2FA7902F00E02D2B20A43D2B2D2B21A700C37BD465DF836
:40650000047B70471450004080B400AF054B1B78DBB203F010031B09DBB21846BD465DF8047B70472151004080B485B000AF0346FB710B4B1B78DBB223F00803FB73084BB7
:40654000FA79D200D2B202F00802D1B2FA7B0A43D2B21A701437BD465DF8047B704700BF2051004080B483B000AF0346FB710A4B094A1278D2B2D2B222F00E02D1B2FA799D
:4065800002F00E02D2B20A43D2B2D2B21A700C37BD465DF8047B70471350004080B400AF054B1B78DBB203F00803DB08DBB21846BD465DF8047B70472151004080B485B03A
:4065C00000AF0346FB710B4B1B78DBB223F00803FB73084BFA79D200D2B202F00802D1B2FA7B0A43D2B21A701437BD465DF8047B704700BFC051004080B483B000AF034682
:40660000FB710A4B094A1278D2B2D2B222F00E02D1B2FA7902F00E02D2B20A43D2B2D2B21A700C37BD465DF8047B70476350004080B400AF054B1B78DBB203F00803DB083F
:40664000DBB21846BD465DF8047B7047C151004080B485B000AF0346FB710B4B1B78DBB223F01003FB73084BFA791201D2B202F01002D1B2FA7B0A43D2B21A701437BD4676
:406680005DF8047B704700BFC051004080B483B000AF0346FB710A4B094A1278D2B2D2B222F00E02D1B2FA7902F00E02D2B20A43D2B2D2B21A700C37BD465DF8047B7047EC
:4066C0006450004080B400AF054B1B78DBB203F010031B09DBB21846BD465DF8047B7047C151004080B485B000AF0346FB710A4B1B78DBB223F00103FB73074BFA7902F0E0
:406700000102D1B2FA7B0A43D2B21A701437BD465DF8047B704700BF5051004080B483B000AF0346FB710A4B094A1278D2B2D2B222F00E02D1B2FA7902F00E02D2B20A439A
:40674000D2B2D2B21A700C37BD465DF8047B70472850004080B400AF054B1B78DBB203F00103DBB21846BD465DF8047B704700BF5151004080B485B000AF0346FB710B4B77
:406780001B78DBB223F02003FB73084BFA795201D2B202F02002D1B2FA7B0A43D2B21A701437BD465DF8047B704700BFC051004080B483B000AF0346FB710A4B094A12782B
:4067C000D2B2D2B222F00E02D1B2FA7902F00E02D2B20A43D2B2D2B21A700C37BD465DF8047B70476550004080B400AF054B1B78DBB203F020035B09DBB21846BD465DF83E
:40680000047B7047C151004080B582B000AF02460B46FA71BB71094B1B78002B04D100F00FF8064B01221A70FA79BB791046194600F0CCF80837BD4680BD00BFA481FF1F1D
:4068400080B582B000AF04F009FF0346FB714F4B4E4A1278D2B242F00102D2B21A704C4B4B4A1278D2B242F00102D2B21A70494B01221A70484B02221A70484B474A127821
:40688000D2B202F07F02D2B21A70002005F08EF9434B434A1278D2B222F00602D2B21A70404B404A1278D2B222F02002D2B21A703B4B3B4A1278D2B242F00102D2B21A7025
:4068C000012005F073F9282005F070F9364B364A1278D2B202F07F02D2B21A70324B324A1278D2B222F04002D2B21A702C4B2C4A1278D2B242F00202D2B21A70022005F021
:4069000055F9274B264A1278D2B242F00402D2B21A70264B00221A70254B00221A70FB79184604F09FFE1720224905F051F91720072105F075F915201F4905F049F915208B
:40694000072105F06DF918201C4905F041F91820072105F065F90420194905F039F90420072105F05DF90520164905F031F90520072105F055F90620134905F029F90620DF
:40698000072105F04DF90837BD4680BDA5430040B54300409D60004009600040106000409443004012600040F85100408460004085600040B9760000AD7600007D6F000026
:4069C000A9750000FD7500005176000080B582B000AF02460B46FA71BB71254B4FF400021A60234B4FF080721A60214B10221A601F4B20221A601E4B40221A601D4B0022A5
:406A00001A70BB79002B02D0012B04D007E01A4B02221A7007E0184B03221A7003E0164B03221A7000BF154BFA791A70144B00221A70144B00221A70134B00221A70134B1B
:406A400000221A70124B00221A70124B00221A70114B03221A70114B80221A70012004F0F3FD0F4B04221A700837BD4680BD00BF00E100E09E82FF1F096000409982FF1F97
:406A8000B782FF1FAC82FF1FB482FF1FB682FF1FB982FF1F9882FF1F28600040086000401260004080B400AF0F4B00221A700F4B00221A700E4B00221A700E4B00221A70DD
:406AC0000D4B00221A700D4B00221A700C4B00221A700C4B03221A700B4B80221A70BD465DF8047B704700BF9E82FF1FB782FF1FAC82FF1FB482FF1FB682FF1FB982FF1FD2
:406B00009882FF1F286000400860004080B400AF034B1B78DBB21846BD465DF8047B7047B782FF1F80B485B000AF0346FB710023FB81FB79002B1DD0FB79082B1AD8FB7914
:406B4000013BDBB21B017B737A7B0E4B13441B78DBB203F00F03FB81FB891B029AB2797B094B0B441B78DBB213439BB2FB81FB89023BFB81FB8918461437BD465DF8047BF8
:406B8000704700BF0C6000400D60004090B484B000AF396013460246FA71BB80FB79002B69D0FB79082B66D8FB79013BDBB21B017B737A7B324B1344BB60B988FA793148EA
:406BC00013465B0013449B000344DB889BB2C3F5007399420BD9FA792A4913465B0013449B000B44DB889BB2C3F50073BB807A7B254B13441946BB881B0A9BB2D8B2FA7950
:406C0000204C13465B0013449B002344DB78DBB20343DBB20B707A7B1C4B1344BA88D2B21A703B68002B0FD00023FB8108E0FB893A6813441A78BB681A70FB890133FB8186
:406C4000FA89BB889A42F2D3FA790E4913465B0013449B000B4400225A707A7B0C4B13441946FA79074813465B0013449B0003445B79DBB20B701037BD4690BC704700BF69
:406C800088600040BC82FF1F0C6000400D6000400E60004080B586B000AF396013460246FA71BB80FB79002B30D0FB79082B2DD83B68002B2AD0FB79013BDBB21B017B75F3
:406CC0007A7D164B13443B61FB791846FFF72AFF0346FB81BA88FB899A4201D9FB89BB800023FB8209E0FB8A3A6813443A691278D2B21A70FB8A0133FB82FA8ABB889A423D
:406D0000F1D3FB79184600F00BF801E00023BB80BB8818461837BD4680BD00BF8860004080B485B000AF0346FB71FB79002B1ED0FB79082B1BD8FB79013BDBB21B01FB73B9
:406D4000FA790D4913465B0013449B000B4400225A70FA7B094B13441946FA79064813465B0013449B0003445B79DBB20B701437BD465DF8047B7047BC82FF1F0E6000407D
:406D800080B582B000AF0023FB71294B1B78DBB2DBB25BB2002B11DA264B1B78DBB2212B00D00AE0244B07221A80234B234A5A6000F060FA0346FB7100BF34E01C4B1B78C0
:406DC000DBB2DBB25BB2002B2DDB1A4B1B78DBB2202B02D0222B13D025E0174B07221A80154B164A5A60164B1B78DBB243F00103DAB2134B1A7000F0BDFA0346FB7112E049
:406E0000104B1B78DBB21A460F4B1A800C4B1B78DBB243F00203DAB2094B1A7000F04AFB0346FB7100BFFB7918460837BD4680BD0060004001600040A082FF1F1881FF1F38
:406E40009482FF1F026000409282FF1F80B500AF044B00221A70044B1B78DBB21846FFF75FFF80BD9482FF1F9082FF1F80B582B000AF78600B467B80154B1B78DBB21A464F
:406E8000144913465B0013449B000B4408331B889BB27A889A420FD90D4B1B78DBB21A460C4913465B0013449B000B4408331B887B80002004F03CFE054B1B78DAB27B88D4
:406EC000104679681A46FFF761FE0837BD4680BD9182FF1FBC82FF1F80B400AF084B1B78DBB21A46074913465B0013449B000B445B78DBB21846BD465DF8047B704700BF94
:406F00009082FF1FBC82FF1F80B400AF084B1B78DBB21A46074913465B0013449B000B445B78DBB21846BD465DF8047B704700BF9182FF1FBC82FF1F80B582B000AF786044
:406F40000C4B1B78D9B20B4B1B78DBB21A460A4813465B0013449B00034408331B889BB2084679681A46FFF795FE034618460837BD4680BD9082FF1FBC82FF1F80B582B02B
:406F800000AF374B1B78BB71BB7903F01003002B63D00123FB71BB795BB2002B13DABB7903F00F03012B02D00023FB711DE000F061F82C4B1B78DBB2DBB25BB2002B14DA0A
:406FC0000023FB7111E0BB7903F04003002B02D000F094F809E0BB7903F02003002B02D000F0B2F801E00023FB71FB79002B34D01B4B1B78BB71BB795BB2002B2DDB1A4B53
:407000001B78DAB2194B1B78DBB21343BB71184BBA791A70164B1B78DBB2BA799A421CD1104B1B78FB710E4B1B78DBB223F07F03BB71BB79002B0AD1094B0A4A1278D2B20A
:407040001A70074B1B78DBB203F00F03FB71054B1B78DBB2FA799A42E2D10837BD4680BD28600040B582FF1F2A83FF1FB882FF1F2960004080B582B000AF1D4B1B78FB712C
:407080001B4BFA791A701A4B1B78FB71FB795BB2002B03DA174BFA791A7025E0022000F049FA154B1B78DBB203F06003202B08D0402B0BD0002B0ED100F004FB0346FB71DA
:4070C0000CE004F06BFE0346FB7107E001F0DEFA0346FB7102E00023FB7100BFFB79002B02D1044B03221A700837BD4680BD00BF28600040B582FF1F0060004080B500AFAE
:40710000104B1B78DBB2062B19D801A252F823F03F7100003F7100002D7100003F710000337100003F7100003971000000F0FCF806E000F0AFF903E000F0D8F900E000BF61
:4071400080BD00BF9E82FF1F80B500AF124B1B78DBB2062B1DD801A252F823F0937100009371000079710000937100007F710000937100008571000000F0DCF80AE000F0D0
:407180002DF907E0032000F0D5F9044B03221A7000E000BF80BD00BF9E82FF1FB582FF1F80B483B000AF0023FB712B4B1B78DBB21A462A4B1B889BB213449AB2274B1A8006
:4071C00018E0FB7903F1804303F5C043244A52681278D2B21A70224B5B685A1C204B5A60FB790133FB711E4B1B889BB2013B9AB21B4B1A801A4B1B889BB2002B02D0FB792B
:40720000072BDED9144B1B78DBB2082B02D0FB79002B0FD0134B1B78DBB283F07F03DB43DAB2104B1A70104B0F221A700F4B02221A7005E00C4B02221A700C4B02221A7054
