:400000000080002011000000BD000000BD00000080B500AF47F2BC63C4F2000344F2FA62C4F2000212681A6000F016FC00F04AF810B5054C237833B9044810B10448AFF396
:4000400000800121217010BD2881FF1F00000000D047000008B5064B1BB106480649AFF300800648016811B1054A02B1904708BD00000000D04700002C81FF1F0881FF1F69
:400080000000000080B500AF01F004FD0346002B09D044F2FA63C4F200031B78DBB203F0C003402B06D144F2FA63C4F200034FF040021A7000F04EFBFEE700BF80B400AFA2
:4000C000FEE700BF80B586B000AF40F20103C0F200037B6144F63823C0F200033B6140F20103C0F200037B6144F63823C0F200033B613BE03B691B68FB603B695B68BB60C9
:400100003B699B683B604FF000037B600FE0FB681A68BB681A60BB6803F10403BB60FB6803F10403FB607B6803F104037B607A683B689A42EBD13B69DB683B604FF0000363
:400140007B600BE0BB684FF000021A60BB6803F10403BB607B6803F104037B607A683B689A42EFD13B6903F110033B617B69002B0CBF00230123DBB27A6902F1FF327A61F1
:40018000002BB7D104F0E8FAFFF77CFFFEE700BF80B582B000AF4EF60C53CEF200034FF48062C0F2FA521A604EF61453CEF200034EF61452CEF20002126842F400721A6012
:4001C0004FF000037B6019E07B68032B07D840F20003C0F200037A6853F8223003E040F2BD03C0F2000348F20002C1F6FF72796842F821307B6803F101037B607B682F2B43
:40020000E2D947F2BC63C4F200031B78DAB248F20413C1F6FF731A704EF60853CEF2000348F20002C1F6FF721A6000F039F948F20013C1F6FF734FF000021A6007F1080735
:40024000BD4680BD80B582B000AF7860396078684FF000013A6804F0AEFA07F10807BD4680BD00BF80B584B000AFF860B9607A60F868B9687A6804F095FA07F11007BD46F8
:4002800080BD00BF80B584B000AFF860B9607A60F868B9687A6804F085FA07F11007BD4680BD00BF80B483B000AF0346FB71FEE780B487B000AF786039604FF000033B61E2
:4002C0004FF000037B612CE07B694FEA83037A68D3181B68BB60BB68FB73BB6823F0FF03BB6017E03B694FEA43033A68D3181B781A46BB68D3183A694FEA420239688A18D7
:4003000052781A703B6903F101033B61FB7B03F1FF33FB73FB7B002BE4D17B6903F101037B617B690F2BCFD907F11C07BD4680BC704700BF80B582B000AF4FF48643C4F2AB
:4003400000034FF006021A704FF48443C4F200034FF052021A7044F2A163C4F2000340F20F12C4F600121278D2B21A7044F22223C4F200034FF4E1621A8044F22023C4F29C
:40038000000341F251221A804FF00003FB704FF019037B6019E0FB784FEA4303DAB244F22523C4F200031B78DBB203F00103DBB21343DBB203F00303FB704FF4F07000F0EB
:4003C0007FFF7B6803F1FF337B607B68002B02D0FB78032BDFD17B68002B03D14FF00300FFF760FF44F20403C4F200034FF480721A8044F20403C4F200034FF007021A7064
:4004000044F20603C4F200034FF000021A7044F20803C4F200034FF048021A7044F20403C4F200034FF000021A7044F20903C4F200034FF000021A7044F20103C4F2000372
:400440004FF002021A7007F10807BD4680BD00BF80B483B000AF40F2CF13C4F600131B78FB7145F66E03C4F20003FA7902F00702D2B21A7045F66F03C4F20003FA794FEAC0
:400480001212D2B21A7045F67603C4F200034FF044021A7007F10C07BD4680BC704700BF80B582B000AF72B64FF00003FB7119E0FA7913464FEA43039B184FEA430344F236
:4004C000D472C0F200029B183B603B681A683B689B889BB210461946FFF7B4FEFB7903F10103FB71FB79062BE2D944F60000C0F2000044F64001C0F20001FFF7D9FE45F2C9
:400500000303C4F2010345F20302C4F201021278D2B242F00202D2B21A7045F21303C4F2010345F21302C4F201021278D2B242F00202D2B21A7044F2A033C4F2000344F25E
:40054000A032C4F200021278D2B242F04002D2B21A7044F2C233C4F2000344F2C232C4F200021278D2B242F01002D2B21A7045F2C010C4F2000044F68801C0F200014FF0C9
:400580000A02FFF77FFE45F2F010C4F2000044F69401C0F200014FF00A02FFF773FE45F24010C4F2000044F6A001C0F200014FF00A02FFF767FE44F22233C4F2000344F2B0
:4005C0002232C4F200021278D2B242F00802D2B21A704FF49043C4F200034FF001021A70FFF7A8FE4FF49043C4F200034FF081021A70FFF72DFF44F2B030C4F2000044F221
:40060000A031C4F200014FF00E02FFF72BFE07F10807BD4680BD00BF80B485B000AF78600B467B804FF6FF73FB817B883B817B88002B04D1FB896FEA0303FB8142E03A8949
:400640007B88D31A7A68D3181B78BB814FF00003FB721DE0FA89BB89534003F00103002B0AD0FB894FEA53039AB248F20843CFF6FF735340FB8103E0FB894FEA5303FB8150
:40068000BB894FEA5303BB81FB7A03F10103FB72FB7A072BDED97B8803F1FF337B807B88002BCCD1FB896FEA0303FB81FB89BB81FB894FEA03239AB2BB894FEA13239BB2B6
:4006C0001343FB81FB89184607F11407BD4680BC704700BF80B485B000AF786039604FF00003FB730AE03B6803F1FF333B607A683B68D3181A78FB7BD318FB733B68002B58
:40070000F1D1FB7B184607F11407BD4680BC704780B485B000AF786039604FF00003FB730EE03B6803F1FF333B607A683B68D31803F1804303F500431A78FB7BD318FB73CC
:400740003B68002BEDD1FB7B184607F11407BD4680BC704780B5CAB000AF00F00DFE0346002B03D04FF0000000F006FF3B46184600F014FE0346002B03D04FF0000000F0E5
:40078000FBFE48F21013C1F6FF731B681B684FF000001946FFF79EFF034687F8273148F20C13C1F6FF731B681B7897F82721D31A87F8273197F82731C3F1000387F82731BB
:4007C00048F20C13C1F6FF731B681B7897F827219A4207D148F21013C1F6FF731B681B68002B03D14FF0000000F0C6FE4FF0000000F05CF8C7F8200144F2FA63C4F20003A9
:400800001B78DBB203F0C003402B03D0D7F82031002B0AD044F2FA63C4F200034FF000021A704FF0000000F0D3F84FF0010000F0CFF800F005F807F59477BD4680BD00BF84
:4008400080B500AF44F2FA63C4F200034FF080021A7000F09DFE80BD80B500AF44F2FA63C4F200031B78DBB203F0C003802B19D144F2FA63C4F200034FF000021A704FF044
:4008800001004FF0000100F027FC0346002B09D04FF001004FF0000100F01EFC0346184600F002F880BD00BF004700BF90B587B000AF0346FB71FB794FF00200194600F096
:4008C0000BFC034603F101034FEA0324FB794FF00300194600F000FC0346E318FB604FF00003FB744FF00003BB74FB794FF00200194600F0F1FB034603F101034FEA0323FE
:400900007B6113E07B691B78FB72FB7A002B05D0FB7AFF2B02D04FF00103FB74BA7CFB7AD318BB747B6903F101037B617A69FB689A42E7D3FB794FF00200194600F0CCFB48
:40094000034603F101034FEA03234FEAD3037B61FA684FF6C073C0F203039A4203D0FB684FEAD30301E04FF40043FB600BE07B6903F190431B78DAB2BB7CD318BB747B698D
:4009800003F101037B617A69FB689A42EFD3BB7CC3F10003BB74FA7913464FEA03639B1A4FEA032303F57F3303F570731B78DBB2BA7C9A4202D1FB7C002B02D14FF006039C
:4009C00001E04FF00003184607F11C07BD4690BD80B5ADF56C7D00AF024607F107031A704FF00003A7F8AA334FF00003A7F8A8334FF00A0387F8A7334FF0000387F8A6330F
:400A00004FF0000387F8A53301F054F862B64FF0000387F8AD3307F107031B78002B03D007F107031B7801E04FF0FF0307F5187107F28E3208464FF4967101F097F8C7F8C8
:400A40009C0307F107031B78002B05D097F8A73303F1FF3387F8A73397F8A733002B03D0D7F89C33002BD6D1D7F89C33002B40F0CA82B7F88E33062B04D907F518731B78A6
:400A8000012B04D04FF0040387F8AD334EE007F51873DB784FEA03239AB207F518739B781343A7F8AA33B7F8AA3303F1050307F51872D35C4FEA03239AB2B7F8AA3303F10A
:400AC000040307F51871CB5C1343A7F89A33B7F8AA3303F10702B7F88E339A4204D94FF0030387F8AD3321E0B7F8AA3303F1060307F51872D35C172B04D04FF0040387F811
:400B0000AD3313E0B7F8AA3303F104039BB207F5187210461946FFF77FFD0346B7F89A239A4203D04FF0080387F8AD334FF00003A7F8AE3397F8AD33002B40F0588207F5F2
:400B400018731B7987F899334FF0040387F8AD3307F518735B78A3F131030A2B00F2358201A252F823F000BF950B0000D70B0000CB0F0000410C0000AB0D0000CB0F00006C
:400B8000BF0D00001B0E0000410C00006D0E0000A90F000097F8A533012B40F01B82B7F8AA33002B40F016824FF00000FFF77EFE0346002B14BF00230123DBB21A4607F5B9
:400BC00018731A714FF00103A7F8AE334FF0000387F8AD33FEE197F8A533012B40F0FC81B7F8AA33012B40F0F78197F89933032B00F2F2814FF00003A7F89633B7F89633EC
:400C0000DAB207F518731A71B7F896334FEA13239BB2DAB207F518735A7107F518734FF0FF029A7107F518734FF00302DA714FF00403A7F8AE334FF0000387F8AD33CBE109
:400C400007F518735B78342B25D197F8A533012B40F0CD81B7F8AA33032B40F0C88197F899333F2B09D997F899335BB2002B04DB4FF01003A7F8A83303E04FF49073A7F8D4
:400C8000A833B7F8A83307F59A7210464FF000011A4603F090FD97F8A533012B40F09E81B7F8AA33022B40F29981B7F8A83307F59A72D118B7F8AA33A3F1030307F5187243
:400CC00002F10702084611461A4603F06BFDB7F8A823B7F8AA33D3189BB2A3F10303A7F8A83397F899333F2B0BD997F899335BB2002B06DB00F01EFC4FF01003A7F8AA3351
:400D000003E04FF49073A7F8AA33B7F8A823B7F8AA339A4240D107F518739B794FEA03239AB207F518735B791343A7F8A83397F899333F2B1BD897F8A633002B17D107F17F
:400D40000C0318464FF000014FF4907203F033FD07F10C034FF003004FF0FF011A464FF4907300F057FB4FF0010387F8A63397F89903B7F8A81307F59A72B7F8AA3300F03A
:400D800049FB0346002B02D04FF00A0301E04FF0000387F8AD3303E04FF0030387F8AD334FF00003A7F8A83318E197F8A533012B40F016814FF00003A7F8A83324E197F8F5
:400DC000A533012B40F00E81B7F8A823B7F8AA33D318B3F5967F1BD84FF0000387F8AD33B7F8A83307F59A72D118B7F8AA3307F5187202F10402084611461A4603F0D2FCA2
:400E0000B7F8A823B7F8AA33D318A7F8A833E9E04FF0030387F8AD33E4E0B7F8AA33002B40F0E28007F5967244F6AC03C0F2000393E8030082E803004FF0010387F8A533A6
:400E40004FF00803A7F8AE33B7F8AE3307F5187202F1040107F59672084611461A4603F0A1FC4FF0000387F8AD33BDE097F8A533012B40F0BB80B7F8AA33032B40F0B680A5
:400E800007F518739B794FEA03239AB207F518735B791343A7F8943397F899333F2B14D997F899335BB2002B0FDBB7F894334FEA0313C7F89033D7F890034FF01001FFF7B7
:400EC00027FC034687F8A43313E097F899334FEA0322B7F89433D3184FEA0323C7F89033D7F890034FF48071FFF7F4FB034687F8A43397F899333F2B27D897F8993303F511
:400F000010334FEA0322B7F89433D3184FEA4313C7F890334FF00003A7F8A23311E0B7F8A223D7F89033D3181B78DAB297F8A433D31887F8A433B7F8A23303F10103A7F825
:400F4000A233B7F8A2331F2BE9D997F89933032B19D1B7F89433FF2B15D14FF6D073C0F203031B78DBB297F8A423D31A87F8A4334FF6D173C0F203031B78DBB297F8A42363
:400F8000D31A87F8A43397F8A433C3F10003DAB207F518731A714FF0000387F8AD334FF00103A7F8AE3321E04FF00000FFF77EFC0346002B06D144F2FA63C4F200034FF049
:400FC00080021A7000F0E4FA11E04FF0050387F8AD330CE000BF0AE000BF08E000BF06E000BF04E000BF02E000BF00E000BF97F8AD1307F51872B7F8AE33084611461A4693
:4010000000F012F800E000BF07F107031B78002B3FF4FDAC97F8A533012B3FF4F8AC07F56C77BD4680BD00BF80B584B000AF396013460246FA71BB803B684FF001021A70CC
:401040003B6803F10103FA791A703B6803F10203BA88D2B21A703B6803F10303BA884FEA122292B2D2B21A70BB8803F104039BB238681946FFF7D0FA0346FB81BB8803F108
:4010800004033A68D318FA89D2B21A70BB8803F105033A68D318FA894FEA122292B2D2B21A70BB8803F106033A68D3184FF017021A70BB8803F107039AB207F10403386822
:4010C00011461A464FF0960300F00EFD0346184607F11007BD4680BD80B586B000AF02460B46FA71BB714FF00203FB74FB7903F1FF33062B74D801A252F823F053110000F8
:40110000731100008D11000039110000AD110000C711000019110000BA7913464FEA03639B1A4FEA032303F57F3303F576737B614FF00403FB745BE0BA7913464FEA0363C2
:401140009B1A4FEA032303F57F3303F2D2337B614EE0BA7913464FEA03639B1A4FEA032303F57F3303F2C1337B614FF00403FB743EE0BA7913464FEA03639B1A4FEA0323ED
:4011800003F57F3303F2C5337B6131E0BA7913464FEA03639B1A4FEA032303F57F3303F2C9337B614FF00403FB7421E0BA7913464FEA03639B1A4FEA032303F57F3303F261
:4011C000D6337B6114E0BA7913464FEA03639B1A4FEA032303F57F3303F575737B6107E04FF0000000F0C8F94FF000037B6100BFFB7C022B0ED17B6903F101031B78DBB23E
:40120000FB607B691B78DBB24FEA0323FA681343FB6021E07B6903F103031B78DBB2FB607B6903F102031B78DBB24FEA0323FA681343FB607B6903F101031B78DBB24FEADF
:401240000343FA681343FB607B691B78DBB24FEA0363FA681343FB60FB79022B04D0032B0FD0012B0DD021E0FB689BB24FEA03239AB2FB684FEA13239BB213439BB2FB605B
:4012800015E0FB684FEA1362FB6803F47F034FEA13231A43FB6803F47F434FEA03231A43FB684FEA03631343FB6000E000BFFB68184607F11807BD4680BD00BF000000007F
:4012C0000230800800F0058000BF013800467FF4FCAF7047EFF3108072B6704780F31088704700BFAFF3008080B582B000AF00F0F1F94FF0FF337B6000F054FB0346002BC9
:4013000031D14FF0010000F007FB0346072B27D148F25810C1F6FF704FF0020100F006FA0346022B12D14FF000037B6003E04FF0010000F065F944F22273C4F200031B780E
:40134000DBB203F00203002BF1D009E044F22273C4F200031B78DBB203F00203002BD7D000F064FB02E04FF004037B607B68184607F10807BD4680BD80B582B000AFFFF7BF
:40138000B3FF78607B68002B02D1FFF7ADFF78607B68184607F10807BD4680BD80B584B000AF78604FF00003FB6000F093F97B68002B0DD148F24413C1F6FF731A6848F255
:4013C0004413C1F6FF731A604FF00103FB601AE000F0E8FA0346002B0DD048F24413C1F6FF731A6848F24413C1F6FF731A604FF00403FB6007E048F24413C1F6FF737A68A4
:401400001A6000F013FBFB68184607F11007BD4680BD00BF80B586B000AFBA600246FA730A46BA81FB8000F0BDFA0346002B78D1FA7BFB881046B9681A4600F0A9F97861D8
:401440007B69072B6AD103E04FF0010000F0D8F844F22273C4F200031B78DBB203F00203002BF1D044F22273C4F200031B78DBB203F00203002B0ED044F22273C4F2000387
:401480001B78DBB24FEA9303DBB2002B03D14FF000037B6102E04FF0FF337B617B69002B3CD148F25813C1F6FF731A7848F25813C1F6FF735B78F87BB98900F0C7F9786109
:4014C0007B69072B2AD103E04FF0010000F098F844F22273C4F200031B78DBB203F00203002BF1D044F22273C4F200031B78DBB203F00203002B0ED044F22273C4F2000387
:401500001B78DBB24FEA9303DBB2002B03D14FF000037B6102E04FF0FF337B6100F086FA02E04FF004037B617B69184607F11807BD4680BD80B400AF44F2AC33C4F2000325
:4015400044F2AC32C4F200021278D2B242F01002D2B21A7044F2BC33C4F2000344F2BC32C4F200021278D2B242F01002D2B21A70BD4680BC704700BF80B483B000AF034611
:40158000FB7101BE07F10C07BD4680BC704700BF80B400AF44F2F663C4F2000344F2F662C4F200021278D2B242F00102D2B21A70BD4680BC704700BF80B582B000AF7860DB
:4015C0000BE048F22013C1F6FF731B681846FFF777FE7B68A3F500437B607B68B3F5004FEFD848F21813C1F6FF731B687A6802FB03F31846FFF764FE07F10807BD4680BD01
:4016000080B582B000AF0346FB80FA8848F21C13C1F6FF731B7803FB02F31846FFF750FE07F10807BD4680BD80B584B000AF03463960FB714EF60853CEF200031B68FB60A7
:40164000FB791F2B03D94FF00000FFF795FFFB7903F01F0303F110034FEA8303FA68D3181B68BB60FB7903F01F0303F110034FEA8303FA68D3183A681A60BB68184607F19C
:401680001007BD4680BD00BF80B582B000AF02460B46FA71BB71BB79072B03D94FF00000FFF76AFFFB791F2B03D94FF00000FFF763FFFB7903F01F0303F1604303F56443FE
:4016C000BA794FEA4212D2B21A7007F10807BD4680BD00BF80B582B000AFFFF7FBFD0346FB7144F2A033C4F2000344F2A032C4F200021278D2B242F00802D2B21A7044F24D
:40170000B033C4F2000344F2B032C4F200021278D2B242F00802D2B21A70FB791846FFF7DDFD07F10807BD4680BD00BF80B584B000AF78600B46FB704FF00003FB731DE0E4
:401740004FF00100FFF75CFF00E000BF44F22273C4F200031B78DBB203F00103002BEFD0FB7B7A68D21844F22073C4F200031B78DBB21370FB7B03F10103FB73FA7BFB7889
:401780009A42E2D3FB7B184607F11007BD4680BD80B485B000AF396013460246FA71BB804FF00703FB6044F22273C4F200031B78DBB203F00203002B3ED044F22073C4F285
:4017C00000034FF0B6021A7044F22073C4F200034FF0D5021A7044F22073C4F200034FF002021A7044F22273C4F200031B78DBB203F00203002B1BD144F22073C4F20003BF
:40180000FA791A704FF000037B810CE044F22073C4F200037A8939688A1812781A707B8903F101037B817A89BB889A42EED306E04FF00903FB6002E04FF00403FB60FB6858
:40184000184607F11407BD4680BC704780B485B000AFF871B980BA71FB704FF00703FB6044F22273C4F200031B78DBB203F00203002B46D044F22073C4F200034FF0B602B7
:401880001A7044F22073C4F200034FF0D8021A7044F22073C4F200034FF005021A7044F22273C4F200031B78DBB203F00203002B23D144F22073C4F20003FA791A7044F2B7
:4018C0002073C4F20003BA884FEA122292B2D2B21A7044F22073C4F20003BA88D2B21A7044F22073C4F20003BA791A7044F22073C4F20003FA781A7006E04FF00903FB6080
:4019000002E04FF00403FB60FB68184607F11407BD4680BC704700BF80B485B000AF0346FB714FF00703FB6044F22273C4F200031B78DBB203F00203002B29D044F22073A1
:40194000C4F200034FF0B6021A7044F22073C4F200034FF0E1021A7044F22073C4F200034FF00E021A7044F22273C4F200031B78DBB203F00203002B06D144F22073C4F287
:401980000003FA791A7006E04FF00903FB6002E04FF00403FB60FB68184607F11407BD4680BC704780B582B000AF4FF004037B60FFF790FC0346FB7048F24813C1F6FF7323
:4019C0001B78002B28D148F24813C1F6FF734FF001021A704FF000037B604FF00403C4F208031B6803F00103002B15D04FF00403C4F208034FF00402C4F20802126822F060
:401A000001021A6000BF00BF00BF48F24C13C1F6FF734FF001021A60FB781846FFF75EFC7B68184607F10807BD4680BD80B582B000AFFFF74FFC0346FB7148F24813C1F66D
:401A4000FF734FF000021A7048F24C13C1F6FF731B68012B15D14FF00403C4F208034FF00402C4F20802126842F001021A6000BF00BF00BF48F24C13C1F6FF734FF000025D
:401A80001A60FB791846FFF729FC07F10807BD4680BD00BF80B400AF45F24113C4F200031B78DBB24FEAD313DBB21846BD4680BC704700BF80B500AF62B64FF000004FF039
:401AC000020100F0DFF848F25013C1F6FF734FF001021A7080BD00BF80B500AF4FF0010000F078FC80BD00BF80B586B000AFF8607A600A467A817B727B7A9BB21A464FEAAB
:401B00008202D3184FEA43037B824FF00200F9684FF0400200F06AFB07E04FF00100FFF74BFD7B8A03F1FF337B824FF0020000F009FB0346002B02D17B8A002BEDD14FF00C
:401B4000020000F0FFFA0346002B03D14FF010037B6105E07B687A891A804FF000037B617B69184607F11807BD4680BD80B586B000AFF8607A600A467A817B727B7A9BB222
:401B80001A464FEA8202D3184FEA43037B827B89402B02D94FF040037B8148F25013C1F6FF731B78002B21D007E04FF00100FFF703FD7B8A03F1FF337B8200F095FA034657
:401BC000002B02D17B8A002BEFD100F08DFA0346002B17D000F094FAFFF77EFF48F25013C1F6FF734FF000021A700BE000F088FA0346002B06D000F077FA0346002B01D056
:401C0000FFF76AFF7B7A9BB21A464FEA8202D3184FEA43037B8207E04FF00100FFF7CCFC7B8A03F1FF337B824FF0010000F08AFA0346012B02D07B8A002BEDD14FF0010049
:401C400000F080FA0346012B0ED17B894FF00100F9681A4600F072FB03461A467B681A804FF000037B6106E07B684FF000021A804FF010037B617B69184607F11807BD46D2
:401C800080BD00BF80B582B000AF02460B46FA71BB7148F25113C1F6FF731B78002B08D100F012F848F25113C1F6FF734FF001021A70FA79BB791046194600F013F907F1A7
:401CC0000807BD4680BD00BF80B582B000AFFFF701FB0346FB7144F2A533C4F2000344F2A532C4F200021278D2B242F00102D2B21A7044F2B533C4F2000344F2B532C4F292
:401D000000021278D2B242F00102D2B21A7046F29D03C4F200034FF001021A7046F20903C4F200034FF002021A7046F21003C4F2000346F21002C4F200021278D2B202F023
:401D40007F02D2B21A704FF00000FFF759FC44F29433C4F2000344F29432C4F200021278D2B222F00602D2B21A7046F21203C4F2000346F21202C4F200021278D2B222F080
:401D80002002D2B21A7044F29433C4F2000344F29432C4F200021278D2B242F00102D2B21A704FF00100FFF72BFC4FF02800FFF727FC45F2F813C4F2000345F2F812C4F269
:401DC00000021278D2B202F07F02D2B21A7045F2F813C4F2000345F2F812C4F200021278D2B222F04002D2B21A7044F29433C4F2000344F29432C4F200021278D2B242F044
:401E00000202D2B21A704FF00200FFF7F9FB44F29433C4F2000344F29432C4F200021278D2B242F00402D2B21A7046F28403C4F200034FF000021A7046F28503C4F20003EB
:401E40004FF000021A70FB791846FFF747FA4FF0170042F65151C0F20001FFF7E5FB4FF017004FF00701FFF70FFC4FF0150042F64551C0F20001FFF7D7FB4FF015004FF007
:401E80000701FFF701FC4FF0180042F24D41C0F20001FFF7C9FB4FF018004FF00701FFF7F3FB4FF0000042F65D41C0F20001FFF7BBFB4FF000004FF00701FFF7E5FB4FF010
:401EC000010042F6D141C0F20001FFF7ADFB4FF001004FF00701FFF7D7FB07F10807BD4680BD00BF80B584B000AF02460B46FA71BB714FF00003FB730BE0FA7B48F2FC1350
:401F0000C1F6FF734FF001019954FB7B03F10103FB73FB7B002BF0D04FF46143CEF200034FF400021A604FF46143CEF200034FF080721A604FF46143CEF200034FF0010263
:401F40001A604FF46143CEF200034FF002021A6048F27613C1F6FF734FF000021A70BB79002B02D0012B08D00FE046F20903C4F200034FF002021A700FE046F20903C4F2F2
:401F800000034FF003021A7007E046F20903C4F200034FF003021A7000BF48F27013C1F6FF73FA791A7048F27513C1F6FF734FF000021A7048F27113C1F6FF734FF000021E
:401FC0001A7048F27413C1F6FF734FF000021A7048F25C13C1F6FF734FF000021A7048F27313C1F6FF734FF000021A7048F2ED13C1F6FF734FF000021A7046F22803C4F20A
:4020000000034FF003021A7046F20803C4F200034FF080021A704FF00100FFF751F946F21203C4F200034FF004021A7007F11007BD4680BD80B483B000AF4FF00003FB7120
:402040000BE0FA7948F2FC13C1F6FF734FF001019954FB7903F10103FB71FB79002BF0D048F27613C1F6FF734FF000021A7048F27513C1F6FF734FF000021A7048F2711300
:40208000C1F6FF734FF000021A7048F27413C1F6FF734FF000021A7048F25C13C1F6FF734FF000021A7048F27313C1F6FF734FF000021A7048F2ED13C1F6FF734FF0000282
:4020C0001A7046F22803C4F200034FF003021A7046F20803C4F200034FF080021A7007F10C07BD4680BC704780B400AF48F27513C1F6FF731B78DBB21846BD4680BC7047E2
:4021000080B483B000AF4FF00003FB7148F27413C1F6FF731B78DBB2002B0CD048F27413C1F6FF731B78FB7148F27413C1F6FF734FF000021A70FB79184607F10C07BD464C
:4021400080BC704780B483B000AF0346FB71F97948F28012C1F6FF720B464FEA43035B184FEA8303D3185B78DBB2184607F10C07BD4680BC704700BF80B485B000AF03466F
:40218000FB714FF00003FB81FB79002B27D0FB79082B24D8FB7903F1FF33DBB24FEA03137B737A7B46F20C03C4F20003D3181B78DBB203F00F03FB81FB894FEA03239AB2A8
:4021C000797B46F20D03C4F20003CB181B78DBB213439BB2FB81FB89A3F10203FB81FB89184607F11407BD4680BC704790B484B000AF396013460246FA71BB80FB79002B9E
:4022000000F09680FB79082B00F29280FB7903F1FF33DBB24FEA03137B737A7B46F28803C4F20003D318BB60B888F97948F28012C1F6FF720B464FEA43035B184FEA83036A
:40224000D318DB889BB2C3F50073984210D9F97948F28012C1F6FF720B464FEA43035B184FEA8303D318DB889BB2C3F50073BB807A7B46F20C03C4F20003D3181846BB88EB
:402280004FEA13239BB2DCB2F97948F28012C1F6FF720B464FEA43035B184FEA8303D318DB78DBB22343DBB203707A7B46F20D03C4F20003D318BA88D2B21A703B68002B3C
:4022C00011D04FF00003FB8109E0FB893A68D3181A78BB681A70FB8903F10103FB81FA89BB889A42F1D3F97948F28012C1F6FF720B464FEA43035B184FEA8303D3184FF016
:4023000000025A707A7B46F20E03C4F20003D3181846F97948F28012C1F6FF720B464FEA43035B184FEA8303D3185B79DBB2037007F11007BD4690BC704700BF80B586B02B
:4023400000AF396013460246FA71BB80FB79002B37D0FB79082B34D83B68002B31D0FB7903F1FF33DBB24FEA03137B757A7D46F28803C4F20003D3183B61FB791846FFF77E
:40238000FBFE0346FB81BA88FB899A4201D9FB89BB804FF00003FB820AE0FB8A3A68D3183A691278D2B21A70FB8A03F10103FB82FA8ABB889A42F0D3FB79184600F00AF80A
:4023C00002E04FF00003BB80BB88184607F11807BD4680BD80B485B000AF0346FB71FB79002B2ED0FB79082B2BD8FB7903F1FF33DBB24FEA0313FB73F97948F28012C1F699
:40240000FF720B464FEA43035B184FEA8303D3184FF000025A70FA7B46F20E03C4F20003D3181846F97948F28012C1F6FF720B464FEA43035B184FEA8303D3185B79DBB2BF
:40244000037007F11407BD4680BC704780B582B000AF46F22803C4F200031B78BB71BB7903F01003002B00F08C804FF00103FB71BB795BB2002B18DABB7903F00F03012B1C
:4024800003D04FF00003FB7122E000F07FF848F25D13C1F6FF731B78DBB2DBB25BB2002B16DA4FF00003FB7112E0BB7903F04003002B02D000F0BEF80AE0BB7903F02003A9
:4024C000002B02D000F0DEF802E04FF00003FB71FB79002B55D046F22803C4F200031B78BB71BB795BB2002B4BDB48F27213C1F6FF731B78DAB248F2EE13C1F6FF731B785A
:40250000DBB21343BB7146F22903C4F20003BA791A7046F22903C4F200031B78DBB2BA799A422ED148F25D13C1F6FF731B78FB7146F22803C4F200031B78DBB223F07F03C4
:40254000BB71BB79002B13D146F22803C4F2000348F25D12C1F6FF721278D2B21A7046F22803C4F200031B78DBB203F00F03FB7148F25D13C1F6FF731B78DBB2FA799A4278
:40258000D0D107F10807BD4680BD00BF80B582B000AF46F22803C4F200031B78FB7146F22803C4F20003FA791A7046F22803C4F200031B78FB71FB795BB2002B06DA48F249
:4025C0005D13C1F6FF73FA791A702EE04FF0020000F0F4FA4FF4C043C4F200031B78DBB203F06003202B08D0402B0BD0002B0ED100F032FE0346FB710DE002F059F80346E2
:40260000FB7108E002F032F80346FB7103E04FF00003FB7100BFFB79002B06D148F25D13C1F6FF734FF003021A7007F10807BD4680BD00BF80B500AF48F27613C1F6FF7338
:402640001B78DBB2062B1AD801A252F823F000BF7F2600007F2600006D2600007F260000732600007F2600007926000000F04AF906E000F037FA03E000F06EFA00E000BFE5
:4026800080BD00BF80B500AF48F27613C1F6FF731B78DBB2062B23D801A252F823F000BFE1260000E1260000BD260000E1260000C3260000E1260000C926000000F028F95B
:4026C0000FE000F091F90CE04FF0030000F076FA48F25D13C1F6FF734FF003021A7000E000BF80BD80B483B000AF4FF00003FB7148F2ED13C1F6FF731B78DBB21A4648F285
:40270000F013C1F6FF731B889BB2D3189AB248F2F013C1F6FF731A802BE0FB7903F1804303F5C0431A4648F26413C1F6FF735B681B78DBB2137048F26413C1F6FF735B68D8
:4027400003F1010248F26413C1F6FF735A60FB7903F10103FB7148F26413C1F6FF731B889BB203F1FF339AB248F26413C1F6FF731A8048F26413C1F6FF731B889BB2002B51
:4027800002D0FB79072BC8D948F2ED13C1F6FF731B78DBB2082B02D0FB79002B1ED048F27213C1F6FF731B78DBB283F07F036FEA0303DAB248F27213C1F6FF731A7048F257
:4027C0005D13C1F6FF734FF00F021A7048F27613C1F6FF734FF002021A700DE048F25D13C1F6FF734FF002021A7048F27613C1F6FF734FF002021A7048F2ED13C1F6FF7304
:40280000FA791A7048F2EE13C1F6FF73FA791A7007F10C07BD4680BC704700BF80B582B000AF48F26413C1F6FF731B889BB2002B02D100F03BF832E048F27613C1F6FF737B
:402840004FF002021A7048F27213C1F6FF734FF000021A7000F0DEF946F20703C4F200031B78DBB24FEA03239AB246F20603C4F200031B78DBB213439BB2FB8048F2641362
:40288000C1F6FF731B889BB2FA889A4205D248F26413C1F6FF73FA881A80FFF723FF4FF00103184607F10807BD4680BD80B400AF48F27613C1F6FF734FF002021A7048F2FE
:4028C0007213C1F6FF734FF080021A7048F25D13C1F6FF734FF00F021A7048F2ED13C1F6FF734FF000021A7048F2EE13C1F6FF734FF000021A704FF001031846BD4680BCF5
:40290000704700BF80B500AFFFF7ECFE80BD00BF80B500AF48F2ED13C1F6FF731B78DBB21A4648F2F013C1F6FF731B889BB2D3189AB248F2F013C1F6FF731A8048F276134A
:40294000C1F6FF734FF000021A704FF0010000F035F948F25D13C1F6FF734FF003021A7080BD00BF80B582B000AF48F27613C1F6FF734FF004021A7048F27213C1F6FF73AF
:402980004FF080021A7000F045F946F20703C4F200031B78DBB24FEA03239AB246F20603C4F200031B78DBB213439BB2FB8048F26413C1F6FF731B889BB2FA889A4205D2A1
:4029C00048F26413C1F6FF73FA881A8048F25D13C1F6FF734FF00B021A704FF00103184607F10807BD4680BD80B483B000AF4FF00003BB7146F22903C4F200031B78DBB28F
:402A000003F00F03DBB2A3F10203FB71FB799AB248F2F013C1F6FF731B889BB2D3189AB248F2F013C1F6FF731A802EE048F26413C1F6FF735A68BB7903F1804303F5C04322
:402A40001B78DBB2137048F26413C1F6FF735B6803F1010248F26413C1F6FF735A60BB7903F10103BB71FB7903F1FF33FB7148F26413C1F6FF731B889BB203F1FF339AB2F1
:402A800048F26413C1F6FF731A8048F26413C1F6FF731B889BB2002B02D0FB79002BC5D148F2EE13C1F6FF73FA791A7048F27213C1F6FF731B78DBB283F07F036FEA0303E9
:402AC000DAB248F27213C1F6FF731A7048F25D13C1F6FF734FF00B021A7007F10C07BD4680BC704780B500AF48F27613C1F6FF734FF000021A704FF0010000F05FF848F2D2
:402B00005D13C1F6FF734FF003021A7080BD00BF80B400AF48F27613C1F6FF734FF006021A7048F25D13C1F6FF734FF006021A7048F27213C1F6FF734FF080021A7048F281
:402B4000EE13C1F6FF734FF000021A704FF001031846BD4680BC704780B500AF48F25C13C1F6FF731B78DBB2002B14D046F20803C4F2000348F25C12C1F6FF721278D2B20A
:402B800062F07F02D2B21A7048F25C13C1F6FF734FF000021A7048F27613C1F6FF734FF000021A704FF0010000F008F848F25D13C1F6FF734FF003021A7080BD80B483B06B
:402BC00000AF0346FB7148F26413C1F6FF739B68002B19D048F26413C1F6FF739B68FA791A7048F26413C1F6FF739A6848F2F013C1F6FF731B889BB2538048F26413C1F639
:402C0000FF734FF000029A6007F10C07BD4680BC704700BF80B400AF48F2F013C1F6FF734FF000021A8048F26413C1F6FF739B68002B0FD048F26413C1F6FF739B684FF000
:402C400000021A7048F26413C1F6FF739B684FF000025A80BD4680BC704700BF80B400AF46F20E03C4F200031B7848F28013C1F6FF731B7BDBB203F00303012B0FD048F24C
:402C80008013C1F6FF73DB7BDBB283F07F036FEA0303DAB248F28013C1F6FF73DA7348F28013C1F6FF734FF001025A7346F20B03C4F2000346F20B02C4F200021278D2B243
:402CC00022F00102D2B21A70BD4680BC704700BF80B400AF46F21E03C4F200031B7848F28013C1F6FF731B7EDBB203F00303012B0FD048F28013C1F6FF73DB7EDBB283F005
:402D00007F036FEA0303DAB248F28013C1F6FF73DA7648F28013C1F6FF734FF001025A7646F20B03C4F2000346F20B02C4F200021278D2B222F00202D2B21A70BD4680BC6B
:402D4000704700BF80B400AFBD4680BC704700BF80B500AFFFF76EF980BD00BF80B582B000AF4FF00003FB7146F20403C4F200031B78BB714FF4C043C4F200031B78DBB26E
:402D8000DBB25BB2002B80F29C8046F20103C4F200031B78DBB203F1FF33052B00F2248101A252F823F000BF232E0000432E00008B2E0000E92F0000E92F0000C12D000066
:402DC00046F20303C4F200031B78DBB2212B0FD100F022F948F26413C1F6FF731B889BB2002B00F00381FFF719FD0346FB71FDE046F20303C4F200031B78DBB2222B40F0EA
:402E0000F58000F053F948F26413C1F6FF731B889BB2002B00F0EA80FFF700FD0346FB71E4E000F099F948F26413C1F6FF731B889BB2002B00F0DC80FFF7F0FC0346FB71CC
:402E4000D6E0BB79002B40F0D58046F20203C4F200031B78DBB2002B40F0CC8048F26413C1F6FF734FF001021A80BA7948F2F413C1F6FF73D21848F26413C1F6FF735A602A
:402E8000FFF7CCFC0346FB71B4E0BB79002B40F0B38048F26413C1F6FF734FF001021A80BA7948F2FC13C1F6FF73D21848F26413C1F6FF735A60FFF7B1FC0346FB7100BF59
:402EC0009AE04FF4C043C4F200031B78DBB2DBB25BB2002BC0F2998046F20103C4F200031B78DBB2092B07D0092BC0F287800A2B11D00B2B5AD075E000F02EF948F2641309
:402F0000C1F6FF731B889BB2002B79D0FFF72AFD0346FB7174E0BB79002B73D146F20203C4F200031B78DBB2002B6BD1BA7946F20303C4F200031B78D9B248F2F413C1F67E
:402F4000FF739954BA7948F2F413C1F6FF739B5CDAB2B97948F2F813C1F6FF735B5CDBB29A4208D2BA7948F2F813C1F6FF734FF00001995415E0BA7948F2F813C1F6FF73D4
:402F80009B5CDBB2012B0CD9BA79B97948F2F413C1F6FF735B5CD9B248F2F813C1F6FF739954FFF7B5FD0346FB712BE0BB79002B2AD146F20203C4F200031B78DBB2012B0C
:402FC00022D8BA7946F20203C4F200031B78D9B248F2FC13C1F6FF739954FFF799FD0346FB7111E000BF09E000BF0EE000BF0CE000BF0AE000BF08E000BF06E000BF04E067
:4030000000BF02E000BF00E000BFFB79184607F10807BD4680BD00BF80B584B000AF48F27513C1F6FF731B78DBB203F1FF33DBB2184601F0E9F8F86046F20403C4F2000363
:403040001B78FB72FB7A03F102034FEAC303FA68D318FB60FB685B68FB60FA7A48F26013C1F6FF739B5CDBB24FEAC303FA68D318FB60FB685B68FB60FB6803F12003FB60EF
:40308000FB685B687B607B681B78DBB21A4648F26413C1F6FF731A8048F26413C1F6FF737A685A6007F11007BD4680BD80B584B000AF48F27513C1F6FF731B78DBB203F15C
:4030C000FF33DBB2184601F09FF8F86046F20403C4F200031B78FB72FB7A03F102034FEAC303FA68D318FB60FB685B68FB60FA7A48F26013C1F6FF739B5CDBB24FEAC30378
:40310000FA68D318FB60FB685B68FB60FB6803F11803FB60FB685B687B607B6803F101031B78DBB24FEA03239AB27B681B78DBB213439BB29AB248F26413C1F6FF731A808C
:403140007B6803F1020248F26413C1F6FF735A6007F11007BD4680BD80B584B000AF48F26413C1F6FF734FF000021A8048F27513C1F6FF731B78DBB203F1FF33DBB21846A8
:4031800001F042F8F86046F20303C4F200031B78FB7246F20403C4F200031B78BB72BB7A03F102034FEAC303FA68D318FB60FB685B68FB60BB7A002B49D1BA7A48F260132C
:4031C000C1F6FF739B5CDBB24FEAC303FA68D318FB60FB685B68FB60FB7A002B37D0FB7A032B34D8FB7A03F1FF334FEAC303FA68D318FB6046F20203C4F200031B78FB726C
:40320000FB681B78FA7A9A4221D8FB685B687B60FA7A13464FEA43039B184FEA83037A68D3187B607B685A6848F26413C1F6FF735A607B681A8848F26413C1F6FF731A80B6
:403240007B689A6848F26413C1F6FF739A6007F11007BD4680BD00BF80B586B000AF4FF00003FB754FF000033B6148F26413C1F6FF734FF000021A804FF4C043C4F2000329
:403280001B78DBB2DBB25BB2002B80F2818146F20103C4F200031B78DBB20A2B00F2E38201A252F823F000BF553400006738000067380000673800006738000067380000B1
:4032C000D5320000673800002B350000673800005535000046F20303C4F200031B78DBB2012B15D100F0C0FFB860BB685A6848F26413C1F6FF735A6048F26413C1F6FF735C
:403300004FF012021A80FFF789FA0346FB75ACE246F20303C4F200031B78DBB2022B36D146F20203C4F200031B78DBB2184600F06BFFB860BB68002B00F09782BB685A6873
:4033400048F26413C1F6FF735A6048F26413C1F6FF735B6803F103031B78DBB24FEA03239AB248F26413C1F6FF735B6803F102031B78DBB213439BB29AB248F26413C1F64A
:40338000FF731A80FFF74AFA0346FB756DE246F20303C4F200031B78DBB2032B55D14FF00003FB7344F6F403C0F200033B610AE03B691B78FB71FB793A69D3183B61FB7B81
:4033C00003F10103FB7346F20203C4F200031B78DBB2FA7B9A4204D23B691B78DBB2002BE6D146F20203C4F200031B78DBB2002B11D046F20203C4F200031B78DAB244F613
:40340000B403C0F200031B7C9A4204D144F64C13C0F200033B613B691B78DBB2002B00F024823B691B78DBB21A4648F26413C1F6FF731A8048F26413C1F6FF733A695A609A
:40344000FFF7ECF90346FB750FE201F031F90346FB750AE24FF4C043C4F200031B78DBB203F00303002B37D0022B5CD148F26413C1F6FF734FF002021A8046F20403C4F2B7
:4034800000031B78DBB203F07F0148F28012C1F6FF720B464FEA43035B184FEA8303D3189B78DAB248F25413C1F6FF731A7048F25413C1F6FF734FF000025A7048F264131C
:4034C000C1F6FF7348F25412C1F6FF725A60FFF7A5F90346FB7527E048F26413C1F6FF734FF002021A8048F27313C1F6FF731B78DAB248F25413C1F6FF731A7048F2541319
:40350000C1F6FF734FF000025A7048F26413C1F6FF7348F25412C1F6FF725A60FFF77EF90346FB7500E000BFA6E148F26413C1F6FF734FF001021A8048F26413C1F6FF731F
:4035400048F27512C1F6FF725A60FFF767F90346FB7591E148F26413C1F6FF734FF001021A8046F20403C4F200031B78DBB21A4648F26013C1F6FF73D21848F26413C1F6D1
:40358000FF735A60FFF74AF90346FB7500BF73E146F20103C4F200031B78DBB203F1FF330A2B00F2648101A252F823F0C73600006F380000973700006F380000D93500006C
:4035C0006F3800006F3800006F380000F93500006F3800006D36000046F20203C4F200031B78DAB248F25C13C1F6FF731A70FFF78FFA0346FB753FE146F20203C4F200039F
:403600001B78BB71BB79002B07D0BB7903F1FF33DBB2184600F0F8FDB860BB79002B02D0BB68002B03D1BB79002B40F0228148F27513C1F6FF731B78DBB2BA799A4210D0D4
:4036400048F27513C1F6FF73BA791A7048F27413C1F6FF734FF001021A704FF0010000F013FAFFF755FA0346FB7502E100F0B6FF0346002B00F0FF8046F20403C4F200034E
:403680001B787B7148F27113C1F6FF737A791A7048F27413C1F6FF734FF001021A7000F009FC7A79797948F26013C1F6FF735B5CD9B248F2EC13C1F6FF739954FFF728FA18
:4036C0000346FB75D7E04FF4C043C4F200031B78DBB203F00303012B2BD0012B0ED3022B52D146F20203C4F200031B78DBB2002B4BD100F091FE0346FB7546E046F20203C6
:40370000C4F200031B78DBB2012B40D148F27313C1F6FF731B78DBB223F00203DAB248F27313C1F6FF731A70FFF7F2F90346FB752DE046F20403C4F200031B78DBB2002B69
:4037400027D146F20403C4F200031B78DBB21A46194648F27813C1F6FF735B5CD9B246F20203C4F200031B78DBB26FEA0303DBB20B40D9B248F27813C1F6FF739954FFF7A1
:40378000C7F90346FB7504E004E000BF02E000BF00E000BF70E04FF4C043C4F200031B78DBB203F00303012B2BD0012B0ED3022B52D146F20203C4F200031B78DBB2002B9C
:4037C0004BD100F091FD0346FB7546E046F20203C4F200031B78DBB2012B40D148F27313C1F6FF731B78DBB243F00203DAB248F27313C1F6FF731A70FFF78AF90346FB758B
:403800002DE046F20403C4F200031B78DBB2002B27D146F20403C4F200031B78DBB21A46194648F27813C1F6FF735B5CD9B246F20203C4F200031B78DBB26FEA0303DBB237
:403840000B40D9B248F27813C1F6FF739954FFF75FF90346FB7504E004E000BF02E000BF00E000BF08E000BF06E000BF04E000BF02E000BF00E000BFFB7D184607F11807AD
:40388000BD4680BD80B483B000AF4FF00103FB714FF00003BB71E5E0BB7903F1804303F5C1434FF00C021A70F97948F28012C1F6FF720B464FEA43035B184FEA8303D318BF
:4038C0005B79DBB2002B25D0F97948F28012C1F6FF720B464FEA43035B184FEA8303D3181B79DBB2DBB25BB2002B09DABA7946F20E03C4F20003D3184FF00C021A7012E042
:40390000BA7946F20E03C4F20003D3184FF008021A7008E0BA7946F20E03C4F20003D3184FF080021A70BA7946F20C03C4F20003D3181846F97948F28012C1F6FF720B460E
:403940004FEA43035B184FEA8303D31803F108031B889BB24FEA13239BB2DBB20370BA7946F20D03C4F20003D3181846F97948F28012C1F6FF720B464FEA43035B184FEAA1
:403980008303D31803F108031B889BB2DBB20370BA7946F28603C4F20003D3181846F97948F28012C1F6FF720B464FEA43035B184FEA8303D318DB889BB2DBB20370BA797B
:4039C00046F28703C4F20003D3181846F97948F28012C1F6FF720B464FEA43035B184FEA8303D318DB889BB24FEA13239BB2DBB20370BA7946F28403C4F20003D318184650
:403A0000F97948F28012C1F6FF720B464FEA43035B184FEA8303D318DB889BB2DBB20370BA7946F28503C4F20003D3181846F97948F28012C1F6FF720B464FEA43035B18E5
:403A40004FEA8303D318DB889BB24FEA13239BB2DBB20370FB7903F10103FB71BB7903F11003BB71BB795BB2002BBFF615AF46F20A03C4F200034FF0FF021A7007F10C0739
:403A8000BD4680BC704700BF80B588B000AF0346FB714FF000037B834FF00003FB7770E0F97F48F28012C1F6FF720B464FEA43035B184FEA8303D3184FF000021A70F97FA0
:403AC00048F28012C1F6FF720B464FEA43035B184FEA8303D3184FF000029A70F97F48F28012C1F6FF720B464FEA43035B184FEA8303D3184FF000025A70F97F48F28012F2
:403B0000C1F6FF720B464FEA43035B184FEA8303D3184FF00002DA70F97F48F28012C1F6FF720B464FEA43035B184FEA8303D3184FF000025A71F97F48F28012C1F6FF7214
:403B40000B464FEA43035B184FEA8303D31803F108034FF000021A80F97F48F28012C1F6FF720B464FEA43035B184FEA8303D31803F108034FF000029A70FB7F03F1010369
:403B8000FB77FB7F082B8BD9FB79002B1AD04FF000037B7713E07A7F48F26013C1F6FF734FF0000199547A7F48F2EC13C1F6FF734FF0000199547B7F03F101037B777B7F70
:403BC000002BE8D048F27513C1F6FF731B78DBB2002B00F06B8148F27513C1F6FF731B78DBB203F1FF33DBB2184600F00DFB38613B695B68FB60FB6803F107031B7803F07A
:403C00004003002B0ED048F27313C1F6FF731B78DBB243F00103DAB248F27313C1F6FF731A700DE048F27313C1F6FF731B78DBB223F00103DAB248F27313C1F6FF731A70ED
:403C40003B6903F108033B613B691B78FB774FF001037B77C8E03B695B687B614FF00003BB77B8E07A7F7B699B7803F07F039A4240F0A980797F48F28012C1F6FF720B4659
:403C80004FEA43035B184FEA8303D31803F108031B889AB27B699B889A4211D2797F7B69988848F28012C1F6FF720B464FEA43035B184FEA8303D31803F1080302461A80F6
:403CC0007B691B781A4648F26013C1F6FF739B5CDAB27B695B789A4275D17B69DB7803F00303FB727B699B78DBB25BB2002B25DA797F48F28012C1F6FF720B464FEA4303A7
:403D00005B184FEA8303D3184FF001025A70787FFB7A012B02D14FF0070101E04FF00D0148F28012C1F6FF7203464FEA43031B184FEA8303D3180A465A7124E0797F48F290
:403D40008012C1F6FF720B464FEA43035B184FEA8303D3184FF000025A70787FFB7A012B02D14FF0050101E04FF0090148F28012C1F6FF7203464FEA43031B184FEA830309
:403D8000D3180A465A71797F7B69987848F28012C1F6FF720B464FEA43035B184FEA8303D31802461A71797F7B69D87848F28012C1F6FF720B464FEA43035B184FEA83033B
:403DC000D31802461A707B6903F108037B61BB7F03F10103BB77BA7FFB7F9A42FFF442AF7B7F03F101037B777B7F082B7FF633AF3B695B687B614FF000037B771CE07B69B1
:403E00009B7803F07F017B69187848F28012C1F6FF720B464FEA43035B184FEA8303D31803F1080302469A707B6903F108037B617B7F03F101037B777A7FFB7F9A42DED3B3
:403E400000F026FA024648F27C13C1F6FF731A604FF00103FB7724E0F97F48F28012C1F6FF720B464FEA43035B184FEA8303D3187A8BDA80F97F48F28012C1F6FF720B4650
:403E80004FEA43035B184FEA8303D31803F108031B889AB27B8BD3187B83FB7F03F10103FB77FB7F082BD7D9FFF7ECFC07F12007BD4680BD80B584B000AF48F27513C1F67A
:403EC000FF731B78DBB2002B00F0998148F27513C1F6FF731B78DBB203F1FF33DBB2184600F092F978607B6803F108037B607B681B78FB707B685B68BB604FF00003FB737D
:403F000078E1BB681B781A4648F26013C1F6FF739B5CDAB2BB681B78194648F2EC13C1F6FF735B5CDBB29A4200F05C81BB681B781A4648F26013C1F6FF739B5CDAB2BB68C3
:403F40005B789A4240F04E81BB681A7846F20403C4F200031B78DBB29A4240F04381BB689B7803F07F03BB70BB7803F1FF33DBB24FEA03137B70BB68DB7803F003033B70E6
:403F8000BB689B78DBB25BB2002B25DAB97848F28012C1F6FF720B464FEA43035B184FEA8303D3184FF001025A70B8783B78012B02D14FF0070101E04FF00D0148F28012C6
:403FC000C1F6FF7203464FEA43031B184FEA8303D3180A465A7124E0B97848F28012C1F6FF720B464FEA43035B184FEA8303D3184FF000025A70B8783B78012B02D14FF097
:40400000050101E04FF0090148F28012C1F6FF7203464FEA43031B184FEA8303D3180A465A717A7846F20E03C4F20003D3184FF001021A70B978BB68988848F28012C1F6FA
:40404000FF720B464FEA43035B184FEA8303D31803F1080302461A80B978BB68987848F28012C1F6FF720B464FEA43035B184FEA8303D31802461A71B978BB68D87848F20B
:404080008012C1F6FF720B464FEA43035B184FEA8303D31802461A70B97848F28012C1F6FF720B464FEA43035B184FEA8303D3184FF00002DA707A7846F20C03C4F20003F8
:4040C000D3181846B97848F28012C1F6FF720B464FEA43035B184FEA8303D31803F108031B889BB24FEA13239BB2DBB203707A7846F20D03C4F20003D3181846B97848F213
:404100008012C1F6FF720B464FEA43035B184FEA8303D31803F108031B889BB2DBB203707A7846F28603C4F20003D3181846B97848F28012C1F6FF720B464FEA43035B18CC
:404140004FEA8303D318DB889BB2DBB203707A7846F28703C4F20003D3181846B97848F28012C1F6FF720B464FEA43035B184FEA8303D318DB889BB24FEA13239BB2DBB224
:4041800003707A7846F28403C4F20003D3181846B97848F28012C1F6FF720B464FEA43035B184FEA8303D318DB889BB2DBB203707A7846F28503C4F20003D3181846B97832
:4041C00048F28012C1F6FF720B464FEA43035B184FEA8303D318DB889BB24FEA13239BB2DBB20370BB6803F10803BB60FB7B03F10103FB73FA7BFB789A42FFF482AE07F17A
:404200001007BD4680BD00BF80B485B000AF0346FB7148F27013C1F6FF731B78DBB244F60C22C0F200024FEAC303D3185B68FB60FB6803F10803FB60FB681B78FA799A426F
:4042400003D34FF00003FB6006E0FB794FEAC303FA68D3185B68FB60FB68184607F11407BD4680BC704700BF80B400AF48F27013C1F6FF731B78DBB244F60C22C0F2000279
:404280004FEAC303D3185B681846BD4680BC704780B584B000AF48F27513C1F6FF731B78DBB203F1FF33DBB21846FFF7ADFFB860BB68002B0FD0BB685B681B79FB71FB7988
:4042C00003F102034FEAC303BA68D318BB60BB685B68FB6002E04FF00003FB60FB68184607F11007BD4680BD80B582B000AF4FF00003FB7146F20403C4F200031B78DBB2F2
:4043000003F07F03BB71BB7903F1FF33DBB24FEA03137B71BB79002B78D0BB79082B75D8B979B87948F28012C1F6FF7203464FEA43031B184FEA8303D3189B78DBB243F090
:404340000103D8B248F28012C1F6FF720B464FEA43035B184FEA8303D31802469A70B97948F28012C1F6FF720B464FEA43035B184FEA8303D3184FF00002DA70B979B8797B
:4043800048F28012C1F6FF7203464FEA43031B184FEA8303D3185B78DBB243F00203D8B248F28012C1F6FF720B464FEA43035B184FEA8303D31802465A70B97948F2801251
:4043C000C1F6FF720B464FEA43035B184FEA8303D3181B79DBB2DBB25BB2002B09DA7A7946F20E03C4F20003D3184FF08D021A7008E07A7946F20E03C4F20003D3184FF0A0
:4044000089021A70FEF784FB0346FB71FB79184607F10807BD4680BD80B582B000AF4FF00003FB7146F20403C4F200031B78DBB203F07F03BB71BB7903F1FF33DBB24FEA88
:4044400003137B71BB79002B00F0C180BB79082B00F2BD80B979B87948F28012C1F6FF7203464FEA43031B184FEA8303D3189B78DBB223F00103D8B248F28012C1F6FF72E3
:404480000B464FEA43035B184FEA8303D31802469A70B97948F28012C1F6FF720B464FEA43035B184FEA8303D3184FF00002DA707A7946F20C03C4F20003D3181A467979EF
:4044C00046F20C03C4F20003CB181B78DBB203F07F03DBB21370B979B87948F28012C1F6FF7203464FEA43031B184FEA8303D3185B78DBB223F00203D8B248F28012C1F6B3
:40450000FF720B464FEA43035B184FEA8303D31802465A70B97948F28012C1F6FF720B464FEA43035B184FEA8303D3181B79DBB2DBB25BB2002B23DAB97948F28012C1F660
:40454000FF720B464FEA43035B184FEA8303D3185B78DBB2012B09D17A7946F20E03C4F20003D3184FF00C021A702CE07A7946F20E03C4F20003D3184FF00D021A7022E0FA
:40458000B97948F28012C1F6FF720B464FEA43035B184FEA8303D3185B78DBB2012B09D17A7946F20E03C4F20003D3184FF008021A7008E07A7946F20E03C4F20003D31807
:4045C0004FF009021A70FEF7A3FA0346FB71FB79184607F10807BD4680BD00BF80B584B000AF4FF00103FB7346F20403C4F200031B78BB7348F27513C1F6FF731B78DBB23B
:4046000003F1FF33DBB21846FFF7FEFDB860BB685B681B79FB71BA7BFB799A4202D2BB7B002B03D04FF00003FB7318E0BA7BB97B48F26013C1F6FF735B5CD9B248F2EC138B
:40464000C1F6FF739954BA7B46F20203C4F200031B78D9B248F26013C1F6FF739954FB7B184607F11007BD4680BD00BF80B483B000AF4FF00003FB714FF4C043C4F2000373
:404680001B78DBB2DBB25BB2002B09DA46F20103C4F200031B78DBB2012B00D000E000BFFB79184607F10C07BD4680BC704700BF80B582B000AF4FF00003FB714FF00003EA
:4046C000BB714FF4C043C4F200031B78DBB203F00303012B02D0022B07D01EE046F20403C4F200031B78BB7118E046F20403C4F200031B78DBB203F07F0148F28012C1F6B9
:40470000FF720B464FEA43035B184FEA8303D31803F108039B78BB7100E000BF48F27C13C1F6FF731A68BB79D3181B78022B0AD0032B02D0012B08D004E0FEF70FFB0346E1
:40474000FB7103E002E000BF00E000BFFB79184607F10807BD4680BD38B50E4D0E4B0024E81A8510AC4205D00B4951F8242090470134F7E700F04EF90849094A541AA510A9
:404780000024AC4205D0054B53F8240080470134F7E738BD204A0000204A0000204A0000284A000010B50023934203D0CC5CC4540133F9E710BD82180346934202D003F89E
:4047C000011BFAE77047000065000000684A00000000000000510040400050510040200000000140001000140140000800400140000A004C014000020050014020000000A3
:4048000001450040035200400107014001090140040A0140010B01400117014001190140034001400241014004420140044301400347014003480140024C01400151014029
:404840007E02248061017C40EE08AF20B820BE10D804DF011F20EE0AEE0A33803640CC30A640A7805320A640A780D420A640A780AF20EE1008080F40C20CAE40AF80EE5098
:40488000AC08AF40000A00000100000101000100000000000000000000000000C00000008000800080000000000000006930122E001401011201000200000008B4041DB76F
:4048C00001300102800100000902290001010280FA090400000203000002092111010001222400070501034000010705820340000100000004030904280345006D00620044
:404900006500640069007400200045006C0065006300740072006F006E006900630073002803500053006F004300200035004C005000200042006F006F0074006C006F0036
:404940006100640065007200000000000A0330003300300031000000240005010900A1000900A1000900150025FF7508954091020900150025FF750895408102C0C000008E
:40498000410000000482FF1F0082FF1F410000004882FF1F8C82FF1F0000000080490000000000008C4900000000000000000000010000005849000001000000DA480000BA
:4049C0000100000098490000000001034000030000008203400003000300000001000000C848000002000000C849000001000000C049000000000000D84900000100000073
:404A0000B448000001000000DC49000001000000FC490000F8B500BFF8BC08BC9E4670475500000091010000F8B500BFF8BC08BC9E46704731000000484A00000881FF1FBF
:404A4000200000006801000000000000C8470000CC47000000366E01C05D0000180000000000E02E00000000000000000000000000000000000000000000000000000000A3
:404A800000000000000000000000000000000000000000000000000000000000000000000000000000000000000000000000000000000000000000000000000000000000F6
:404AC00000000000000000000000000000000000000000000000000000000000000000000000000000000000000000000000000000000000000000000000000000000000B6
:404B000000800020114B0000DD820000DD82000080B500AF03F0E6FB10B5054C237833B9044B13B10448AFF300800123237010BD4081FF1F000000007C16010008B5064BE1
:404B40001BB106480649AFF300800648036813B1054B03B1984708BD000000007C1601004481FF1F0881FF1F0000000080B584B002AF62B603F03AFB0A4803F047FB094836
:404B800003F068F9074B3A1D00920FCB00F00CF80346002B04D07B68184603F075FBEBE7EAE700BF2C82FF1FB0B58AB004AF3C4684E80F000023FB757B78BB757B88BB8239
:404BC0003B78FB74FB7C0F2B00F09D800F2B18DC0A2B66D00A2B0BDC062B3DD0062B02DC042B2FD018E1082B40D0092B4FD013E10C2B6AD00C2B5EDB0D2B70D00E2B78D048
:404C00000AE1FB2B00F0CB80FB2B0EDC162B00F0E380162B02DC102B7FD0FDE0172B00F08680182B00F08D80F6E0FD2B00F0CC80FD2BC0F29080FE2B00F0E180FF2B00F0CE
:404C4000E880E9E0BA7DBB8A10461946BA6A00F011FB0346FB75DFE0BA7DBB8A10461946BA6A00F05BFB0346FB75D5E0BB79C3F30203DBB21A46FB793C7AB87DB98A00941F
:404C8000BC6A019400F0B4FB0346FB75C4E0BA7DBB8A10461946BA6A00F01AFE0346FB75BAE0BA7DBB8A10461946BA6A00F07AFE0346FB75B0E0BA7DBB8A10461946BA6A32
:404CC00000F0DAFE0346FB75A6E0BA7DBB8A10461946BA6A00F03AFF0346FB759CE0BA7DBB8A10461946BA6A00F09AFF0346FB7592E0BA7DBB8A10461946BA6A00F0FAFFB3
:404D00000346FB7588E0BA7DBB8A10461946BA6A01F05AF80346FB757EE0BA7DBB8A10461946BA6A01F0BAF80346FB7574E0BA7DBB8A10461946BA6A01F0D2FC0346FB75D1
:404D40006AE0BA7DBB8A10461946BA6A01F02EFD0346FB7560E03B79C3F30303DBB219463B79C3F30213DBB21A467B79C3F30303DBB27879C0F30210C0B20546B87AC0F322
:404D80000500C0B20446B87D00950194BC8A0294BC6A039401F090FD0346FB753CE07B7AC3F3C203DBB21A467B7AC3F30203DBB2F968C1F317010C46B87DB98A009402F0D0
:404DC00077FF0346FB7527E0BB8A1846B96A02F05FFF0346FB751FE03B79C3F30303DBB219463B79C3F30213DBB21A46B87DBB8ABC6A009401F0BCF80346FB750CE0BA7D32
:404E0000BB8A10461946BA6A00F00CF80346FB7502E00BF0F1FB00BFFB7D18461837BD46B0BD00BF80B586B000AF0B463A600246FA71BB803B6800221A600023BB75002323
:404E40007B7500233B750023FB740023BB7400237B7400233B740023FB730023BB7300237B730023FB75FB79082B00F2FE8101A252F823F0994E0000E34E0000EB4E0000B8
:404E8000414F0000974F00006B5200006B520000E74F0000795100003B681B6843F008023B681A603B681B6843F020023B681A603B681B6843F080023B681A600823BB7399
:404EC00008237B733B681A687B7B1B021A433B681A603B681A68BB7B9B031A433B681A60C3E13B6884221A60BFE17B7D43F001037B757B7D43F002037B757B7D43F00403FC
:404F00007B757B7D43F008037B757B7D43F010037B757B7D43F020037B757B7D43F040037B757B7D63F07F037B753B7D1A047B7D1B021A43BB7D13431A463B681A6094E10C
:404F4000BB7C43F00103BB74BB7C43F00203BB74BB7C43F00403BB74BB7C43F00803BB74BB7C43F01003BB74BB7C43F02003BB74BB7C43F04003BB74BB7C63F07F03BB7433
:404F80007B7C1A04BB7C1B021A43FB7C13431A463B681A6069E13B7C43F001033B743B7C43F002033B743B7C43F004033B743B7C43F008033B743B7C43F010033B743B7CB5
:404FC00043F020033B743B7C43F040033B743B7C63F07F033B74FB7B1A023B7C13431A463B681A6041E1BB880B2B00F23B8101A252F823F02550000079500000CD500000D5
:4050000021510000755100007551000075510000755100007551000075510000755100007551000003F0D4FD0346042B18D801A252F823F0495000004F50000061500000B9
:40504000555000005B5000000123FB7508E00223FB7505E00323FB7502E00423FB7500BF03F0AAFD03465A1CFB7D1B04134343F400223B681A607EE009F03CF90346042B5C
:4050800018D801A252F823F09D500000A3500000B5500000A9500000AF5000000123FB7508E00223FB7505E00323FB7502E00423FB7500BF09F012F903465A1CFB7D1B0405
:4050C000134343F480123B681A6054E008F038FD0346042B18D801A252F823F0F1500000F750000009510000FD500000035100000123FB7508E00223FB7505E00323FB759C
:4051000002E00423FB7500BF08F00EFD03465A1CFB7D1B04134343F4C0123B681A602AE008F0BAFA0346042B18D801A252F823F0455100004B5100005D51000051510000C2
:40514000575100000123FB7508E00223FB7505E00323FB7502E00423FB7500BF08F090FA03465A1CFB7D1B04134343F400123B681A6000E000BF75E0BB88052B74D801A2D9
:4051800052F823F09D510000FF510000615200006152000061520000615200003B681B6843F001023B681A603B681B6843F010023B681A603B681B6843F020023B681A60EF
:4051C0003B681B6843F400723B681A603B681B6843F400623B681A603B681B6843F480423B681A603B681B6843F480323B681A603B681B6843F400223B681A6031E03B682F
:405200001B6843F003023B681A603B681B6843F010023B681A603B681B6843F060023B681A603B681B6843F400723B681A603B681B6843F480523B681A603B681B6843F4A1
:4052400080423B681A603B681B6843F400323B681A603B681B6843F400223B681A6000E000BF01E000BF00E000BF012318461837BD4680BD80B584B000AF0B463A600246CD
:40528000FA71BB800023FB73FB79062B40D801A252F823F0B1520000B7520000BD520000DB520000F9520000055300000B53000004F058F92CE004F069F929E0BB88002B93
:4052C00002D0012B04D023E0002004F079F903E0022004F075F900BF1AE0BB88002B02D0012B04D014E0002004F08AF903E0042004F086F900BF0BE0BB88DBB2184604F022
:405300009FF905E004F018FA02E004F02FFA00BFFB7B18461037BD4680BD00BF80B584B000AF0B463A600246FA71BB800023FB73FB79072B57D801A252F823F05D5300000B
:40534000635300006953000087530000A5530000CF530000DB530000E153000003F08EFF41E003F09FFF3EE0BB88002B02D0012B04D038E0002003F0AFFF03E0022003F004
:40538000ABFF00BF2FE0BB88002B02D0012B04D029E0002003F0C0FF03E0042003F0BCFF00BF20E0BB88012B08D0022B0AD0002B00D018E0002003F0CFFF07E0042003F0C6
:4053C000CBFF03E0082003F0C7FF00BF0BE0BB88DBB2184603F0E0FF05E004F065F802E004F07CF800BFFB7B18461037BD4680BD80B584B000AFF871B980BA71FB70002368
:40540000FB73FB79092B39D0092B0BDC012B1AD0012B02DC002B13D052E0042B16D0072B1DD04DE0FD2B35D0FD2B04DC0B2B2BD00C2B2CD044E0FE2B2FD0FF2B30D03FE043
:4054400007F0BAFF3CE007F0C7FF39E0B979FA783B7E084611461A4600F03AF830E0BB88002B02D0012B04D02AE000200AF0D8FA03E002200AF0D4FA00BF21E0BB88DBB263
:4054800018460AF00DFB1BE008F02AF818E008F03BF815E007F04EFE12E007F065FE0FE0BB88013B9BB21846012107F077FE07F023FF03461A46FB691A600123FB7300BF38
:4054C000FB7B18461037BD4680BD00BF00000000B0B5ADF5A46D00AFFB1D1870BB1D19707B1D1A7007F58162894B11461A46FF23084611461A460CF0AFF807F54272854BF4
:4055000011461A46FF23084611461A460CF0A4F807F50272804B11461A46FF23084611461A460CF099F807F584727C4B11461A46FF23084611461A460CF08EF807F1080333
:4055400018460021FF220CF090F8002387F80735FB1D1B78002B65D10023C7F814355CE007F58162D7F8143513441B7818460BF037FA04460D46BB1D1B7818460BF030FAC0
:4055800002460B46104619465FA3D3E900230BF0C7FB02460B46204629460BF097FA02460B4614461D467B1D1B7818460BF018FA02460B46204629460BF0D6F802460B4649
:4055C00007F5A361C1E9002307F5A363D3E900014DA3D3E900230BF009FD0346002B06D049A3D3E9002307F5A361C1E9002307F5A363D3E900010BF003FD034687F80735AF
:4056000007F10802D7F81435134497F807251A70D7F814350133C7F81435D7F81435FE2B9EDD68E0FB1D1B78012B64D10023C7F810355CE007F54272D7F8103513441B783F
:4056400018460BF0CDF904460D46BB1D1B7818460BF0C6F902460B46104619462AA3D3E900230BF05DFB02460B46204629460BF02DFA02460B4614461D467B1D1B7818462F
:405680000BF0AEF902460B46204629460BF06CF802460B4607F5A361C1E9002307F5A363D3E9000118A3D3E900230BF09FFC0346002B06D014A3D3E9002307F5A361C1E99C
:4056C000002307F5A363D3E900010BF099FC034687F8073507F10802D7F81035134497F807251A70D7F810350133C7F81035D7F81035FE2B9EDDFB1D1B78022B71D1002341
:40570000C7F80C3569E000BF0000000000E06F408816010088170100881801008819010007F50272D7F80C3513441B7818460BF057F904460D46BB1D1B7818460BF050F993
:4057400002460B46104619465FA3D3E900230BF0E7FA02460B46204629460BF0B7F902460B4614461D467B1D1B7818460BF038F902460B46204629460AF0F6FF02460B4604
:4057800007F5A361C1E9002307F5A363D3E900014DA3D3E900230BF029FC0346002B06D049A3D3E9002307F5A361C1E9002307F5A363D3E900010BF023FC034687F80735AF
:4057C00007F10802D7F80C35134497F807251A70D7F80C350133C7F80C35D7F80C35FE2B9EDDFB1D1B78032B64D10023C7F808355CE007F58472D7F8083513441B78184654
:405800000BF0EEF804460D46BB1D1B7818460BF0E7F802460B46104619462BA3D3E900230BF07EFA02460B46204629460BF04EF902460B4614461D467B1D1B7818460BF04F
:40584000CFF802460B46204629460AF08DFF02460B4607F5A361C1E9002307F5A363D3E9000119A3D3E900230BF0C0FB0346002B06D015A3D3E9002307F5A361C1E9002349
:4058800007F5A363D3E900010BF0BAFB034687F8073507F10802D7F80835134497F807251A70D7F808350133C7F80835D7F80835FE2B9EDD07F108031846FF2107F0D8FD92
:4058C00007F5A467BD46B0BD0000000000E06F4080B584B000AF0B463A600246FA71BB800023FB73FB790E2B2FD00E2B0BDC012B1AD0012B02DC002B13D04DE00C2B16D0DC
:405900000D2B19D048E0192B30D0192B04DC0F2B20D0182B27D03FE01A2B2AD0FF2B2BD03AE003F065F937E003F0CCF934E0BB88184603F005FA2FE003F076FA03461A46D3
:405940003B681A600123FB7326E0BB88184603F007FA21E003F05CFA03461A463B681A600123FB7318E003F0DDF915E003F0A0FA12E003F0B7FA0FE0BB88013B9BB2184649
:40598000012103F06BF803F017F903461A463B681A600123FB7300BFFB7B18461037BD4680BD00BF80B584B000AF0B463A600246FA71BB800023FB73FB790E2B2FD00E2BD4
:4059C0000BDC012B1AD0012B02DC002B13D04DE00C2B16D00D2B19D048E0192B30D0192B04DC0F2B20D0182B27D03FE01A2B2AD0FF2B2BD03AE003F083FA37E003F0ECFA36
:405A000034E0BB88184603F025FB2FE003F096FB03461A463B681A600123FB7326E0BB88184603F027FB21E003F07CFB03461A463B681A600123FB7318E003F0FDFA15E05D
:405A400003F0C0FB12E003F0D7FB0FE0BB88013B9BB21846012103F001F803F0ADF803461A463B681A600123FB7300BFFB7B18461037BD4680BD00BF80B584B000AF0B4668
:405A80003A600246FA71BB800023FB73FB790E2B2FD00E2B0BDC012B1AD0012B02DC002B13D04DE00C2B16D00D2B19D048E0192B30D0192B04DC0F2B20D0182B27D03FE055
:405AC0001A2B2AD0FF2B2BD03AE007F0F5FD37E007F05EFE34E0BB88184607F097FE2FE007F008FF03461A463B681A600123FB7326E0BB88184607F099FE21E007F0EEFE16
:405B000003461A463B681A600123FB7318E007F06FFE15E007F032FF12E007F049FF0FE0BB88013B9BB21846012108F029FB08F0D5FB03461A463B681A600123FB7300BF2D
:405B4000FB7B18461037BD4680BD00BF80B584B000AF0B463A600246FA71BB800023FB73FB790E2B2FD00E2B0BDC012B1AD0012B02DC002B13D04DE00C2B16D00D2B19D024
:405B800048E0192B30D0192B04DC0F2B20D0182B27D03FE01A2B2AD0FF2B2BD03AE008F0B9FB37E008F020FC34E0BB88184608F059FC2FE008F0CAFC03461A463B681A60E8
:405BC0000123FB7326E0BB88184608F05BFC21E008F0B0FC03461A463B681A600123FB7318E008F031FC15E008F0F4FC12E008F00BFD0FE0BB88013B9BB21846012108F001
:405C0000BFFA08F06BFB03461A463B681A600123FB7300BFFB7B18461037BD4680BD00BF80B584B000AF0B463A600246FA71BB800023FB73FB790E2B2FD00E2B0BDC012BA2
:405C40001AD0012B02DC002B13D04DE00C2B16D00D2B19D048E0192B30D0192B04DC0F2B20D0182B27D03FE01A2B2AD0FF2B2BD03AE008F0FDF837E008F064F934E0BB8876
:405C8000184608F09DF92FE008F00EFA03461A463B681A600123FB7326E0BB88184608F09FF921E008F0F4F903461A463B681A600123FB7318E008F075F915E008F038FA9F
:405CC00012E008F04FFA0FE0BB88013B9BB21846012107F07BFE07F027FF03461A463B681A600123FB7300BFFB7B18461037BD4680BD00BF80B584B000AF0B463A6002462D
:405D0000FA71BB800023FB73FB790E2B2FD00E2B0BDC012B1AD0012B02DC002B13D04DE00C2B16D00D2B19D048E0192B30D0192B04DC0F2B20D0182B27D03FE01A2B2AD075
:405D4000FF2B2BD03AE007F00BFF37E007F072FF34E0BB88184607F0ABFF2FE008F01CF803461A463B681A600123FB7326E0BB88184607F0ADFF21E008F002F803461A46B5
:405D80003B681A600123FB7318E007F083FF15E008F046F812E008F05DF80FE0BB88013B9BB21846012107F011FE07F0BDFE03461A463B681A600123FB7300BFFB7B18467B
:405DC0001037BD4680BD00BF80B584B000AF0B463A600246FA71BB800023FB73FB790E2B2FD00E2B0BDC012B1AD0012B02DC002B13D04DE00C2B16D00D2B19D048E0192B0A
:405E000030D0192B04DC0F2B20D0182B27D03FE01A2B2AD0FF2B2BD03AE004F095FA37E004F0FCFA34E0BB88184604F035FB2FE004F0A6FB03461A463B681A600123FB73E4
:405E400026E0BB88184604F037FB21E004F08CFB03461A463B681A600123FB7318E004F00DFB15E004F0D0FB12E004F0E7FB0FE0BB88013B9BB21846012107F053FB07F09A
:405E8000FFFB03461A463B681A600123FB7300BFFB7B18461037BD4680BD00BF80B584B000AF0B463A600246FA71BB800023FB73FB790E2B2FD00E2B0BDC012B1AD0012B27
:405EC00002DC002B13D04DE00C2B16D00D2B19D048E0192B30D0192B04DC0F2B20D0182B27D03FE01A2B2AD0FF2B2BD03AE009F079F937E009F0E0F934E0BB88184609F0B8
:405F000019FA2FE009F08AFA03461A463B681A600123FB7326E0BB88184609F01BFA21E009F070FA03461A463B681A600123FB7318E009F0F1F915E009F0B4FA12E009F097
:405F4000CBFA0FE0BB88013B9BB21846012107F0E9FA07F095FB03461A463B681A600123FB7300BFFB7B18461037BD4680BD00BF80B584B000AFF871B9717A717B800023DB
:405F8000FB8100237B73FB79042B00F2A38301A252F823F0A95F00004B620000D56600005B640000D5660000BB790F2B00F28D8301A252F823F000BF3B620000CB660000B2
:405FC000F95F00003B6200003B620000BB6000003B620000CB660000CB660000CB660000CB660000CB6600007B610000CB660000CB6600003B6200007B79072B00F21F81CF
:4060000001A252F823F000BF296000003B6000004D6000005F600000716000008360000095600000A760000004F04CFF03461A46BB691A6001237B733EE004F047FD03462A
:406040001A46BB691A6001237B7335E004F016FE03461A46BB691A6001237B732CE004F0C5FF03461A46BB691A6001237B7323E004F072FF03461A46BB691A6001237B73BC
:406080001AE004F08DFE03461A46BB691A6001237B7311E004F0A8FD03461A46BB691A6001237B7308E004F057FD03461A46BB691A6001237B7300BFC1E07B79072B00F22A
:4060C000C08001A252F823F0E9600000FB6000000D6100001F6100003161000043610000556100006761000005F05CF803461A46BB691A6001237B733EE004F00FFC034612
:406100001A46BB691A6001237B7335E004F0DEFA03461A46BB691A6001237B732CE004F01FFB03461A46BB691A6001237B7323E004F060FB03461A46BB691A6001237B73F7
:406140001AE004F0A1FB03461A46BB691A6001237B7311E008F0A0FA03461A46BB691A6001237B7308E008F0DDFA03461A46BB691A6001237B7300BF63E07B79072B62D8EE
:4061800001A252F823F000BFA9610000BB610000CD610000DF610000F161000003620000156200002762000004F0B0FD03461A46BB691A6001237B733EE009F003F8034680
:4061C0001A46BB691A6001237B7335E004F032FE03461A46BB691A6001237B732CE004F04FFF03461A46BB691A6001237B7323E004F090FF03461A46BB691A6001237B7377
:406200001AE005F019F803461A46BB691A6001237B7311E004F0CCFB03461A46BB691A6001237B7308E004F009FC03461A46BB691A6001237B7300BF05E000BF45E200BF7D
:4062400043E200BF41E200BF3FE2BB790F2B00F23E8201A252F823F04B640000CF660000996200004B6400004B6400002B6300004B640000CF660000CF660000CF660000FE
:40628000CF660000CF660000BB630000CF660000CF6600004B6400007B79072B00F2D78001A252F823F000BFC9620000D5620000E1620000ED620000F96200000563000058
:4062C000116300001D6300007B88DBB2184604F0C1FD29E07B88DBB2184604F0BDFB23E07B88DBB2184604F08FFC1DE07B88DBB2184604F041FE17E07B88DBB2184604F000
:40630000F1FD11E07B88DBB2184604F00FFD0BE07B88DBB2184604F02DFC05E07B88DBB2184604F0E3FB00BF91E07B79072B00F2908001A252F823F0596300006563000019
:40634000716300007D6300008963000095630000A1630000AD6300007B88DBB2184604F0E9FE29E07B88DBB2184604F09DFA23E07B88DBB2184604F06FF91DE07B88DBB24C
:40638000184604F0B3F917E07B88DBB2184604F0F7F911E07B88DBB2184604F03BFA0BE07B88DBB2184608F03DF905E07B88DBB2184608F081F900BF4BE07B79072B4AD890
:4063C00001A252F823F000BFE9630000F5630000016400000D6400001964000025640000316400003D6400007B88DBB2184604F055FC29E07B88DBB2184608F0A9FE23E05C
:406400007B88DBB2184604F0DBFC1DE07B88DBB2184604F0FBFD17E07B88DBB2184604F03FFE11E07B88DBB2184604F0CBFE0BE07B88DBB2184604F081FA05E07B88DBB25D
:40644000184604F0C5FA00BF05E000BF3FE100BF3DE100BF3BE100BF39E17B88013B072B2AD801A252F823F0896400008F640000956400009B640000A1640000A76400009C
:40648000AD640000B36400000023FB8114E00223FB8111E00423FB810EE00623FB810BE00823FB8108E00A23FB8105E00C23FB8102E00E23FB8100BFBB790F2B00F209816E
:4064C00001A252F823F000BFBB660000D366000009650000BB660000BB6600009B650000BB660000D3660000D3660000D3660000D3660000D36600002B660000D3660000CB
:40650000D3660000BB6600007B79072B00F2D78001A252F823F000BF3965000045650000516500005D6500006965000075650000816500008D650000FB89DBB2184604F030
:40654000A5FC29E0FB89DBB2184604F0A3FA23E0FB89DBB2184604F075FB1DE0FB89DBB2184604F027FD17E0FB89DBB2184604F0D7FC11E0FB89DBB2184604F0F5FB0BE0BB
:40658000FB89DBB2184604F013FB05E0FB89DBB2184604F0C5FA00BF91E07B79072B00F2908001A252F823F0C9650000D5650000E1650000ED650000F96500000566000042
:4065C000116600001D660000FB89DBB2184604F0CDFD29E0FB89DBB2184604F083F923E0FB89DBB2184604F055F81DE0FB89DBB2184604F099F817E0FB89DBB2184604F08E
:40660000DDF811E0FB89DBB2184604F021F90BE0FB89DBB2184608F023F805E0FB89DBB2184608F063F800BF4BE07B79072B4AD801A252F823F000BF596600006566000088
:40664000716600007D6600008966000095660000A1660000AD660000FB89DBB2184604F039FB29E0FB89DBB2184608F08FFD23E0FB89DBB2184604F0C1FB1DE0FB89DBB299
:40668000184604F0E1FC17E0FB89DBB2184604F025FD11E0FB89DBB2184604F0B1FD0BE0FB89DBB2184604F067F905E0FB89DBB2184604F0A7F900BF05E000BF09E000BF8C
:4066C00007E000BF05E000BF03E000BF02E000BF00E000BF7B7B18461037BD4680BD00BF80B584B000AF0B463A600246FA71BB800023FB7308F08CFBFB79002B02D0FB79EE
:40670000012B10D108F0A2FB002008F0ABFBBB88184608F0BFFB03461A463B681A6008F09BFB08F08BFBFB79032B39D801A252F823F000BF456700004B6700006767000036
:40674000756700000123FB732AE03B681B689BB21BB2184608F0D6FB03461A463B681A600123FB731CE0BB88184608F0B1FB08F065FB15E0BB880A2B07D00C2B09D0082BC2
:406780000BD1082008F0B2FB07E00A2008F0AEFB03E00C2008F0AAFB00BF08F04FFB00BFFB7B18461037BD4680BD00BF80B584B000AF0B463A600246FA71BB800023FB7376
:4067C0000023BB60FB79032B1AD0032B06DC012B10D0012B11DC002B07D067E0182B28D0FF2B3CD00F2B0ED060E003F0C5F803F04FFB5BE003F0D0F858E003F051FD55E0F7
:4068000003F094FD52E003F00FFC03F079F900BF03F0A0F90346002BFAD1BB88DBB2184603F0A8F903461A463B681A600123FB733CE003F0F9FB03F063F900BF03F08AF914
:406840000346002BFAD1BB88DBB2184603F098FC03461A463B681A600123FB7326E003F0E3FB0023BB601CE003F04AF900BF03F071F90346002BFAD1BB68DBB2184603F029
:4068800079F90346BA889A4208D83B681A68BB68012101FA03F31A433B681A60BB680133BB60BB68072BDFD90123FB73FB7B18461037BD4680BD00BF90B585B000AFF8718D
:4068C000B9717A713B710023FB600023BB7200237B7208F09FFB012008F02AFC0023FB72FB79002B04D0012B01F0BC8101F0C0B90123FB723B790F2B00F20F8301A252F871
:4069000023F000BF456900001B6F0000796900000B6B0000416B0000716B0000036D00001B6F00001B6F00001B6F00001B6F00001B6F0000396D00001B6F00001B6F000091
:40694000CB6E000097F82030072B00F2D78201A252F823F0756900007569000075690000756900007569000075690000756900007569000000BFC1E297F82030072B00F22D
:40698000BF8201A252F823F0A9690000D5690000016A00002D6A0000596A0000856A0000B16A0000DD6A00000C2004F06FFA002004F050FA022009F02FFE012004F04AFAA8
:4069C00097F824309BB2184609F026FE002004F041FA99E00C2004F05DF8002004F03CF8022009F019FE012004F036F897F824309BB2184609F010FE002004F02DF883E0C1
:406A00000C2004F01FF9002004F0FEF8022009F003FE012004F0F8F897F824309BB2184609F0FAFD002004F0EFF86DE00C2004F0C1FA002004F0A0FA022009F0EDFD01207E
:406A400004F09AFA97F824309BB2184609F0E4FD002004F091FA57E00C2004F061FA002004F040FA022009F0D7FD012004F03AFA97F824309BB2184609F0CEFD002004F0E9
:406A800031FA41E00C2004F06FF9002004F04EF9022009F0C1FD012004F048F997F824309BB2184609F0B8FD002004F03FF92BE00C2004F07DF8002004F05CF8022009F0CD
:406AC000ABFD012004F056F897F824309BB2184609F0A2FD002004F04DF815E00C2004F01FF8002004F002F8022009F095FD012003F0FCFF97F824309BB2184609F08CFD06
:406B0000002003F0F3FF00BFFAE197F82030072B00F2F88101A252F823F000BF3D6B00003D6B00003D6B00003D6B00003D6B00003D6B00003D6B00003D6B000000BFE1E1BA
:406B400097F82030062B00F2DF8101A252F823F06D6B00006D6B00006D6B00006D6B00006D6B00006D6B00006D6B000000BFCBE197F82030072B00F2C98101A252F823F013
:406B8000A16B0000CD6B0000F96B0000256C0000516C00007D6C0000A96C0000D56C00000C2004F0E3FA002004F0C4FA022009F033FD012004F0BEFA97F824309BB218462B
:406BC00009F02AFD002004F0B5FA99E00C2003F089FE002003F068FE022009F01DFD012003F062FE97F824309BB2184609F014FD002003F059FE83E00C2003F04BFD002085
:406C000003F02AFD022009F007FD012003F024FD97F824309BB2184609F0FEFC002003F01BFD6DE00C2003F07FFD002003F05EFD022009F0F1FC012003F058FD97F8243090
:406C40009BB2184609F0E8FC002003F04FFD57E00C2003F0B3FD002003F092FD022009F0DBFC012003F08CFD97F824309BB2184609F0D2FC002003F083FD41E00C2003F0CE
:406C8000E7FD002003F0C6FD022009F0C5FC012003F0C0FD97F824309BB2184609F0BCFC002003F0B7FD2BE00C2007F0D9FC002007F0B8FC022009F0AFFC012007F0B2FC0D
:406CC00097F824309BB2184609F0A6FC002007F0A9FC15E00C2007F009FD002007F0ECFC022009F099FC012007F0E6FC97F824309BB2184609F090FC002007F0DDFC00BF26
:406D000004E197F82030072B00F2028101A252F823F000BF356D0000356D0000356D0000356D0000356D0000356D0000356D0000356D000000BFEBE097F82030072B00F28C
:406D4000E98001A252F823F0696D0000956D0000C16D0000ED6D0000196E0000456E0000716E00009D6E00000C2003F0B3FF002003F094FF022009F04FFC012003F08EFFA8
:406D800097F824309BB2184609F046FC002003F085FF99E00C2008F0F9F9002008F0D8F9022009F039FC012008F0D2F997F824309BB2184609F030FC002008F0C9F983E0D7
:406DC0000C2004F01BF8002003F0FAFF022009F023FC012003F0F4FF97F824309BB2184609F01AFC002003F0EBFF6DE00C2004F02BF9002004F00AF9022009F00DFC01208C
:406E000004F004F997F824309BB2184609F004FC002004F0FBF857E00C2004F05FF9002004F03EF9022009F0F7FB012004F038F997F824309BB2184609F0EEFB002004F002
:406E40002FF941E00C2004F0DBF9002004F0BAF9022009F0E1FB012004F0B4F997F824309BB2184609F0D8FB002004F0ABF92BE00C2003F081FD002003F060FD022009F010
:406E8000CBFB012003F05AFD97F824309BB2184609F0C2FB002003F051FD15E00C2003F0B1FD002003F094FD022009F0B5FB012003F08EFD97F824309BB2184609F0ACFBFE
:406EC000002003F085FD00BF24E097F82030072B22D801A252F823F0F96E0000F96E0000F96E0000F96E0000F96E0000F96E0000F96E0000F96E000000BF0DE000BF0CE0A0
:406F000000BF0AE000BF08E000BF06E000BF04E000BF02E000BF00E000BFBB790F2B00F2A68601A252F823F0696F00006F7C00009F6F00008F730000C3730000F3730000BF
:406F4000DB7700006F7C00006F7C00006F7C00006F7C00006F7C00000D7800006F7C00006F7C0000157C00007B79072B00F26A8601A252F823F000BF996F0000996F000065
:406F8000996F0000996F0000996F0000996F0000996F0000996F000000BF00F053BE7B79072B00F2518601A252F823F0CD6F000041700000B5700000297100009D71000038
:406FC000117200008572000017730000002008F0AFF8022003F05AFF07E0B24B1B78DBB203F01003002B00D006E008F057F80346DBB25BB2002BF0DA012008F099F801208B
:4070000009F00AFB002008F093F811E0A54B1B78DBB203F01003002B0AD108F04BF803461C4608F075F80346E31A0233FB6006E008F034F80346DBB25BB2002BE6DAA4E124
:40704000002008F075F8022003F024FD07E0964B1B78DBB203F01003002B00D006E008F01DF80346DBB25BB2002BF0DA012008F05FF8012009F0D0FA002008F059F811E0F3
:40708000894B1B78DBB203F01003002B0AD108F011F803461C4608F03BF80346E31A0233FB6006E007F0FAFF0346DBB25BB2002BE6DA6AE1002008F03BF8022003F0C2FD15
:4070C00007E07A4B1B78DBB203F01003002B00D006E007F0E3FF0346DBB25BB2002BF0DA012008F025F8012009F096FA002008F01FF811E06D4B1B78DBB203F01003002B23
:407100000AD107F0D7FF03461C4608F001F80346E31A0233FB6006E007F0C0FF0346DBB25BB2002BE6DA30E1002008F001F8022003F040FF07E05E4B1B78DBB203F010039F
:40714000002B00D006E007F0A9FF0346DBB25BB2002BF0DA012007F0EBFF012009F05CFA002007F0E5FF11E0514B1B78DBB203F01003002B0AD107F09DFF03461C4607F05C
:40718000C7FF0346E31A0233FB6006E007F086FF0346DBB25BB2002BE6DAF6E0002007F0C7FF022003F0BCFE07E0424B1B78DBB203F01003002B00D006E007F06FFF034658
:4071C000DBB25BB2002BF0DA012007F0B1FF012009F022FA002007F0ABFF11E0354B1B78DBB203F01003002B0AD107F063FF03461C4607F08DFF0346E31A0233FB6006E061
:4072000007F04CFF0346DBB25BB2002BE6DABCE0002007F08DFF022003F0A6FD07E0264B1B78DBB203F01003002B00D006E007F035FF0346DBB25BB2002BF0DA012007F0CD
