:400000000080002011000000BD000000BD00000080B500AF064B064A126842F020021A60044B054A12681A6000F040FB00F04AF8E8460040BC760040FA46004010B5054C63
:40004000237833B9044B13B10448AFF300800123237010BD2881FF1F00000000E43A000008B5064B1BB106480649AFF300800648036813B1054B03B1984708BD0000000051
:40008000E43A00002C81FF1F0881FF1F0000000080B500AF01F0F0FB0346002B06D0064B1B78DBB203F0C003402B02D1024B40221A7000F0A5FAFEE7FA46004080B400AF31
:4000C000FEE700BF80B586B000AF224B7B61224B3B61204B7B6135E03B691B68FB603B695B68BB603B699B683B6000237B600CE0FB681A68BB681A60BB680433BB60FB680A
:400100000433FB607B6804337B607A683B689A42EED13B69DB683B6000237B6008E0BB6800221A60BB680433BB607B6804337B607A683B689A42F2D13B6910333B617B69FC
:40014000013B7B617B69002BC6D103F08FFCFFF79FFFFEE7010000004C3D000080B582B000AF174B174A1A60174B174A126842F400721A6000237B600FE07B68032B04D8B4
:40018000124B7A6853F8223000E0114B114A796842F821307B6801337B607B682F2BECD90D4B1B78DAB20D4B1A700D4B094A1A6000F014F90B4B00221A600837BD4680BD80
:4001C0000CED00E00004FA0514ED00E000000000BD0000000080FF1FBC7600400481FF1F08ED00E00081FF1F80B582B000AF78603960786800213A6803F067FC0837BD469C
:4002000080BD00BF80B584B000AFF860B9607A60F868B9687A6803F04FFC1037BD4680BD80B584B000AFF860B9607A60F868B9687A6803F041FC1037BD4680BD80B483B053
:4002400000AF0346FB71FEE780B487B000AF7860396000233B6100237B6126E07B699B007A6813441B68BB60BB68FB73BB6823F0FF03BB6013E03B695B003A6813441B782E
:400280001A46BB6813443A69520039680A4452781A703B6901333B61FB7B013BFB73FB7B002BE8D17B6901337B617B690F2BD5D91C37BD465DF8047B704700BF80B582B077
:4002C00000AF294B06221A70284B52221A70284B284A1278D2B21A70274B4FF4E1621A80264B41F251221A800023FB7019237B6014E0FB785B00DAB2214B1B78DBB203F086
:400300000103DBB21343DBB203F00303FB704FF4F07000F099FE7B68013B7B607B68002B02D0FB78032BE4D17B68002B02D10320FFF784FF134B4FF480721A80114B07225C
:400340001A70114B00221A70104B48221A700D4B00221A700E4B00221A700E4B02221A700837BD4680BD00BF0043004000420040A14600400F010049224200402042004083
:4003800025420040044000400640004008400040094000400140004080B483B000AF0B4B1B78FB710A4BFA7902F00702D2B21A70084BFA791209D2B21A70074B44221A708D
:4003C0000C37BD465DF8047B704700BFCF0100496E5800406F5800407658004080B582B000AF72B6374B374A1278D2B242F02002D2B21A700023FB7113E0FA7913465B00DF
:4004000013445B00304A13443B603B681A683B689B889BB210461946FFF7E6FEFB790133FB71FB79062BE8D928482949FFF70CFF284B284A1278D2B242F00202D2B21A7043
:40044000254B254A1278D2B242F00202D2B21A70224B224A1278D2B242F04002D2B21A701F4B1F4A1278D2B242F01002D2B21A701C481D490A22FFF7D3FE1C481C490A22FD
:40048000FFF7CEFE1B481C490A22FFF7C9FE1B4B1A4A1278D2B242F00802D2B21A70184B01221A70FFF70AFF154B81221A70FFF773FF144809490E22FFF7A4FE0837BD46EB
:4004C00080BD00BFE8460040E83A0000143B0000543B00000350014013500140A0430040C2430040C05100409C3B0000F0510040A83B000040510040B43B00002243004001
:4005000000480040B043004080B485B000AF78600B467B804FF6FF73FB817B883B817B88002B03D1FB89DB43FB8136E03A897B88D31A7A6813441B78BB810023FB7216E05B
:40054000FA89BB89534003F00103002B06D0FB895B089AB2144B5340FB8102E0FB895B08FB81BB895B08BB81FB7A0133FB72FB7A072BE5D97B88013B7B807B88002BD5D1D7
:40058000FB89DB43FB81FB89BB81FB891B029AB2BB891B0A9BB21343FB81FB8918461437BD465DF8047B70470884FFFF80B586B000AFF860B9607A600023FB75FA680F4BEF
:4005C0009A4206D0FB68002B03D0002000F0C8FE0CE00BE07B68013B7B60FA68BB681A447B6813441A78FB7D1344FB757B68002BF0D1FB7D18461837BD4680BD008000405F
:4006000080B582B000AF06237B60002000F06EF80346002B01D100237B601C4B1B681B68002000211A46FFF7C1FF0346FB70184B1B681B78FA78D31AFB70FB785B42FB70B0
:40064000134B1B681B78FA789A4204D10F4B1B681B68002B02D1002000F082FE0D4B1B78DBB203F0C003402B02D07B68002B05D0084B00221A70002000F0AEF8012000F0E1
:40068000ABF800F009F80837BD4680BD1081FF1F0C81FF1FFA46004080B500AF024B80221A7000F069FE80BDFA46004080B500AF0C4B1B78DBB203F0C003802B11D1094BEA
:4006C00000221A700220002100F0DCFB0346002B07D00220002100F0D5FB0346184600F003F880BDFA460040004700BF90B587B000AF0346FB71FB790320194600F0C2FB1E
:40070000034601331C02FB790420194600F0BAFB03462344FB600023FB740023BB74FB790320194600F0AEFB034601331B027B6111E07B691B78FB72FB7A002B04D0FB7AD0
:40074000FF2B01D00123FB74BA7CFB7A1344BB747B6901337B617A69FB689A42E9D3FB790320194600F08EFB034601331B02DB087B61FA68174B9A4202D0FB68DB0801E087
:400780004FF40043FB600AE07B6903F190431B78DAB2BB7C1344BB747B6901337B617A69FB689A42F0D3BB7C5B42BB74BC7CFB790120194600F066FB03469C4202D1FB7C1D
:4007C000002B01D1062300E0002318461C37BD4690BD00BFC0FF030080B5ADF5247D00AF0246FB1D1A700023A7F88A320023A7F888320A2387F88732002387F8863200F094
:40080000ADFC0346002B02D0002000F0A9FD01F041F862B6002387F88D32FB1D1B78002B02D0FB1D1B7800E0FF2307F59E7107F26A2208464FF4967101F078F8C7F8780259
:40084000FB1D1B78002B04D097F88732013B87F8873297F88732002B03D0D7F87832002BDBD1D7F87832002B00D0B0E2B7F86A32062B04D907F59E731B78012B03D0042357
:4008800087F88D3244E007F59E73DB781B029AB207F59E739B781343A7F88A32B7F88A32053307F59E72D35C1B029AB2B7F88A32043307F59E71CB5C1343A7F87632B7F8D5
:4008C0008A32DA1DB7F86A329A4203D9032387F88D321DE0B7F88A32063307F59E72D35C172B03D0042387F88D3211E0B7F88A3204339BB207F59E7210461946FFF704FEEF
:400900000346B7F876229A4202D0082387F88D320023A7F88E3297F88D32002B40F04C8207F59E731B7987F87532042387F88D3207F59E735B78313B0A2B00F2398201A21A
:4009400052F823F071090000AB090000B10D0000450A0000B70B0000B10D0000C90B00001F0C0000450A0000630C0000990D000097F88632012B17D1B7F88A32002B13D127
:400980000020FFF7B3FE0346002B14BF00230123DBB21A4607F59E731A710123A7F88E32002387F88D3207E206E297F88632012B47D1B7F88A32012B43D197F87532032B0E
:4009C0003FD8D14B1B681B681B0C87F8743297F8752297F874329A4208D1CB4B1B681B681B0A9BB2DBB2A7F884320DE097F8752297F874329A4203D90023A7F8843203E097
:400A00004FF48073A7F88432B7F88432DAB207F59E731A71B7F884321B0A9BB2DAB207F59E735A7107F59E73FF229A7107F59E730022DA710423A7F88E32002387F88D32CD
:400A4000BAE1B9E107F59E735B78342B23D197F88632012B40F0B081B7F88A32032B40F0AB8197F875323F2B08D997F875325BB2002B03DB1023A7F8883203E04FF49073C3
:400A8000A7F88832B7F8883207F11002104600211A4603F01AF897F88632012B40F08A80B7F88A32022B40F28580B7F8883207F11002D118B7F88A32033B07F59E720732C8
:400AC000084611461A4602F0F7FFB7F88822B7F88A3213449BB2033BA7F8883297F875323F2B0AD997F875325BB2002B05DB00F0F1FB1023A7F88A3203E04FF49073A7F807
:400B00008A32B7F88822B7F88A329A424BD107F59E739B791B029AB207F59E735B791343A7F8883297F875323F2B27D897F875329BB21B029AB2B7F888321344A7F8723295
:400B4000714B1B681B681B0AA7F882326E4B1B681B68DBB2002B04D0B7F882320133A7F88232B7F87222B7F882329A4206D20A2387F88D320023A7F888321DE197F87502C1
:400B8000B7F8881207F11002B7F88A3200F0F8FA0346002B01D00A2300E0002387F88D3200F02EFC02E0032387F88D320023A7F8883201E100E197F88632012B03D10023D9
:400BC000A7F8883203E1F7E097F88632012B25D1B7F88822B7F88A321344B3F5967F19D8002387F88D32B7F8883207F11002D118B7F88A3207F59E720432084611461A4640
:400C000002F05AFFB7F88822B7F88A321344A7F8883203E0032387F88D32CDE0CCE0B7F88A32002B1CD107F10803384A92E8030083E80300012387F886320823A7F88E327D
:400C4000B7F88E3207F59E72111D07F10802084611461A4602F030FF002387F88D32ABE0AAE097F88632012B40F09580B7F88A32032B40F0908007F59E739B791B029AB212
:400C800007F59E735B791343A7F8703297F875323F2B13D997F875325BB2002B0EDBB7F870321B01C7F86C321948D7F86C121022FFF77CFC034687F8813212E097F875321E
:400CC0001A02B7F8703213441B02C7F86C320020D7F86C124FF48072FFF768FC034687F8813297F875323F2B29D897F8753203F510331A02B7F8703213445B01C7F86C32B0
:400D00000023A7F87E3216E01081FF1FC03B000000800040B7F87E22D7F86C3213441B78DAB297F88132134487F88132B7F87E320133A7F87E32B7F87E321F2BEAD997F807
:400D40007532032B19D1B7F87032FF2B15D10520002100F097F80346DBB297F88122D31A87F881320620002100F08CF80346DBB297F88122D31A87F8813297F881325B42A6
:400D8000DAB207F59E731A71002387F88D320123A7F88E3210E00FE00020FFF7A7FC0346002B02D1114B80221A7000F0E5FA03E0052387F88D3200BF97F88D1207F59E72B3
:400DC000B7F88E32084611461A4600F011F8FB1D1B78002B3FF41EAD97F88632012B3FF419AD07F52477BD4680BD00BFFA46004080B584B000AF396013460246FA71BB8038
:400E00003B6801221A703B680133FA791A703B680233BA88D2B21A703B680333BA88120A92B2D2B21A70BB8804339BB238681946FFF76AFB0346FB81BB8804333A68134484
:400E4000FA89D2B21A70BB8805333A681344FA89120A92B2D2B21A70BB8806333A68134417221A70BB8807339AB23B1D386811461A46962300F022FD034618461037BD4613
:400E800080BD00BF80B586B000AF02460B46FA71BB710223FB740023FB60FB79013B092B00F2928001A252F823F000BFD50E0000EF0E0000090F00001F0F0000390F0000C5
:400EC000530F0000830F00006D0F0000990F0000AF0F0000BA7913461B069B1A1B0203F57F3303F570737B610123FB7472E0BA7913461B069B1A1B0203F57F3303F2C13345
:400F00007B610423FB7465E0BA7913461B069B1A1B0203F57F3303F2C5337B615AE0BA7913461B069B1A1B0203F57F3303F2C9337B610423FB744DE0BA7913461B069B1AB3
:400F40001B0203F57F3303F574737B610123FB7440E0BA7913461B069B1A1B0203F57F3303F2D1337B610123FB7433E0BA7913461B069B1A1B0203F57F3303F2D6337B6195
:400F800028E0BA7913461B069B1A1B0203F57F3303F2D2337B611DE0BA7913461B069B1A1B0203F57F3303F575737B6112E0BA7913461B069B1A1B0203F57F3303F576734C
:400FC0007B610423FB7405E0002000F0C9F900237B6100BFFB7C012B03D17B691B78DBB2FB60FB7C022B0BD17B691B78DBB2FB607B6901331B78DBB21B02FA681343FB60ED
:40100000FB7C042B1BD17B691B78DBB2FB607B6901331B78DBB21B02FA681343FB607B6902331B78DBB21B04FA681343FB607B6903331B78DBB21B06FA681343FB60FB681B
:4010400018461837BD4680BD0230800800F0058000BF013800467FF4FCAF7047EFF3108072B6704780F31088704700BFAFF3008080B582B000AF00F039FA4FF0FF337B60C8
:4010800000F07AFB0346002B24D1012000F042FB0346072B1BD11348022100F049FA0346022B0DD100237B6002E0012000F096F90D4B1B78DBB203F00203002BF5D006E0E2
:4010C000094B1B78DBB203F00203002BE3D000F087FB01E004237B607B6818460837BD4680BD00BF5481FF1F2247004080B582B000AF00F0FBF900F03FFB0346002B23D1AA
:4011000000F096FB78607B68072B1AD102E0012000F064F9104B1B78DBB203F00203002BF5D00D4B1B78DBB203F00203002B08D0094B1B78DBB29B08DBB2002B01D100236C
:401140007B6000F04DFB01E004237B607B6818460837BD4680BD00BF2247004080B582B000AFFFF7C3FF78607B68002B02D1FFF77FFF78607B6818460837BD4680BD00BFFF
:4011800080B586B000AFBA600246FA730A46BA81FB8000237B61FB7B3F2B04D8FB7B042B01D901237B61FB7B5BB2002B01DA01237B61FB7B3F2B04D9FB7B412B01D90123E0
:4011C0007B61FB7B3F2B06D8BB89B3F5807F0CD901237B6109E0BB89802B01D901237B61FB88102B01D001237B61BB68002B01D101237B617B69002B62D100F0BDFA0346F2
:40120000002B5BD1F97BBA89FB8808461146BA6800F0BAF978617B69072B4CD102E0012000F0DCF8294B1B78DBB203F00203002BF5D0264B1B78DBB203F00203002B09D0D7
:40124000224B1B78DBB29B08DBB2002B02D100237B6102E04FF0FF337B617B69002B2AD11B4B1A781A4B5B78F87BB98900F00EFA78617B69072B1ED102E0012000F0AEF827
:40128000124B1B78DBB203F00203002BF5D00F4B1B78DBB203F00203002B09D00B4B1B78DBB29B08DBB2002B02D100237B6102E04FF0FF337B6100F093FA01E004237B6120
:4012C0007B6918461837BD4680BD00BF224700405481FF1F80B582B000AFFFF7BFFE0346FB71194B184A1278D2B242F00802D2B21A70164B154A1278D2B242F00802D2B298
:401300001A70134BC8221A70124B124A1278D2B242F01002D2B21A700F4B0F4A1278D2B242F01002D2B21A7000BF0C4B1B78DBB203F02003002BF8D0FB791846FFF792FE8E
:401340000837BD4680BD00BFA0430040B043004001470040AC430040BC4300400047004080B483B000AF0346FB7101BE0C37BD465DF8047B704700BF80B400AF054B054AC0
:401380001278D2B242F00102D2B21A70BD465DF8047B7047F646004080B582B000AF786008E00C4B1B681846FFF74EFE7B68A3F500437B607B68B3F5004FF2D8064B1B6871
:4013C0007A6802FB03F31846FFF73EFE0837BD4680BD00BF2081FF1F1881FF1F80B582B000AF0346FB80FB88044A127802FB03F31846FFF729FE0837BD4680BD1C81FF1FF7
:4014000080B582B000AFFFF729FE0346FB7100BF00BF00BF00BF00BF00BF00BF00BF00BF00BF00BF00BF00BF00BF00BF00BF094B084A128892B242F0040292B21A80054BEA
:401440001B88BFF36F8FFB791846FFF70BFE0837BD4680BD0048004080B584B000AF03463960FB710F4B1B68FB60FB791F2B02D90020FFF775FFFB7903F01F0310339B0019
:40148000FA6813441B68BB60FB7903F01F0310339B00FA6813443A681A60BB6818461037BD4680BD08ED00E080B582B000AF02460B46FA71BB71BB79072B02D90020FFF71F
:4014C0004FFFFB791F2B02D90020FFF749FFFB7903F01F0303F1604303F56443BA795201D2B21A700837BD4680BD00BF80B582B000AFFFF7B3FD0346FB710B4B0A4A127871
:40150000D2B242F00802D2B21A70084B074A1278D2B242F00802D2B21A70FB791846FFF7A1FD0837BD4680BDA0430040B043004080B584B000AF78600B46FB700023FB7369
:4015400014E002E00120FFF749FF0D4B1B78DBB203F00103002BF5D0FB7B7A681344094A1278D2B21A70FB7B0133FB73FA7BFB789A42E6D3FB7B18461037BD4680BD00BF8E
:40158000224700402047004080B489B000AFBA600246FA730A46BA81FB800723FB61394B1B78DBB203F00203002B61D0364BB6221A70354BD5221A70334B02221A70314BE0
:4015C0001B78DBB203F00203002B4ED12E4BFA7B1A70FB88202B18D1FB7B3F2B15D8FB7B1A02BB8913441B027B6100237B8309E0254B798B7A690A441278D2B21A707B8B1A
:4016000001337B837B8BFF2BF2D900237B8308E01D4B7A8BB9680A4412781A707B8B01337B837A8BFB889A42F2D3FB88B3F5807F20D1FB7B3F2B1DD8FB7B03F510331A0266
:40164000BB8913445B017B6100237B8309E00E4B798B7A690A441278D2B21A707B8B01337B837B8B1F2BF2D904E00923FB6101E00423FB61FB6918462437BD465DF8047B50
:40168000704700BF224700402047004080B485B000AFF871B980BA71FB700723FB601B4B1B78DBB203F00203002B26D0184BB6221A70174BD8221A70154B05221A70134BD6
:4016C0001B78DBB203F00203002B13D1104BFA791A700F4BBA88120A92B2D2B21A700C4BBA88D2B21A700A4BBA791A70084BFA781A7004E00923FB6001E00423FB60FB6828
:4017000018461437BD465DF8047B7047224700402047004080B485B000AF0346FB710723FB60134B1B78DBB203F00203002B16D0104BB6221A700F4BE1221A700D4B0E221D
:401740001A700B4B1B78DBB203F00203002B03D1084BFA791A7004E00923FB6001E00423FB60FB6818461437BD465DF8047B7047224700402047004080B582B000AF04232D
:401780007B60FFF76BFC0346FB70124B1B78002B16D1104B01221A7000237B600E4B1B6803F00103002B0BD00B4B0B4A126822F001021A6000BF00BF00BF084B01221A607B
:4017C000FB781846FFF74EFC7B6818460837BD4680BD00BF4481FF1F040008404881FF1F80B582B000AFFFF739FC0346FB710D4B00221A700C4B1B68012B0BD10B4B0B4ABC
:40180000126842F001021A6000BF00BF00BF064B00221A60FB791846FFF724FC0837BD4680BD00BF4481FF1F4881FF1F0400084080B483B000AF07237B600D4B1B78DBB286
:4018400003F00203002B09D00A4BB6221A70094BE0221A70074B0D221A7001E004237B607B6818460C37BD465DF8047B704700BF224700402047004080B400AF044B1B7801
:40188000DBB2DB09DBB21846BD465DF8047B70474151004080B500AF62B60020022100F0BBF8024B01221A7080BD00BF4C81FF1F80B500AF012000F07DFB80BD80B586B094
:4018C00000AFF8607A600A467A817B727B7A9BB21A46920013445B007B820220F968402200F09EFA05E00120FFF756FD7B8A013B7B82022000F04AFA0346002B02D17B8A50
:40190000002BF0D1022000F041FA0346002B02D110237B6104E07B687A891A8000237B617B6918461837BD4680BD00BF80B586B000AFF8607A600A467A817B727B7A9BB25F
:401940001A46920013445B007B827B89402B01D940237B812F4B1B78002B1BD005E00120FFF71AFD7B8A013B7B8200F0E9F90346002B02D17B8A002BF1D100F0E1F903468C
:40198000002B13D000F0E8F9FFF792FF214B00221A700BE000F0E0F90346002B06D000F0CFF90346002B01D0FFF782FF7B7A9BB21A46920013445B007B8205E00120FFF758
:4019C000EBFC7B8A013B7B82012000F0DFF90346012B02D07B8A002BF0D1012000F0D6F90346012B0CD17B890120F9681A4600F09BFA03461A467B681A8000237B6104E0FB
:401A00007B6800221A8010237B617B6918461837BD4680BD4C81FF1F80B582B000AF02460B46FA71BB71094B1B78002B04D100F00FF8064B01221A70FA79BB7910461946BE
:401A400000F0C2F80837BD4680BD00BF4D81FF1F80B582B000AFFFF701FB0346FB714B4B4A4A1278D2B242F00102D2B21A70484B474A1278D2B242F00102D2B21A70454B55
:401A800001221A70444B02221A70444B434A1278D2B202F07F02D2B21A700020FFF79EFC3F4B3F4A1278D2B222F00602D2B21A703C4B3C4A1278D2B222F02002D2B21A703B
:401AC000374B374A1278D2B242F00102D2B21A700120FFF783FC2820FFF780FC324B324A1278D2B202F07F02D2B21A702E4B2E4A1278D2B222F04002D2B21A70284B284A74
:401B00001278D2B242F00202D2B21A700220FFF765FC234B224A1278D2B242F00402D2B21A70224B00221A70214B00221A70FB791846FFF797FA17201E49FFF78DFC1720CE
:401B40000721FFF7B1FC15201B49FFF785FC15200721FFF7A9FC18201849FFF77DFC18200721FFF7A1FC00201549FFF775FC00200721FFF799FC01201249FFF76DFC0120E3
:401B80000721FFF791FC0837BD4680BDA5430040B54300409D60004009600040106000409443004012600040F85100408460004085600040F5260000E9260000152000000B
:401BC000412600009526000080B584B000AF02460B46FA71BB710023FB7306E0FB7B284A0121D154FB7B0133FB73FB7B002BF5D0244B4FF400021A60224B4FF080721A6011
:401C0000204B01221A601F4B02221A601E4B00221A70BB79002B02D0012B04D007E01B4B02221A7007E0194B03221A7003E0174B03221A7000BF164BFA791A70154B0022C6
:401C40001A70154B00221A70144B00221A70144B00221A70134B00221A70134B00221A70124B03221A70124B80221A700120FFF7EBF9104B04221A701037BD4680BD00BFC3
:401C8000F881FF1F00E100E07281FF1F096000406C81FF1F7181FF1F6D81FF1F7081FF1F5881FF1F6F81FF1FE981FF1F28600040086000401260004080B483B000AF0023F4
:401CC000FB7106E0FB79144A0121D154FB790133FB71FB79002BF5D0104B00221A70104B00221A700F4B00221A700F4B00221A700E4B00221A700E4B00221A700D4B002263
:401D00001A700D4B03221A700C4B80221A700C37BD465DF8047B7047F881FF1F7281FF1F7181FF1F6D81FF1F7081FF1F5881FF1F6F81FF1FE981FF1F2860004008600040EE
:401D400080B400AF034B1B78DBB21846BD465DF8047B70477181FF1F80B483B000AF0023FB71094B1B78DBB2002B05D0064B1B78FB71054B00221A70FB7918460C37BD4699
:401D80005DF8047B704700BF7081FF1F80B483B000AF0346FB71FA79064913465B0013449B000B445B78DBB218460C37BD465DF8047B70477C81FF1F80B485B000AF03463D
:401DC000FB710023FB81FB79002B1DD0FB79082B1AD8FB79013BDBB21B017B737A7B0E4B13441B78DBB203F00F03FB81FB891B029AB2797B094B0B441B78DBB213439BB2DF
:401E0000FB81FB89023BFB81FB8918461437BD465DF8047B704700BF0C6000400D60004090B484B000AF396013460246FA71BB80FB79002B69D0FB79082B66D8FB79013BA2
:401E4000DBB21B017B737A7B324B1344BB60B988FA79314813465B0013449B000344DB889BB2C3F5007399420BD9FA792A4913465B0013449B000B44DB889BB2C3F500737D
:401E8000BB807A7B254B13441946BB881B0A9BB2D8B2FA79204C13465B0013449B002344DB78DBB20343DBB20B707A7B1C4B1344BA88D2B21A703B68002B0FD00023FB8124
:401EC00008E0FB893A6813441A78BB681A70FB890133FB81FA89BB889A42F2D3FA790E4913465B0013449B000B4400225A707A7B0C4B13441946FA79074813465B00134429
:401F00009B0003445B79DBB20B701037BD4690BC704700BF886000407C81FF1F0C6000400D6000400E60004080B586B000AF396013460246FA71BB80FB79002B30D0FB7980
:401F4000082B2DD83B68002B2AD0FB79013BDBB21B017B757A7D164B13443B61FB791846FFF72AFF0346FB81BA88FB899A4201D9FB89BB800023FB8209E0FB8A3A681344D5
:401F80003A691278D2B21A70FB8A0133FB82FA8ABB889A42F1D3FB79184600F00BF801E00023BB80BB8818461837BD4680BD00BF8860004080B485B000AF0346FB71FB79ED
:401FC000002B1ED0FB79082B1BD8FB79013BDBB21B01FB73FA790D4913465B0013449B000B4400225A70FA7B094B13441946FA79064813465B0013449B0003445B79DBB22F
:402000000B701437BD465DF8047B70477C81FF1F0E60004080B582B000AF374B1B78BB71BB7903F01003002B63D00123FB71BB795BB2002B13DABB7903F00F03012B02D074
:402040000023FB711DE000F061F82C4B1B78DBB2DBB25BB2002B14DA0023FB7111E0BB7903F04003002B02D000F094F809E0BB7903F02003002B02D000F0B2F801E0002310
:40208000FB71FB79002B34D01B4B1B78BB71BB795BB2002B2DDB1A4B1B78DAB2194B1B78DBB21343BB71184BBA791A70164B1B78DBB2BA799A421CD1104B1B78FB710E4B9E
:4020C0001B78DBB223F07F03BB71BB79002B0AD1094B0A4A1278D2B21A70074B1B78DBB203F00F03FB71054B1B78DBB2FA799A42E2D10837BD4680BD286000405981FF1FF1
:402100006E81FF1FEA81FF1F2960004080B582B000AF1D4B1B78FB711B4BFA791A701A4B1B78FB71FB795BB2002B03DA174BFA791A7025E0022000F049FA154B1B78DBB23A
:4021400003F06003202B08D0402B0BD0002B0ED100F0B8FC0346FB710CE001F041FC0346FB7107E001F01EFC0346FB7102E00023FB7100BFFB79002B02D1044B03221A7027
:402180000837BD4680BD00BF286000405981FF1F0060004080B500AF104B1B78DBB2062B19D801A252F823F0D7210000D7210000C5210000D7210000CB210000D72100004E
:4021C000D121000000F0FCF806E000F0AFF903E000F0D8F900E000BF80BD00BF7281FF1F80B500AF124B1B78DBB2062B1DD801A252F823F02B2200002B22000011220000E7
:402200002B220000172200002B2200001D22000000F0DCF80AE000F02DF907E0032000F0D5F9044B03221A7000E000BF80BD00BF7281FF1F5981FF1F80B483B000AF002325
:40224000FB712B4B1B78DBB21A462A4B1B889BB213449AB2274B1A8018E0FB7903F1804303F5C043244A52681278D2B21A70224B5B685A1C204B5A60FB790133FB711E4BC2
:402280001B889BB2013B9AB21B4B1A801A4B1B889BB2002B02D0FB79072BDED9144B1B78DBB2082B02D0FB79002B0FD0134B1B78DBB283F07F03DB43DAB2104B1A70104B98
:4022C0000F221A700F4B02221A7005E00C4B02221A700C4B02221A70054BFA791A700A4BFA791A700C37BD465DF8047B704700BFE981FF1FEC81FF1F6081FF1F6E81FF1FDE
:402300005981FF1F7281FF1FEA81FF1F80B582B000AF154B1B889BB2002B02D100F02EF81DE0124B02221A70114B00221A7000F06DF9104B1B78DBB21B029AB20E4B1B785B
:40234000DBB213439BB2FB80074B1B889BB2FA889A4202D2044BFA881A80FFF76DFF012318460837BD4680BD6081FF1F7281FF1F6E81FF1F076000400660004080B400AF23
:402380000A4B02221A700A4B80221A70094B0F221A70094B00221A70084B00221A7001231846BD465DF8047B704700BF7281FF1F6E81FF1F5981FF1FE981FF1FEA81FF1F95
:4023C00080B500AFFFF738FF80BD00BF80B500AF0A4B1B78DBB21A46094B1B889BB213449AB2074B1A80074B00221A70012000F0EDF8054B03221A7080BD00BFE981FF1FCD
:40240000EC81FF1F7281FF1F5981FF1F80B582B000AF124B04221A70114B80221A7000F0F5F8104B1B78DBB21B029AB20E4B1B78DBB213439BB2FB800C4B1B889BB2FA883C
:402440009A4202D2094BFA881A80094B0B221A70012318460837BD4680BD00BF7281FF1F6E81FF1F07600040066000406081FF1F5981FF1F80B483B000AF0023BB71254B3A
:402480001B78DBB203F00F03DBB2023BFB71FB799AB2214B1B889BB213449AB21E4B1A801BE01E4B5A68BB7903F1804303F5C0431B78DBB21370194B5B685A1C174B5A6097
:4024C000BB790133BB71FB79013BFB71134B1B889BB2013B9AB2114B1A80104B1B889BB2002B02D0FB79002BDBD10D4BFA791A700C4B1B78DBB283F07F03DB43DAB2094B0E
:402500001A70094B0B221A700C37BD465DF8047B704700BF29600040EC81FF1F6081FF1FEA81FF1F6E81FF1F5981FF1F80B500AF044B00221A70012000F048F8024B0322F3
:402540001A7080BD7281FF1F5981FF1F80B400AF084B06221A70084B06221A70074B80221A70074B00221A7001231846BD465DF8047B70477281FF1F5981FF1F6E81FF1FFC
:40258000EA81FF1F80B500AF0C4B1B78DBB2002B0AD00B4B094A1278D2B262F07F02D2B21A70064B00221A70064B00221A70012000F00CF8044B03221A7080BD5881FF1F59
:4025C000086000407281FF1F5981FF1F80B483B000AF0346FB710B4B9B68002B0CD0094B9B68FA791A70074B9B68074A128892B25A80044B00229A600C37BD465DF8047BC8
:40260000704700BF6081FF1FEC81FF1F80B400AF094B00221A80094B9B68002B07D0074B9B6800221A70054B9B6800225A80BD465DF8047B704700BFEC81FF1F6081FF1F27
:4026400080B400AF104B1B78104B1B7BDBB203F00303012B08D00D4BDB7BDBB283F07F03DB43DAB2094BDA73084B01225A73084B074A1278D2B222F00102D2B21A70BD4678
:402680005DF8047B704700BF0E6000407C81FF1F0B60004080B400AF104B1B78104B1B7EDBB203F00303012B08D00D4BDB7EDBB283F07F03DB43DAB2094BDA76084B012216
:4026C0005A76084B074A1278D2B222F00202D2B21A70BD465DF8047B704700BF1E6000407C81FF1F0B60004080B400AFBD465DF8047B704780B500AFFFF7DEFA80BD00BF44
:4027000080B582B000AF0023FB716F4B1B78BB716E4B1B78DBB2DBB25BB2002B6DDA6C4B1B78DBB2013B052B65D801A252F823F08F270000A9270000D5270000F727000076
:40274000F727000049270000624B1B78DBB2212B0BD100F0CBF8604B1B889BB2002B15D0FFF7D4FD0346FB7146E05A4B1B78DBB2222B0BD100F0F8F8574B1B889BB2002B4B
:4027800004D0FFF7C3FD0346FB7135E034E000F031F9514B1B889BB2002B04D0FFF7B6FD0346FB7128E027E0BB79002B11D14B4B1B78DBB2002B0CD1474B01221A80BA791E
:4027C000474B1A44444B5A60FFF7A0FD0346FB7112E011E0BB79002B0CD13F4B01221A80BA79404B1A443C4B5A60FFF78FFD0346FB7101E000E000BF61E0344B1B78DBB2FE
:40280000DBB25BB2002B5ADB314B1B78DBB20A2B11D00B2B3FD0092B00D050E000F0EAF82D4B1B889BB2002B04D0FFF7EFFD0346FB7144E043E0BB79002B2BD1274B1B78FC
:40284000DBB2002B26D1BB79224A1278D1B2244AD154BB79224AD35CDAB2BB792249CB5CDBB29A4204D2BB791F4A0021D1540CE0BB791D4AD35CDBB2012B06D9BB79BA7971
:4028800017498A5CD1B2184AD154FFF75FFE0346FB7114E013E0BB79002B0FD10F4B1B78DBB2012B0AD8BB790C4A1278D1B20D4AD154FFF74BFE0346FB71FFE700BFFB79F2
:4028C00018460837BD4680BD046000400060004001600040036000406081FF1F02600040F081FF1FF881FF1FF481FF1F80B584B000AF194B1B78DBB2013BDBB2184600F066
:40290000A1FEF860154B1B78FB72FB7A0233DB00FA681344FB60FB685B68FB60FB7A104AD35CDBB2DB00FA681344FB60FB685B68FB60FB682033FB60FB685B687B607B6836
:402940001B78DBB21A46074B1A80064B7A685A601037BD4680BD00BF7181FF1F046000405C81FF1F6081FF1F80B584B000AF1D4B1B78DBB2013BDBB2184600F063FEF8609A
:40298000194B1B78FB72FB7A0233DB00FA681344FB60FB685B68FB60FB7A144AD35CDBB2DB00FA681344FB60FB685B68FB60FB681833FB60FB685B687B607B6801331B78E6
:4029C000DBB21B029AB27B681B78DBB213439BB29AB2074B1A807B689A1C054B5A601037BD4680BD7181FF1F046000405C81FF1F6081FF1F80B584B000AF2C4B00221A80E0
:402A00002B4B1B78DBB2013BDBB2184600F01AFEF860284B1B78FB72274B1B78BB72BB7A0233DB00FA681344FB60FB685B68FB60BB7A002B37D1BB7A204AD35CDBB2DB005C
:402A4000FA681344FB60FB685B68FB60FB7A002B29D0FB7A032B26D8FB7A03F10053013BDB00FA681344FB60154B1B78FB72FB681B78FA7A9A4216D8FB685B687B60FA7A97
:402A800013465B0013449B007A6813447B607B685A68064B5A607B681A88044B1A807B689A68024B9A601037BD4680BD6081FF1F7181FF1F03600040046000405C81FF1F3A
:402AC0000260004080B586B000AF0023FB7500233B61984B00221A80974B1B78DBB2DBB25BB2002B80F2FB80944B1B78DBB20A2B00F2F38001A252F823F000BF2F2C0000C2
:402B0000DB2C0000DB2C0000DB2C0000DB2C0000DB2C0000292B0000DB2C0000A52C0000DB2C0000BB2C0000854B1B78DBB2012B0ED100F0B1FDB860BB685A687D4B5A6040
:402B40007C4B12221A80FFF7E1FB0346FB756DE07B4B1B78DBB2022B23D17A4B1B78DBB2184600F06FFDB860BB68002B5ED0BB685A68704B5A606F4B5B6803331B78DBB281
:402B80001B029AB26B4B5B6802331B78DBB213439BB29AB2674B1A80FFF7B8FB0346FB759CE0674B1B78DBB2032B3AD10023FB73654B3B6109E03B691B78FB71FB793A693A
:402BC00013443B61FB7B0133FB735E4B1B78DBB2FA7B9A4204D23B691B78DBB2002BEAD1584B1B78DBB2002B08D0564B1B78DAB2564B1B7C9A4201D1554B3B613B691B7851
:402C0000DBB2002B12D03B691B78DBB21A46494B1A80484B3A695A60FFF778FB0346FB755CE000F0DDFE0346FB7557E056E0424B1B78DBB203F00303002B1FD0022B00D0AC
:402C40002FE03C4B02221A80424B1B78DBB203F07F02414913465B0013449B000B449B78DAB23E4B1A703D4B00225A70314B3B4A5A60FFF74BFB0346FB7512E02D4B0222FC
:402C80001A80374B1B78DAB2344B1A70334B00225A70284B314A5A60FFF738FB0346FB7500BF1BE0234B01221A80224B2D4A5A60FFF72CFB0346FB7510E01E4B01221A806D
:402CC000244B1B78DBB21A46274B1A44194B5A60FFF71CFB0346FB7500E000BF1DE1174B1B78DBB2013B0A2B00F2168101A252F823F000BF012E0000192F00008D2E000027
:402D0000192F0000212D0000192F0000192F0000192F0000712D0000192F0000C72D0000084B1B78DAB2114B1A70FFF70FFC0346FB75F2E06081FF1F006000400160004027
:402D40000360004002600040083C0000C83B0000603C0000046000407C81FF1F5081FF1F6F81FF1F7181FF1F5C81FF1F5881FF1F6C4B1B78BB71BB79002B06D0BB79013B52
:402D8000DBB2184600F05EFCB860BB79002B02D0BB68002B02D1BB79002B13D1624B1B78DBB2BA799A4208D05F4BBA791A705F4B01221A70012000F089F9FFF7C7FB03462B
:402DC000FB75AAE0A9E000F0B1FD0346002B16D0574B1B787B71574B7A791A70534B01221A7000F0F5FA7B797A7953498A5CD1B2524AD154FFF7AAFB0346FB758DE08CE014
:402E00004F4B1B78DBB203F00303012B22D0012B0DD3022B00D038E0424B1B78DBB2002B04D100F0E1FC0346FB752EE02DE03D4B1B78DBB2012B0CD1424B1B78DBB223F0E1
:402E40000203DAB23F4B1A70FFF780FB0346FB751BE01AE0364B1B78DBB2002B14D1344B1B78DBB21A463849CB5CD9B22D4B1B78DBB2DB43DBB20B40D9B2334B9954FFF731
:402E800065FB0346FB75FFE700BF46E02C4B1B78DBB203F00303012B22D0012B0DD3022B00D038E01F4B1B78DBB2002B04D100F02BFC0346FB752EE02DE01A4B1B78DBB265
:402EC000012B0CD11F4B1B78DBB243F00203DAB21C4B1A70FFF73AFB0346FB751BE01AE0134B1B78DBB2002B14D1114B1B78DBB21A461549CB5CD9B20A4B1B78DBB2DB43A4
:402F0000DBB20B40D9B2104B9954FFF71FFB0346FB75FFE700BF00E000BFFB7D18461837BD4680BD026000407181FF1F7081FF1F046000406D81FF1F5C81FF1FE881FF1F81
:402F4000006000406F81FF1F7481FF1F80B483B000AF0123FB710023BB7197E0BB7903F1804303F5C1430C221A70FA794E4913465B0013449B000B445B79DBB2002B18D012
:402F8000FA79494913465B0013449B000B441B79DBB2DBB25BB2002B05DABA79434B13440C221A700AE0BA79404B134408221A7004E0BA793D4B134480221A70BA793C4BF3
:402FC00013441946FA79384813465B0013449B00034408331B889BB21B0A9BB2DBB20B70BA79344B13441946FA792F4813465B0013449B00034408331B889BB2DBB20B7024
:40300000BA792D4B13441946FA79274813465B0013449B000344DB889BB2DBB20B70BA79264B13441946FA791F4813465B0013449B000344DB889BB21B0A9BB2DBB20B705D
:40304000BA791F4B13441946FA79174813465B0013449B000344DB889BB2DBB20B70BA79184B13441946FA790F4813465B0013449B000344DB889BB21B0A9BB2DBB20B7059
:40308000FB790133FB71BB791033BB71BB795BB2002BBFF663AF0C4BFF221A700C37BD465DF8047B704700BF7C81FF1F0E6000400C6000400D600040866000408760004025
:4030C00084600040856000400A60004080B588B000AF0346FB7100237B830023FB7743E0FA7FA34913465B0013449B000B4400221A70FA7F9E4913465B0013449B000B44D8
:4031000000229A70FA7F9A4913465B0013449B000B4400225A70FA7F954913465B0013449B000B440022DA70FA7F914913465B0013449B000B4400225A71FA7F8C49134692
:403140005B0013449B000B44083300221A80FA7F874913465B0013449B000B44083300229A70FB7F0133FB77FB7F082BB8D9FB79002B10D000237B770AE07B7F7D4A002159
:40318000D1547B7F7C4A0021D1547B7F01337B777B7F002BF1D0794B1B78DBB2002B00F01181764B1B78DBB2013BDBB2184600F049FA38613B695B68FB60FB6807331B7887
:4031C00003F04003002B08D06D4B1B78DBB243F00103DAB26A4B1A7007E0694B1B78DBB223F00103DAB2664B1A703B6908333B613B691B78FB7701237B778DE03B695B6815
:403200007B610023BB777FE07A7F7B699B7803F07F039A4272D17A7F554913465B0013449B000B4408331B889AB27B699B889A420BD27A7F7B6999884D4813465B00134466
:403240009B00034408330A461A807B691B78494AD35CDAB27B695B789A424FD17B69DB7803F00303FB727B699B78DBB25BB2002B17DA7A7F3E4913465B0013449B000B4410
:4032800001225A70797FFB7A012B01D1072200E00D2237480B465B000B449B0003445A7116E07A7F324913465B0013449B000B4400225A70797FFB7A012B01D1052200E09A
:4032C00009222B480B465B000B449B0003445A717A7F7B699978264813465B0013449B0003440A461A717A7F7B69D978204813465B0013449B0003440A461A707B690833E8
:403300007B61BB7F0133BB77BA7FFB7F9A42FFF47BAF7B7F01337B777B7F082B7FF66EAF3B695B687B6100237B7714E07B699B7803F07F027B6919780D4813465B001344FA
:403340009B00034408330A469A707B6908337B617B7F01337B777A7FFB7F9A42E6D300F0ADF90246074B1A600123FB7725E000BF7C81FF1F5C81FF1FE881FF1F7181FF1F02
:403380006F81FF1F7881FF1FFA7F104913465B0013449B000B447A8BDA80FA7F0B4913465B0013449B000B4408331B889AB27B8B13447B83FB7F0133FB77FB7F082BE3D9F2
:4033C000FFF7C4FD2037BD4680BD00BF7C81FF1F80B584B000AF8F4B1B78DBB2002B00F015818C4B1B78DBB2013BDBB2184600F029F978607B6808337B607B681B78FB7000
:403400007B685B68BB600023FB73FAE0BB681B78814AD35CDAB2BB681B788049CB5CDBB29A4200F0E880BB681B787B4AD35CDAB2BB685B789A4240F0DE80BB681A78784BAF
:403440001B78DBB29A4240F0D680BB689B7803F07F03BB70BB78013BDBB21B017B70BB68DB7803F003033B70BB689B78DBB25BB2002B17DABA786B4913465B0013449B005F
:403480000B4401225A70B9783B78012B01D1072200E00D2263480B465B000B449B0003445A7116E0BA785F4913465B0013449B000B4400225A70B9783B78012B01D10522A9
:4034C00000E0092257480B465B000B449B0003445A717A78544B134401221A70BA78BB689988504813465B0013449B00034408330A461A80BA78BB6899784A4813465B0019
:4035000013449B0003440A461A71BA78BB68D978444813465B0013449B0003440A461A70BA78404913465B0013449B000B440022DA707A783D4B13441946BA783948134626
:403540005B0013449B00034408331B889BB21B0A9BB2DBB20B707A78354B13441946BA78304813465B0013449B00034408331B889BB2DBB20B707A782E4B13441946BA78CD
:40358000284813465B0013449B000344DB889BB2DBB20B707A78284B13441946BA78214813465B0013449B000344DB889BB21B0A9BB2DBB20B707A78204B13441946BA78E4
:4035C000184813465B0013449B000344DB889BB2DBB20B707A781A4B13441946BA78114813465B0013449B000344DB889BB21B0A9BB2DBB20B70BB680833BB60FB7B0133F4
:40360000FB73FA7BFB789A42FFF400AF1037BD4680BD00BF7181FF1F5C81FF1FE881FF1F046000407C81FF1F0E6000400C6000400D600040866000408760004084600040A7
:403640008560004080B485B000AF0346FB71104B1B78DBB20F4ADB0013445B68FB60FB680833FB60FB681B78FA799A4202D30023FB6005E0FB79DB00FA6813445B68FB6098
:40368000FB6818461437BD465DF8047B704700BF6C81FF1F203D000080B400AF054B1B78DBB2054ADB0013445B681846BD465DF8047B70476C81FF1F203D000080B584B0F5
:4036C00000AF104B1B78DBB2013BDBB21846FFF7B9FFB860BB68002B0DD0BB685B681B79FB71FB790233DB00BA681344BB60BB685B68FB6001E00023FB60FB6818461037E2
:40370000BD4680BD7181FF1F80B582B000AF0023FB71324B1B78DBB203F07F03BB71BB79013BDBB21B017B71BB79002B51D0BB79082B4ED8BA79B97929480B465B000B4473
:403740009B0003449B78DBB243F00103D9B2244813465B0013449B0003440A469A70BA791F4913465B0013449B000B440022DA70BA79B9791A480B465B000B449B000344B2
:403780005B78DBB243F00203D9B2154813465B0013449B0003440A465A70BA79104913465B0013449B000B441B79DBB2DBB25BB2002B05DA7A790B4B13448D221A7004E07F
:4037C0007A79084B134489221A70FEF7BFFE0346FB71FB7918460837BD4680BD046000407C81FF1F0E60004080B582B000AF0023FB714A4B1B78DBB203F07F03BB71BB79A3
:40380000013BDBB21B017B71BB79002B00F08180BB79082B7DD8BA79B97941480B465B000B449B0003449B78DBB223F00103D9B23B4813465B0013449B0003440A469A70D4
:40384000BA79374913465B0013449B000B440022DA707A79334B13441A467979314B0B441B78DBB203F07F03DBB21370BA79B9792B480B465B000B449B0003445B78DBB295
:4038800023F00203D9B2264813465B0013449B0003440A465A70BA79214913465B0013449B000B441B79DBB2DBB25BB2002B16DABA791B4913465B0013449B000B445B7829
:4038C000DBB2012B05D17A79174B13440C221A701BE07A79144B13440D221A7015E0BA790F4913465B0013449B000B445B78DBB2012B05D17A790C4B134408221A7004E068
:403900007A79094B134409221A70FEF71FFE0346FB71FB7918460837BD4680BD046000407C81FF1F0C6000400E60004080B584B000AF0123FB73164B1B78BB73154B1B7844
:40394000DBB2013BDBB21846FFF77CFEB860BB685B681B79FB71BA7BFB799A4202D2BB7B002B02D00023FB730CE0BB7BBA7B0A498A5CD1B2094AD154BB7B094A1278D1B2E7
:40398000054AD154FB7B18461037BD4680BD00BF046000407181FF1F5C81FF1FE881FF1F0260004080B483B000AF0023FB710A4B1B78DBB2DBB25BB2002B06DA074B1B78FD
:4039C000DBB2012B00D000E000BFFB7918460C37BD465DF8047B7047006000400160004080B582B000AF0023FB710023BB711B4B1B78DBB203F00303012B02D0022B04D049
:403A000012E0174B1B78BB710EE0154B1B78DBB203F07F02134913465B0013449B000B4408339B78BB7100BF0F4B1A68BB7913441B78022B09D0032B02D0012B07D007E01D
:403A4000FEF75EFE0346FB7102E000BF00E000BFFB7918460837BD4680BD00BF00600040046000407C81FF1F7881FF1F70B50E4B0E4D0024ED1AAD101E46AC4204D056F845
:403A8000242090470134F8E700F04EF9084D094B0024ED1AAD101E46AC4204D056F8242090470134F8E770BD343D0000343D00003C3D0000343D000010B50023934203D0E3
:403AC000CC5CC4540133F9E710BD02440346934202D003F8011BFAE7704700007F000000803D00000000000000510040400050510040200000000140001000140140000804
:403B000000400140000A004C01400002005001402000000001450040035200400107014001090140040A0140010B014001170140011901400340014002410140044201402C
:403B4000044301400347014003480140024C0140015101407E02248061017C40EE08AF20B820BE10D804DF011F20EE0AEE0A33803640CC30A640A7805320A640A780D42046
:403B8000A640A780AF20EE1008080F40C20CAE40AF80EE50AC08AF40000A00000100000101000100000000000000000000000000C0000000800080008000000000000000B2
:403BC0006930122E001E01011201000200000008B4041DB701300102800100000902290001010280FA090400000203000002092111010001222400070501034000010705C8
:403C0000820340000100000004030904280345006D0062006500640069007400200045006C0065006300740072006F006E006900630073002803500053006F00430020008A
:403C400035004C005000200042006F006F0074006C006F006100640065007200000000000A0330003300300031000000240005010900A1000900A1000900150025FF75083A
:403C8000954091020900150025FF750895408102C0C00000410000000082FF1FFC81FF1F410000004482FF1F8882FF1F00000000943C000000000000A03C00000000000090
:403CC00000000000010000006C3C000001000000EE3B000001000000AC3C0000000001034000030000008203400003000300000001000000DC3B000002000000DC3C0000C4
:403D000001000000D43C000000000000EC3C000001000000C83B000001000000F03C000001000000103D0000F8B500BFF8BC08BC9E467047610000005D010000F8B500BF21
:403D4000F8BC08BC9E4670473D000000603D00000881FF1F20000000680100000000000000000000DC3A0000E03A000000366E01C05D0000180000000000E02E000000000E
:403D80000000000000000000000000000000000000000000000000000000000000000000000000000000000000000000000000000000000000000000000000000000000003
:403DC00000000000000000000000000000000000000000000000000000000000000000000000000000000000000000000000000000000000000000000000000000000000C3
:403E000000800020113E0000B1770000B177000080B500AF03F0D0FC10B5054C237833B9044B13B10448AFF300800123237010BD4081FF1F00000000D40C010008B5064B30
:403E40001BB106480649AFF300800648036813B1054B03B1984708BD00000000D40C01004481FF1F0881FF1F0000000080B584B002AF62B603F024FC0A4803F031FC09481F
:403E800003F052FA074B3A1D00920FCB00F00CF80346002B04D07B68184603F05FFCEBE7EAE700BF3082FF1FB0B58AB004AF3C4684E80F000023FB757B78BB757B88BB826C
:403EC0003B78FB74FB7C0F2B00F09D800F2B18DC0A2B66D00A2B0BDC062B3DD0062B02DC042B2FD018E1082B40D0092B4FD013E10C2B6AD00C2B5EDB0D2B70D00E2B78D055
:403F00000AE1FB2B00F0CB80FB2B0EDC162B00F0E380162B02DC102B7FD0FDE0172B00F08680182B00F08D80F6E0FD2B00F0CC80FD2BC0F29080FE2B00F0E180FF2B00F0DB
:403F4000E880E9E0BA7DBB8A10461946BA6A00F019FB0346FB75DFE0BA7DBB8A10461946BA6A00F063FB0346FB75D5E0BB79C3F30203DBB21A46FB793C7AB87DB98A00941C
:403F8000BC6A019400F0BCFB0346FB75C4E0BA7DBB8A10461946BA6A00F022FE0346FB75BAE0BA7DBB8A10461946BA6A00F082FE0346FB75B0E0BA7DBB8A10461946BA6A27
:403FC00000F0E2FE0346FB75A6E0BA7DBB8A10461946BA6A00F042FF0346FB759CE0BA7DBB8A10461946BA6A00F0A2FF0346FB7592E0BA7DBB8A10461946BA6A01F002F8A6
:404000000346FB7588E0BA7DBB8A10461946BA6A01F062F80346FB757EE0BA7DBB8A10461946BA6A01F0C2F80346FB7574E0BA7DBB8A10461946BA6A01F01AFD0346FB7585
:404040006AE0BA7DBB8A10461946BA6A01F076FD0346FB7560E03B79C3F30303DBB219463B79C3F30213DBB21A467B79C3F30303DBB27879C0F30210C0B20546B87AC0F3E7
:404080000500C0B20446B87D00950194BC8A0294BC6A039401F0D8FD0346FB753CE07B7AC3F3C203DBB21A467B7AC3F30203DBB2F968C1F317010C46B87DB98A009403F094
:4040C00061F80346FB7527E0BB8A1846B96A03F049F80346FB751FE03B79C3F30303DBB219463B79C3F30213DBB21A46B87DBB8ABC6A009401F0C4F80346FB750CE0BA7D70
:40410000BB8A10461946BA6A00F00CF80346FB7502E00BF09DFD00BFFB7D18461837BD46B0BD00BF80B586B000AF0B463A600246FA71BB803B6800221A600023BB75002382
:404140007B7500233B750023FB740023BB7400237B7400233B740023FB730023BB7300237B730023FB75FB79082B00F2068201A252F823F099410000E3410000EB410000E3
:4041800041420000974200007B4500007B450000F7420000894400003B681B6843F008023B681A603B681B6843F020023B681A603B681B6843F080023B681A600823BB73B4
:4041C0000A237B733B681A687B7B1B021A433B681A603B681A68BB7B9B031A433B681A60CBE13B6884221A60C7E17B7D43F001037B757B7D43F002037B757B7D43F00403F7
:404200007B757B7D43F008037B757B7D43F010037B757B7D43F020037B757B7D43F040037B757B7D63F07F037B753B7D1A047B7D1B021A43BB7D13431A463B681A609CE111
:40424000BB7C43F00103BB74BB7C43F00203BB74BB7C43F00403BB74BB7C43F00803BB74BB7C43F01003BB74BB7C43F02003BB74BB7C43F04003BB74BB7C63F07F03BB7440
:404280007B7C1A04BB7C1B021A43FB7C13431A463B681A6071E13B7C43F001033B743B7C43F002033B743B7C43F004033B743B7C43F008033B743B7C43F010033B743B7CBA
:4042C00043F020033B743B7C43F040033B743B7C63F07F033B74FB7B43F01003FB73FB7B43F02003FB73FB7B1A023B7C13431A463B681A6041E1BB880B2B00F23B8101A236
:4043000052F823F03543000089430000DD43000031440000854400008544000085440000854400008544000085440000854400008544000003F0DEFE0346042B18D801A225
:4043400052F823F0594300005F43000071430000654300006B4300000123FB7508E00223FB7505E00323FB7502E00423FB7500BF03F0B4FE03465A1CFB7D1B04134343F44C
:4043800000223B681A607EE009F048FA0346042B18D801A252F823F0AD430000B3430000C5430000B9430000BF4300000123FB7508E00223FB7505E00323FB7502E004233C
:4043C000FB7500BF09F01EFA03465A1CFB7D1B04134343F480123B681A6054E008F044FE0346042B18D801A252F823F00144000007440000194400000D4400001344000080
:404400000123FB7508E00223FB7505E00323FB7502E00423FB7500BF08F01AFE03465A1CFB7D1B04134343F4C0123B681A602AE008F0C6FB0346042B18D801A252F823F0AB
:40444000554400005B4400006D44000061440000674400000123FB7508E00223FB7505E00323FB7502E00423FB7500BF08F09CFB03465A1CFB7D1B04134343F400123B6818
:404480001A6000E000BF75E0BB88052B74D801A252F823F0AD4400000F450000714500007145000071450000714500003B681B6843F001023B681A603B681B6843F01002CE
:4044C0003B681A603B681B6843F020023B681A603B681B6843F400723B681A603B681B6843F400623B681A603B681B6843F480423B681A603B681B6843F480323B681A60D7
:404500003B681B6843F400223B681A6031E03B681B6843F003023B681A603B681B6843F010023B681A603B681B6843F060023B681A603B681B6843F400723B681A603B6864
:404540001B6843F480523B681A603B681B6843F480423B681A603B681B6843F400323B681A603B681B6843F400223B681A6000E000BF01E000BF00E000BF0123184618375F
:40458000BD4680BD80B584B000AF0B463A600246FA71BB800023FB73FB79062B40D801A252F823F0C1450000C7450000CD450000EB45000009460000154600001B4600001D
:4045C00004F064FA2CE004F075FA29E0BB88002B02D0012B04D023E0002004F085FA03E0022004F081FA00BF1AE0BB88002B02D0012B04D014E0002004F096FA03E004200F
:4046000004F092FA00BF0BE0BB88DBB2184604F0ABFA05E004F024FB02E004F03BFB00BFFB7B18461037BD4680BD00BF80B584B000AF0B463A600246FA71BB800023FB732A
:40464000FB79072B57D801A252F823F06D460000734600007946000097460000B5460000DF460000EB460000F146000004F09AF841E004F0ABF83EE0BB88002B02D0012B0D
:4046800004D038E0002004F0BBF803E0022004F0B7F800BF2FE0BB88002B02D0012B04D029E0002004F0CCF803E0042004F0C8F800BF20E0BB88012B08D0022B0AD0002BBD
:4046C00000D018E0002004F0DBF807E0042004F0D7F803E0082004F0D3F800BF0BE0BB88DBB2184604F0ECF805E004F071F902E004F088F900BFFB7B18461037BD4680BD0F
:4047000080B584B000AFF871B980BA71FB700023FB73FB79092B39D0092B0BDC012B1AD0012B02DC002B13D052E0042B16D0072B1DD04DE0FD2B35D0FD2B04DC0B2B2BD0A5
:404740000C2B2CD044E0FE2B2FD0FF2B30D03FE008F0C6F83CE008F0D3F839E0B979FA783B7E084611461A4600F03AF830E0BB88002B02D0012B04D02AE000200AF07AFC55
:4047800003E002200AF076FC00BF21E0BB88DBB218460AF0AFFC1BE008F036F918E008F047F915E007F05AFF12E007F071FF0FE0BB88013B9BB21846012107F083FF08F059
:4047C0002FF803461A46FB691A600123FB7300BFFB7B18461037BD4680BD00BF00000000B0B5ADF5A46D00AFFB1D1870BB1D19707B1D1A7007F58162894B11461A46FF232A
:40480000084611461A460CF053FA07F54272854B11461A46FF23084611461A460CF048FA07F50272804B11461A46FF23084611461A460CF03DFA07F584727C4B11461A46D2
:40484000FF23084611461A460CF032FA07F1080318460021FF220CF034FA002387F80735FB1D1B78002B65D10023C7F814355CE007F58162D7F8143513441B7818460BF091
:40488000DBFB04460D46BB1D1B7818460BF0D4FB02460B46104619465FA3D3E900230BF06BFD02460B46204629460BF03BFC02460B4614461D467B1D1B7818460BF0BCFB2F
:4048C00002460B46204629460BF07AFA02460B4607F5A361C1E9002307F5A363D3E900014DA3D3E900230BF0ADFE0346002B06D049A3D3E9002307F5A361C1E9002307F563
:40490000A363D3E900010BF0A7FE034687F8073507F10802D7F81435134497F807251A70D7F814350133C7F81435D7F81435FE2B9EDD68E0FB1D1B78012B64D10023C7F814
:4049400010355CE007F54272D7F8103513441B7818460BF071FB04460D46BB1D1B7818460BF06AFB02460B46104619462AA3D3E900230BF001FD02460B46204629460BF021
:40498000D1FB02460B4614461D467B1D1B7818460BF052FB02460B46204629460BF010FA02460B4607F5A361C1E9002307F5A363D3E9000118A3D3E900230BF043FE03464D
:4049C000002B06D014A3D3E9002307F5A361C1E9002307F5A363D3E900010BF03DFE034687F8073507F10802D7F81035134497F807251A70D7F810350133C7F81035D7F88D
:404A00001035FE2B9EDDFB1D1B78022B71D10023C7F80C3569E000BF0000000000E06F40E00C0100E00D0100E00E0100E00F010007F50272D7F80C3513441B7818460BF03C
:404A4000FBFA04460D46BB1D1B7818460BF0F4FA02460B46104619465FA3D3E900230BF08BFC02460B46204629460BF05BFB02460B4614461D467B1D1B7818460BF0DCFAD2
:404A800002460B46204629460BF09AF902460B4607F5A361C1E9002307F5A363D3E900014DA3D3E900230BF0CDFD0346002B06D049A3D3E9002307F5A361C1E9002307F563
:404AC000A363D3E900010BF0C7FD034687F8073507F10802D7F80C35134497F807251A70D7F80C350133C7F80C35D7F80C35FE2B9EDDFB1D1B78032B64D10023C7F808355D
:404B00005CE007F58472D7F8083513441B7818460BF092FA04460D46BB1D1B7818460BF08BFA02460B46104619462BA3D3E900230BF022FC02460B46204629460BF0F2FA1D
:404B400002460B4614461D467B1D1B7818460BF073FA02460B46204629460BF031F902460B4607F5A361C1E9002307F5A363D3E9000119A3D3E900230BF064FD0346002BCB
:404B800006D015A3D3E9002307F5A361C1E9002307F5A363D3E900010BF05EFD034687F8073507F10802D7F80835134497F807251A70D7F808350133C7F80835D7F80835B0
:404BC000FE2B9EDD07F108031846FF2107F0E4FE07F5A467BD46B0BD0000000000E06F4080B584B000AF0B463A600246FA71BB800023FB73FB790E2B2FD00E2B0BDC012B37
:404C00001AD0012B02DC002B13D04DE00C2B16D00D2B19D048E0192B30D0192B04DC0F2B20D0182B27D03FE01A2B2AD0FF2B2BD03AE003F06FFA37E003F0D8FA34E0BB88E7
:404C4000184603F011FB2FE003F082FB03461A463B681A600123FB7326E0BB88184603F013FB21E003F068FB03461A463B681A600123FB7318E003F0E9FA15E003F0ACFB4C
:404C800012E003F0C3FB0FE0BB88013B9BB21846012103F075F903F021FA03461A463B681A600123FB7300BFFB7B18461037BD4680BD00BF80B584B000AF0B463A6002462B
:404CC000FA71BB800023FB73FB790E2B2FD00E2B0BDC012B1AD0012B02DC002B13D04DE00C2B16D00D2B19D048E0192B30D0192B04DC0F2B20D0182B27D03FE01A2B2AD0C6
:404D0000FF2B2BD03AE003F08FFB37E003F0F8FB34E0BB88184603F031FC2FE003F0A2FC03461A463B681A600123FB7326E0BB88184603F033FC21E003F088FC03461A4603
:404D40003B681A600123FB7318E003F009FC15E003F0CCFC12E003F0E3FC0FE0BB88013B9BB21846012103F00BF903F0B7F903461A463B681A600123FB7300BFFB7B184660
:404D80001037BD4680BD00BF80B584B000AF0B463A600246FA71BB800023FB73FB790E2B2FD00E2B0BDC012B1AD0012B02DC002B13D04DE00C2B16D00D2B19D048E0192B5A
:404DC00030D0192B04DC0F2B20D0182B27D03FE01A2B2AD0FF2B2BD03AE007F001FF37E007F06AFF34E0BB88184607F0A3FF2FE008F014F803461A463B681A600123FB7367
:404E000026E0BB88184607F0A5FF21E007F0FAFF03461A463B681A600123FB7318E007F07BFF15E008F03EF812E008F055F80FE0BB88013B9BB21846012108F035FC08F0C8
:404E4000E1FC03461A463B681A600123FB7300BFFB7B18461037BD4680BD00BF80B584B000AF0B463A600246FA71BB800023FB73FB790E2B2FD00E2B0BDC012B1AD0012B94
:404E800002DC002B13D04DE00C2B16D00D2B19D048E0192B30D0192B04DC0F2B20D0182B27D03FE01A2B2AD0FF2B2BD03AE008F0C5FC37E008F02CFD34E0BB88184608F06C
:404EC00065FD2FE008F0D6FD03461A463B681A600123FB7326E0BB88184608F067FD21E008F0BCFD03461A463B681A600123FB7318E008F03DFD15E008F000FE12E008F012
:404F000017FE0FE0BB88013B9BB21846012108F0CBFB08F077FC03461A463B681A600123FB7300BFFB7B18461037BD4680BD00BF80B584B000AF0B463A600246FA71BB80D6
:404F40000023FB73FB790E2B2FD00E2B0BDC012B1AD0012B02DC002B13D04DE00C2B16D00D2B19D048E0192B30D0192B04DC0F2B20D0182B27D03FE01A2B2AD0FF2B2BD0C4
:404F80003AE008F009FA37E008F070FA34E0BB88184608F0A9FA2FE008F01AFB03461A463B681A600123FB7326E0BB88184608F0ABFA21E008F000FB03461A463B681A60A1
:404FC0000123FB7318E008F081FA15E008F044FB12E008F05BFB0FE0BB88013B9BB21846012107F087FF08F033F803461A463B681A600123FB7300BFFB7B18461037BD4638
:4050000080BD00BF80B584B000AF0B463A600246FA71BB800023FB73FB790E2B2FD00E2B0BDC012B1AD0012B02DC002B13D04DE00C2B16D00D2B19D048E0192B30D0192BDD
:4050400004DC0F2B20D0182B27D03FE01A2B2AD0FF2B2BD03AE008F017F837E008F07EF834E0BB88184608F0B7F82FE008F028F903461A463B681A600123FB7326E0BB889E
:40508000184608F0B9F821E008F00EF903461A463B681A600123FB7318E008F08FF815E008F052F912E008F069F90FE0BB88013B9BB21846012107F01DFF07F0C9FF034640
:4050C0001A463B681A600123FB7300BFFB7B18461037BD4680BD00BF80B584B000AF0B463A600246FA71BB800023FB73FB790E2B2FD00E2B0BDC012B1AD0012B02DC002B2F
:4051000013D04DE00C2B16D00D2B19D048E0192B30D0192B04DC0F2B20D0182B27D03FE01A2B2AD0FF2B2BD03AE004F0A1FB37E004F008FC34E0BB88184604F041FC2FE0FC
:4051400004F0B2FC03461A463B681A600123FB7326E0BB88184604F043FC21E004F098FC03461A463B681A600123FB7318E004F019FC15E004F0DCFC12E004F0F3FC0FE0F4
:40518000BB88013B9BB21846012107F05FFC07F00BFD03461A463B681A600123FB7300BFFB7B18461037BD4680BD00BF80B584B000AF0B463A600246FA71BB800023FB739F
:4051C000FB790E2B2FD00E2B0BDC012B1AD0012B02DC002B13D04DE00C2B16D00D2B19D048E0192B30D0192B04DC0F2B20D0182B27D03FE01A2B2AD0FF2B2BD03AE009F0C0
:4052000085FA37E009F0EEFA34E0BB88184609F027FB2FE009F098FB03461A463B681A600123FB7326E0BB88184609F029FB21E009F07EFB03461A463B681A600123FB73A5
:4052400018E009F0FFFA15E009F0C2FB12E009F0D9FB0FE0BB88013B9BB21846012107F0F5FB07F0A1FC03461A463B681A600123FB7300BFFB7B18461037BD4680BD00BFF3
:4052800080B584B000AFF871B9717A717B800023FB8100237B73FB79042B00F2E48301A252F823F0B95200008D550000675A0000C5570000675A0000BB790F2B00F2CE8375
:4052C00001A252F823F000BF7D5500005D5A0000095300007D5500007D550000CB5300007D5500005D5A00005D5A00005D5A00005D5A00005D5A00008B5400005D5A00004D
:405300005D5A00004B5500007B79072B00F2388101A252F823F000BF395300004B5300005D5300006F5300008153000093530000A5530000B753000005F058F803461A4640
:40534000BB691A6001237B733EE004F053FE03461A46BB691A6001237B7335E004F022FF03461A46BB691A6001237B732CE005F0D1F803461A46BB691A6001237B7323E018
:4053800005F07EF803461A46BB691A6001237B731AE004F099FF03461A46BB691A6001237B7311E004F0B4FE03461A46BB691A6001237B7308E004F063FE03461A46BB6950
:4053C0001A6001237B7300BFDAE07B79072B00F2D98001A252F823F0F95300000B5400001D5400002F5400004154000053540000655400007754000005F068F903461A46D9
:40540000BB691A6001237B733EE004F01BFD03461A46BB691A6001237B7335E004F0EAFB03461A46BB691A6001237B732CE004F02BFC03461A46BB691A6001237B7323E06F
:4054400004F06CFC03461A46BB691A6001237B731AE004F0ADFC03461A46BB691A6001237B7311E008F0ACFB03461A46BB691A6001237B7308E008F0E9FB03461A46BB690D
:405480001A6001237B7300BF7CE07B79072B7BD801A252F823F000BFB9540000CB540000DD540000EF5400000155000013550000255500003755000004F0BCFE03461A4652
:4054C000BB691A6001237B733EE009F00FF903461A46BB691A6001237B7335E004F03EFF03461A46BB691A6001237B732CE005F05BF803461A46BB691A6001237B7323E035
:4055000005F09CF803461A46BB691A6001237B731AE005F025F903461A46BB691A6001237B7311E004F0D8FC03461A46BB691A6001237B7308E004F015FD03461A46BB6956
:405540001A6001237B7300BF1EE07B79042B02D0052B09D019E009F09DFA03461A46BB691A6001237B7308E009F0DEFA03461A46BB691A6001237B7300BF06E000BF6DE23D
:4055800000BF6BE200BF69E200BF67E2BB790F2B00F2668201A252F823F000BFB5570000615A0000DD550000B5570000B55700006F560000B5570000615A0000615A00006E
:4055C000615A0000615A0000615A0000FF560000615A0000615A00008F5700007B79072B00F2EA8001A252F823F000BF0D5600001956000025560000315600003D56000021
:405600004956000055560000615600007B88DBB2184604F0B3FE29E07B88DBB2184604F0AFFC23E07B88DBB2184604F081FD1DE07B88DBB2184604F033FF17E07B88DBB245
:40564000184604F0E3FE11E07B88DBB2184604F001FE0BE07B88DBB2184604F01FFD05E07B88DBB2184604F0D5FC00BFA4E07B79072B00F2A38001A252F823F09D56000033
:40568000A9560000B5560000C1560000CD560000D9560000E5560000F15600007B88DBB2184604F0DBFF29E07B88DBB2184604F08FFB23E07B88DBB2184604F061FA1DE087
:4056C0007B88DBB2184604F0A5FA17E07B88DBB2184604F0E9FA11E07B88DBB2184604F02DFB0BE07B88DBB2184608F02FFA05E07B88DBB2184608F073FA00BF5EE07B794F
:40570000072B5DD801A252F823F000BF2D5700003957000045570000515700005D5700006957000075570000815700007B88DBB2184604F047FD29E07B88DBB2184608F0BE
:405740009BFF23E07B88DBB2184604F0CDFD1DE07B88DBB2184604F0EDFE17E07B88DBB2184604F031FF11E07B88DBB2184604F0BDFF0BE07B88DBB2184604F073FB05E05E
:405780007B88DBB2184604F0B7FB00BF18E07B79042B02D0052B06D013E07B88DBB2184609F03EF905E07B88DBB2184609F082F900BF06E000BF53E100BF51E100BF4FE1D3
:4057C00000BF4DE17B88013B072B2BD801A252F823F000BFF5570000FB57000001580000075800000D58000013580000195800001F5800000023FB8114E00223FB8111E056
:405800000423FB810EE00623FB810BE00823FB8108E00A23FB8105E00C23FB8102E00E23FB8100BFBB790F2B00F21C8101A252F823F000BF4D5A0000655A00007558000042
:405840004D5A00004D5A0000075900004D5A0000655A0000655A0000655A0000655A0000655A000097590000655A0000655A0000275A00007B79072B00F2EA8001A252F8BA
:4058800023F000BFA5580000B1580000BD580000C9580000D5580000E1580000ED580000F9580000FB89DBB2184604F083FD29E0FB89DBB2184604F081FB23E0FB89DBB2FF
:4058C000184604F053FC1DE0FB89DBB2184604F005FE17E0FB89DBB2184604F0B5FD11E0FB89DBB2184604F0D3FC0BE0FB89DBB2184604F0F1FB05E0FB89DBB2184604F0F3
:40590000A3FB00BFA4E07B79072B00F2A38001A252F823F035590000415900004D5900005959000065590000715900007D59000089590000FB89DBB2184604F0ABFE29E076
:40594000FB89DBB2184604F061FA23E0FB89DBB2184604F033F91DE0FB89DBB2184604F077F917E0FB89DBB2184604F0BBF911E0FB89DBB2184604F0FFF90BE0FB89DBB2B1
:40598000184608F001F905E0FB89DBB2184608F041F900BF5EE07B79072B5DD801A252F823F000BFC5590000D1590000DD590000E9590000F5590000015A00000D5A00002A
:4059C000195A0000FB89DBB2184604F017FC29E0FB89DBB2184608F06DFE23E0FB89DBB2184604F09FFC1DE0FB89DBB2184604F0BFFD17E0FB89DBB2184604F003FE11E07A
:405A0000FB89DBB2184604F08FFE0BE0FB89DBB2184604F045FA05E0FB89DBB2184604F085FA00BF18E07B79042B02D0052B06D013E0FB89DBB2184609F010F805E0FB89A4
:405A4000DBB2184609F054F800BF06E000BF09E000BF07E000BF05E000BF03E000BF02E000BF00E000BF7B7B18461037BD4680BD80B584B000AF0B463A600246FA71BB80F2
:405A80000023FB7308F058FCFB79002B02D0FB79012B10D108F06EFC002008F077FCBB88184608F08BFC03461A463B681A6008F067FC08F057FCFB79032B39D801A252F8FE
:405AC00023F000BFD55A0000DB5A0000F75A0000055B00000123FB732AE03B681B689BB21BB2184608F0A2FC03461A463B681A600123FB731CE0BB88184608F07DFC08F091
:405B000031FC15E0BB880A2B07D00C2B09D0082B0BD1082008F07EFC07E00A2008F07AFC03E00C2008F076FC00BF08F01BFC00BFFB7B18461037BD4680BD00BF80B584B033
:405B400000AF0B463A600246FA71BB800023FB730023BB60FB79032B1AD0032B06DC012B10D0012B11DC002B07D067E0182B28D0FF2B3CD00F2B0ED060E003F091F903F08B
:405B80001BFC5BE003F09CF958E003F01DFE55E003F060FE52E003F0DBFC03F045FA00BF03F06CFA0346002BFAD1BB88DBB2184603F074FA03461A463B681A600123FB73D3
:405BC0003CE003F0C5FC03F02FFA00BF03F056FA0346002BFAD1BB88DBB2184603F064FD03461A463B681A600123FB7326E003F0AFFC0023BB601CE003F016FA00BF03F00B
:405C00003DFA0346002BFAD1BB68DBB2184603F045FA0346BA889A4208D83B681A68BB68012101FA03F31A433B681A60BB680133BB60BB68072BDFD90123FB73FB7B1846AD
:405C40001037BD4680BD00BF90B585B000AFF871B9717A713B710023FB600023BB7200237B7208F06BFC012008F0F6FC0023FB72FB79002B04D0012B01F05A8201F05EBA3E
:405C80000123FB723B790F2B00F23B8301A252F823F000BFD55C000003630000095D00009B5E0000D15E0000015F00009360000003630000036300000363000003630000E6
:405CC00003630000C960000003630000036300005B62000097F82030072B00F2038301A252F823F0055D0000055D0000055D0000055D0000055D0000055D0000055D000055
:405D0000055D000000BFEDE297F82030072B00F2EB8201A252F823F0395D0000655D0000915D0000BD5D0000E95D0000155E0000415E00006D5E00000C2004F03BFB00200A
:405D400004F01CFB022009F093FF012004F016FB97F824309BB2184609F08AFF002004F00DFB99E00C2004F029F9002004F008F9022009F07DFF012004F002F997F82430BF
:405D80009BB2184609F074FF002004F0F9F883E00C2004F0EBF9002004F0CAF9022009F067FF012004F0C4F997F824309BB2184609F05EFF002004F0BBF96DE00C2004F01D
:405DC0008DFB002004F06CFB022009F051FF012004F066FB97F824309BB2184609F048FF002004F05DFB57E00C2004F02DFB002004F00CFB022009F03BFF012004F006FB80
:405E000097F824309BB2184609F032FF002004F0FDFA41E00C2004F03BFA002004F01AFA022009F025FF012004F014FA97F824309BB2184609F01CFF002004F00BFA2BE0D9
:405E40000C2004F049F9002004F028F9022009F00FFF012004F022F997F824309BB2184609F006FF002004F019F915E00C2004F0EBF8002004F0CEF8022009F0F9FE01207B
:405E800004F0C8F897F824309BB2184609F0F0FE002004F0BFF800BF26E297F82030072B00F2248201A252F823F000BFCD5E0000CD5E0000CD5E0000CD5E0000CD5E0000E8
:405EC000CD5E0000CD5E0000CD5E000000BF0DE297F82030062B00F20B8201A252F823F0FD5E0000FD5E0000FD5E0000FD5E0000FD5E0000FD5E0000FD5E000000BFF7E1D0
:405F000097F82030072B00F2F58101A252F823F0315F00005D5F0000895F0000B55F0000E15F00000D60000039600000656000000C2004F0AFFB002004F090FB022009F011
:405F400097FE012004F08AFB97F824309BB2184609F08EFE002004F081FB99E00C2003F055FF002003F034FF022009F081FE012003F02EFF97F824309BB2184609F078FE45
:405F8000002003F025FF83E00C2003F017FE002003F0F6FD022009F06BFE012003F0F0FD97F824309BB2184609F062FE002003F0E7FD6DE00C2003F04BFE002003F02AFEBA
:405FC000022009F055FE012003F024FE97F824309BB2184609F04CFE002003F01BFE57E00C2003F07FFE002003F05EFE022009F03FFE012003F058FE97F824309BB218466E
:4060000009F036FE002003F04FFE41E00C2003F0B3FE002003F092FE022009F029FE012003F08CFE97F824309BB2184609F020FE002003F083FE2BE00C2007F0A5FD002036
:4060400007F084FD022009F013FE012007F07EFD97F824309BB2184609F00AFE002007F075FD15E00C2007F0D5FD002007F0B8FD022009F0FDFD012007F0B2FD97F824305C
:406080009BB2184609F0F4FD002007F0A9FD00BF30E197F82030072B00F22E8101A252F823F000BFC5600000C5600000C5600000C5600000C5600000C5600000C56000004A
:4060C000C560000000BF17E197F82030072B00F2158101A252F823F0F960000025610000516100007D610000A9610000D5610000016200002D6200000C2004F07FF80020D3
:4061000004F060F8022009F0B3FD012004F05AF897F824309BB2184609F0AAFD002004F051F899E00C2008F0C5FA002008F0A4FA022009F09DFD012008F09EFA97F82430FB
:406140009BB2184609F094FD002008F095FA83E00C2004F0E7F8002004F0C6F8022009F087FD012004F0C0F897F824309BB2184609F07EFD002004F0B7F86DE00C2004F071
:40618000F7F9002004F0D6F9022009F071FD012004F0D0F997F824309BB2184609F068FD002004F0C7F957E00C2004F02BFA002004F00AFA022009F05BFD012004F004FACB
:4061C00097F824309BB2184609F052FD002004F0FBF941E00C2004F0A7FA002004F086FA022009F045FD012004F080FA97F824309BB2184609F03CFD002004F077FA2BE00F
:406200000C2003F04DFE002003F02CFE022009F02FFD012003F026FE97F824309BB2184609F026FD002003F01DFE15E00C2003F07DFE002003F060FE022009F019FD01200E
:4062400003F05AFE97F824309BB2184609F010FD002003F051FE00BF50E097F82030072B4ED801A252F823F0E1620000E1620000E1620000E162000089620000B5620000A9
:40628000E1620000E16200000C2008F0E7FB002008F0C6FB022009F0EBFC012008F0C0FB97F824309BB2184609F0E2FC002008F0B7FB16E00C2008F01BFC002008F0FAFB36
:4062C000022009F0D5FC012008F0F4FB97F824309BB2184609F0CCFC002008F0EBFB00E000BF0DE000BF0CE000BF0AE000BF08E000BF06E000BF04E000BF02E000BF00E04E
:4063000000BFBB790F2B00F2188701A252F823F0516300003B7100008763000077670000AB670000DB670000C36B00003B7100003B7100003B7100003B7100003B71000099
:40634000F56B00003B7100003B710000FD6F00007B79072B00F2DC8601A252F823F000BF8163000081630000816300008163000081630000816300008163000081630000A0
:4063800000BF00F0C5BE7B79072B00F2C38601A252F823F0B5630000296400009D6400001165000085650000F96500006D660000FF660000002008F04FF9022003F0FAFF40
:4063C00007E0B24B1B78DBB203F01003002B00D006E008F0F7F80346DBB25BB2002BF0DA012008F039F9012009F042FC002008F033F911E0A54B1B78DBB203F01003002BDA
:406400000AD108F0EBF803461C4608F015F90346E31A0233FB6006E008F0D4F80346DBB25BB2002BE6DAA4E1002008F015F9022003F0C4FD07E0964B1B78DBB203F0100338
:40644000002B00D006E008F0BDF80346DBB25BB2002BF0DA012008F0FFF8012009F008FC002008F0F9F811E0894B1B78DBB203F01003002B0AD108F0B1F803461C4608F04A
:40648000DBF80346E31A0233FB6006E008F09AF80346DBB25BB2002BE6DA6AE1002008F0DBF8022003F062FE07E07A4B1B78DBB203F01003002B00D006E008F083F80346DB
:4064C000DBB25BB2002BF0DA012008F0C5F8012009F0CEFB002008F0BFF811E06D4B1B78DBB203F01003002B0AD108F077F803461C4608F0A1F80346E31A0233FB6006E051
:4065000008F060F80346DBB25BB2002BE6DA30E1002008F0A1F8022003F0E0FF07E05E4B1B78DBB203F01003002B00D006E008F049F80346DBB25BB2002BF0DA012008F0C6
:406540008BF8012009F094FB002008F085F811E0514B1B78DBB203F01003002B0AD108F03DF803461C4608F067F80346E31A0233FB6006E008F026F80346DBB25BB2002B92
:40658000E6DAF6E0002008F067F8022003F05CFF07E0424B1B78DBB203F01003002B00D006E008F00FF80346DBB25BB2002BF0DA012008F051F8012009F05AFB002008F023
:4065C0004BF811E0354B1B78DBB203F01003002B0AD108F003F803461C4608F02DF80346E31A0233FB6006E007F0ECFF0346DBB25BB2002BE6DABCE0002008F02DF8022099
:4066000003F046FE07E0264B1B78DBB203F01003002B00D006E007F0D5FF0346DBB25BB2002BF0DA012008F017F8012009F020FB002008F011F811E0194B1B78DBB203F03B
:406640001003002B0AD107F0C9FF03461C4607F0F3FF0346E31A0233FB6006E007F0B2FF0346DBB25BB2002BE6DA82E0002007F0F3FF022003F030FD16E00A4B1B78DBB264
:4066800003F01003002B0FD015E000BF1050004011500040125000401350004014500040155000401650004007F08CFF0346DBB25BB2002BE1DA012007F0CEFF012009F057
:4066C000D7FA002007F0C8FF11E0B64B1B78DBB203F01003002B0AD107F080FF03461C4607F0AAFF0346E31A0233FB6006E007F069FF0346DBB25BB2002BE6DA39E00020EA
:4067000007F0AAFF022003F09FFC07E0A64B1B78DBB203F01003002B00D006E007F052FF0346DBB25BB2002BF0DA012007F094FF012009F09DFA002007F08EFF11E09A4B34
:406740001B78DBB203F01003002B0AD107F046FF03461C4607F070FF0346E31A0233FB6006E007F02FFF0346DBB25BB2002BE6DA00BF00F0CFBC7B79072B00F2CD8401A2AB
:4067800052F823F0A5670000A5670000A5670000A5670000A5670000A5670000A5670000A567000000BF00F0B7BC7B79062B00F2B58401A252F823F0D5670000D567000032
:4067C000D5670000D5670000D5670000D5670000D567000000BF00F0A1BC7B79072B00F29F8401A252F823F0096800007D680000F168000065690000F1690000656A000080
:40680000D96A00004D6B0000002007F025FF022003F040FF07E0654B1B78DBB203F01003002B00D006E007F0CDFE0346DBB25BB2002BF0DA012007F00FFF012009F018FA44
:40684000002007F009FF11E0584B1B78DBB203F01003002B0AD107F0C1FE03461C4607F0EBFE0346E31A0233FB6006E007F0AAFE0346DBB25BB2002BE6DAA1E1002007F036
:40688000EBFE022003F0C2FA07E0494B1B78DBB203F01003002B00D006E007F093FE0346DBB25BB2002BF0DA012007F0D5FE012009F0DEF9002007F0CFFE11E03C4B1B7871
:4068C000DBB203F01003002B0AD107F087FE03461C4607F0B1FE0346E31A0233FB6006E007F070FE0346DBB25BB2002BE6DA67E1002007F0B1FE022003F060F907E02D4B68
:406900001B78DBB203F01003002B00D006E007F059FE0346DBB25BB2002BF0DA012007F09BFE012009F0A4F9002007F095FE11E0204B1B78DBB203F01003002B0AD107F099
:406940004DFE03461C4607F077FE0346E31A0233FB6006E007F036FE0346DBB25BB2002BE6DA2DE1002007F077FE022003F070F907E0114B1B78DBB203F01003002B00D084
:4069800006E007F01FFE0346DBB25BB2002BF0DA012007F061FE012009F06AF9002007F05BFE1DE0165000401750004028500040295000402A5000402B500040B64B1B78DD
:4069C000DBB203F01003002B0AD107F007FE03461C4607F031FE0346E31A0233FB6006E007F0F0FD0346DBB25BB2002BE6DAE7E0002007F031FE022003F074F907E0A74B5B
:406A00001B78DBB203F01003002B00D006E007F0D9FD0346DBB25BB2002BF0DA012007F01BFE012009F024F9002007F015FE11E09A4B1B78DBB203F01003002B0AD107F01F
:406A4000CDFD03461C4607F0F7FD0346E31A0233FB6006E007F0B6FD0346DBB25BB2002BE6DAADE0002007F0F7FD022003F084F907E08B4B1B78DBB203F01003002B00D07A
:406A800006E007F09FFD0346DBB25BB2002BF0DA012007F0E1FD012009F0EAF8002007F0DBFD11E07E4B1B78DBB203F01003002B0AD107F093FD03461C4607F0BDFD034692
:406AC000E31A0233FB6006E007F07CFD0346DBB25BB2002BE6DA73E0002007F0BDFD022007F052F807E06F4B1B78DBB203F01003002B00D006E007F065FD0346DBB25BB27A
:406B0000002BF0DA012007F0A7FD012009F0B0F8002007F0A1FD11E0624B1B78DBB203F01003002B0AD107F059FD03461C4607F083FD0346E31A0233FB6006E007F042FD02
:406B40000346DBB25BB2002BE6DA39E0002007F083FD022007F05EF807E0534B1B78DBB203F01003002B00D006E007F02BFD0346DBB25BB2002BF0DA012007F06DFD012002
:406B800009F076F8002007F067FD11E0464B1B78DBB203F01003002B0AD107F01FFD03461C4607F049FD0346E31A0233FB6006E007F008FD0346DBB25BB2002BE6DA00BF05
:406BC000AEE27B79072B00F2AD8201A252F823F0F16B0000F16B0000F16B0000F16B0000F16B0000F16B0000F16B0000F16B000000BF97E27B79072B00F2968201A252F889
:406C000023F000BF256C0000B16C0000256D0000996D00000D6E0000816E0000F56E0000696F0000002007F017FD022003F0E6FA07E01E4B1B78DBB203F01003002B00D006
:406C400006E007F0BFFC0346DBB25BB2002BF0DA012007F001FD012009F00AF8002007F0FBFC11E0114B1B78DBB203F01003002B0AD107F0B3FC03461C4607F0DDFC034681
:406C8000E31A0233FB6006E007F09CFC0346DBB25BB2002BE6DAB0E12B5000402C5000402D5000402E5000402F50004060500040002007F0D1FC022007F0FCFC07E0B24BF9
:406CC0001B78DBB203F01003002B00D006E007F079FC0346DBB25BB2002BF0DA012007F0BBFC012008F0C4FF002007F0B5FC11E0A54B1B78DBB203F01003002B0AD107F0D2
:406D00006DFC03461C4607F097FC0346E31A0233FB6006E007F056FC0346DBB25BB2002BE6DA6AE1002007F097FC022003F0FAFA07E0964B1B78DBB203F01003002B00D0FB
:406D400006E007F03FFC0346DBB25BB2002BF0DA012007F081FC012008F08AFF002007F07BFC11E0894B1B78DBB203F01003002B0AD107F033FC03461C4607F05DFC034603
:406D8000E31A0233FB6006E007F01CFC0346DBB25BB2002BE6DA30E1002007F05DFC022003F0E6FB07E07A4B1B78DBB203F01003002B00D006E007F005FC0346DBB25BB27E
:406DC000002BF0DA012007F047FC012008F050FF002007F041FC11E06D4B1B78DBB203F01003002B0AD107F0F9FB03461C4607F023FC0346E31A0233FB6006E007F0E2FB76
:406E00000346DBB25BB2002BE6DAF6E0002007F023FC022003F0F6FB07E05E4B1B78DBB203F01003002B00D006E007F0CBFB0346DBB25BB2002BF0DA012007F00DFC012004
:406E400008F016FF002007F007FC11E0514B1B78DBB203F01003002B0AD107F0BFFB03461C4607F0E9FB0346E31A0233FB6006E007F0A8FB0346DBB25BB2002BE6DABCE03B
:406E8000002007F0E9FB022003F04EFC07E0424B1B78DBB203F01003002B00D006E007F091FB0346DBB25BB2002BF0DA012007F0D3FB012008F0DCFE002007F0CDFB11E0F9
:406EC000354B1B78DBB203F01003002B0AD107F085FB03461C4607F0AFFB0346E31A0233FB6006E007F06EFB0346DBB25BB2002BE6DA82E0002007F0AFFB022002F0D0FF33
:406F000007E0264B1B78DBB203F01003002B00D006E007F057FB0346DBB25BB2002BF0DA012007F099FB012008F0A2FE002007F093FB11E0194B1B78DBB203F01003002B21
:406F40000AD107F04BFB03461C4607F075FB0346E31A0233FB6006E007F034FB0346DBB25BB2002BE6DA48E0002007F075FB022002F0DCFF16E00A4B1B78DBB203F0100328
:406F8000002B0FD015E000BF6150004062500040635000406450004065500040665000406750004007F00EFB0346DBB25BB2002BE1DA012007F050FB012008F059FE0020AB
:406FC00007F04AFB11E0644B1B78DBB203F01003002B0AD107F002FB03461C4607F02CFB0346E31A0233FB6006E007F0EBFA0346DBB25BB2002BE6DA00BF95E07B79052B0E
:4070000000F2948001A252F823F000BF0D7100000D7100000D7100000D7100002570000099700000002007F017FB022007F016FD07E04A4B1B78DBB203F01003002B00D003
:4070400006E007F0BFFA0346DBB25BB2002BF0DA012007F001FB012008F00AFE002007F0FBFA11E03D4B1B78DBB203F01003002B0AD107F0B3FA03461C4607F0DDFA034656
:40708000E31A0233FB6006E007F09CFA0346DBB25BB2002BE6DA3AE0002007F0DDFA022007F026FD07E02E4B1B78DBB203F01003002B00D006E007F085FA0346DBB25BB2FE
:4070C000002BF0DA012007F0C7FA012008F0D0FD002007F0C1FA11E0214B1B78DBB203F01003002B0AD107F079FA03461C4607F0A3FA0346E31A0233FB6006E007F062FAC9
:407100000346DBB25BB2002BE6DA00E000BF0DE000BF12E000BF10E000BF0EE000BF0CE000BF0AE000BF08E000BF06E000BF04E03B8D184607F05EFA00E000BF012007F079
:407140008BFA07F00BFAFB6AFA681A60FB7A18461437BD4690BD00BF675000407C5000407D50004080B483B000AF03463960FB80FA883B681A60012318460C37BD465DF8E1
:40718000047B704780B582B000AFF871B980BA71FB70FB79062B36D801A252F823F000BFBD710000C3710000C9710000D9710000E5710000EF710000FB71000006F054FD8A
:4071C00021E006F0F5FD1EE0BA79FB78104619463A6900F08BF816E0BB881846396900F017F810E0BB88184606F0C6FE0BE0BB791846396900F02EF805E0FB781846396927
:4072000000F04EF800BF002318460837BD4680BD80B584B000AF03463960FB800023FB6011E0FB68184600213A6806F081FE00BF06F0A8FD0346002BFAD0012006F050FD80
